{
	"Buổi 18/Mang dong.sol": {
		"Dong": {
			"abi": [
				{
					"inputs": [],
					"name": "truong_demo",
					"outputs": [
						{
							"internalType": "uint256[]",
							"name": "",
							"type": "uint256[]"
						},
						{
							"internalType": "int256[]",
							"name": "",
							"type": "int256[]"
						}
					],
					"stateMutability": "nonpayable",
					"type": "function"
				}
			],
			"devdoc": {
				"kind": "dev",
				"methods": {},
				"version": 1
			},
			"evm": {
				"assembly": "    /* \"Bu\\xe1\\xbb\\x95i 18/Mang dong.sol\":60:303  contract Dong{... */\n  mstore(0x40, 0x80)\n    /* \"Bu\\xe1\\xbb\\x95i 18/Mang dong.sol\":80:113  uint [] truong = [1, 3, 49 , 50 ] */\n  mload(0x40)\n  dup1\n  0x80\n  add\n  0x40\n  mstore\n  dup1\n    /* \"Bu\\xe1\\xbb\\x95i 18/Mang dong.sol\":98:99  1 */\n  0x01\n    /* \"Bu\\xe1\\xbb\\x95i 18/Mang dong.sol\":80:113  uint [] truong = [1, 3, 49 , 50 ] */\n  0xff\n  and\n  dup2\n  mstore\n  0x20\n  add\n    /* \"Bu\\xe1\\xbb\\x95i 18/Mang dong.sol\":101:102  3 */\n  0x03\n    /* \"Bu\\xe1\\xbb\\x95i 18/Mang dong.sol\":80:113  uint [] truong = [1, 3, 49 , 50 ] */\n  0xff\n  and\n  dup2\n  mstore\n  0x20\n  add\n    /* \"Bu\\xe1\\xbb\\x95i 18/Mang dong.sol\":104:106  49 */\n  0x31\n    /* \"Bu\\xe1\\xbb\\x95i 18/Mang dong.sol\":80:113  uint [] truong = [1, 3, 49 , 50 ] */\n  0xff\n  and\n  dup2\n  mstore\n  0x20\n  add\n    /* \"Bu\\xe1\\xbb\\x95i 18/Mang dong.sol\":109:111  50 */\n  0x32\n    /* \"Bu\\xe1\\xbb\\x95i 18/Mang dong.sol\":80:113  uint [] truong = [1, 3, 49 , 50 ] */\n  0xff\n  and\n  dup2\n  mstore\n  pop\n  0x00\n  swap1\n  0x04\n  tag_1\n  swap3\n  swap2\n  swap1\n  tag_2\n  jump\t// in\ntag_1:\n  pop\n    /* \"Bu\\xe1\\xbb\\x95i 18/Mang dong.sol\":60:303  contract Dong{... */\n  callvalue\n  dup1\n  iszero\n  tag_3\n  jumpi\n  0x00\n  dup1\n  revert\ntag_3:\n  pop\n  jump(tag_4)\ntag_2:\n  dup3\n  dup1\n  sload\n  dup3\n  dup3\n  sstore\n  swap1\n  0x00\n  mstore\n  keccak256(0x00, 0x20)\n  swap1\n  dup2\n  add\n  swap3\n  dup3\n  iszero\n  tag_5\n  jumpi\n  swap2\n  0x20\n  mul\n  dup3\n  add\ntag_6:\n  dup3\n  dup2\n  gt\n  iszero\n  tag_7\n  jumpi\n  dup3\n  mload\n  dup3\n  swap1\n  0xff\n  and\n  swap1\n  sstore\n  swap2\n  0x20\n  add\n  swap2\n  swap1\n  0x01\n  add\n  swap1\n  jump(tag_6)\ntag_7:\ntag_5:\n  pop\n  swap1\n  pop\n  tag_8\n  swap2\n  swap1\n  tag_9\n  jump\t// in\ntag_8:\n  pop\n  swap1\n  jump\t// out\ntag_9:\ntag_10:\n  dup1\n  dup3\n  gt\n  iszero\n  tag_11\n  jumpi\n  0x00\n  dup2\n  0x00\n  swap1\n  sstore\n  pop\n  0x01\n  add\n  jump(tag_10)\ntag_11:\n  pop\n  swap1\n  jump\t// out\ntag_4:\n  dataSize(sub_0)\n  dup1\n  dataOffset(sub_0)\n  0x00\n  codecopy\n  0x00\n  return\nstop\n\nsub_0: assembly {\n        /* \"Bu\\xe1\\xbb\\x95i 18/Mang dong.sol\":60:303  contract Dong{... */\n      mstore(0x40, 0x80)\n      callvalue\n      dup1\n      iszero\n      tag_1\n      jumpi\n      0x00\n      dup1\n      revert\n    tag_1:\n      pop\n      jumpi(tag_2, lt(calldatasize, 0x04))\n      shr(0xe0, calldataload(0x00))\n      dup1\n      0xbcdbfff8\n      eq\n      tag_3\n      jumpi\n    tag_2:\n      0x00\n      dup1\n      revert\n        /* \"Bu\\xe1\\xbb\\x95i 18/Mang dong.sol\":142:300  function truong_demo() public returns (uint []memory , int []memory ){... */\n    tag_3:\n      tag_4\n      tag_5\n      jump\t// in\n    tag_4:\n      mload(0x40)\n      tag_6\n      swap3\n      swap2\n      swap1\n      tag_7\n      jump\t// in\n    tag_6:\n      mload(0x40)\n      dup1\n      swap2\n      sub\n      swap1\n      return\n    tag_5:\n        /* \"Bu\\xe1\\xbb\\x95i 18/Mang dong.sol\":181:194  uint []memory */\n      0x60\n        /* \"Bu\\xe1\\xbb\\x95i 18/Mang dong.sol\":197:209  int []memory */\n      dup1\n        /* \"Bu\\xe1\\xbb\\x95i 18/Mang dong.sol\":222:256  truong1 =[int(100), 39 , 29 , 40 ] */\n      mload(0x40)\n      dup1\n      0x80\n      add\n      0x40\n      mstore\n      dup1\n        /* \"Bu\\xe1\\xbb\\x95i 18/Mang dong.sol\":236:239  100 */\n      0x64\n        /* \"Bu\\xe1\\xbb\\x95i 18/Mang dong.sol\":222:256  truong1 =[int(100), 39 , 29 , 40 ] */\n      dup2\n      mstore\n      0x20\n      add\n        /* \"Bu\\xe1\\xbb\\x95i 18/Mang dong.sol\":242:244  39 */\n      0x27\n        /* \"Bu\\xe1\\xbb\\x95i 18/Mang dong.sol\":222:256  truong1 =[int(100), 39 , 29 , 40 ] */\n      dup2\n      mstore\n      0x20\n      add\n        /* \"Bu\\xe1\\xbb\\x95i 18/Mang dong.sol\":247:249  29 */\n      0x1d\n        /* \"Bu\\xe1\\xbb\\x95i 18/Mang dong.sol\":222:256  truong1 =[int(100), 39 , 29 , 40 ] */\n      dup2\n      mstore\n      0x20\n      add\n        /* \"Bu\\xe1\\xbb\\x95i 18/Mang dong.sol\":252:254  40 */\n      0x28\n        /* \"Bu\\xe1\\xbb\\x95i 18/Mang dong.sol\":222:256  truong1 =[int(100), 39 , 29 , 40 ] */\n      dup2\n      mstore\n      pop\n        /* \"Bu\\xe1\\xbb\\x95i 18/Mang dong.sol\":222:229  truong1 */\n      0x01\n        /* \"Bu\\xe1\\xbb\\x95i 18/Mang dong.sol\":222:256  truong1 =[int(100), 39 , 29 , 40 ] */\n      swap1\n      0x04\n      tag_9\n      swap3\n      swap2\n      swap1\n      tag_10\n      jump\t// in\n    tag_9:\n      pop\n        /* \"Bu\\xe1\\xbb\\x95i 18/Mang dong.sol\":275:281  truong */\n      0x00\n        /* \"Bu\\xe1\\xbb\\x95i 18/Mang dong.sol\":283:290  truong1 */\n      0x01\n        /* \"Bu\\xe1\\xbb\\x95i 18/Mang dong.sol\":267:292  return (truong, truong1 ) */\n      dup2\n      dup1\n      sload\n      dup1\n      0x20\n      mul\n      0x20\n      add\n      mload(0x40)\n      swap1\n      dup2\n      add\n      0x40\n      mstore\n      dup1\n      swap3\n      swap2\n      swap1\n      dup2\n      dup2\n      mstore\n      0x20\n      add\n      dup3\n      dup1\n      sload\n      dup1\n      iszero\n      tag_11\n      jumpi\n      0x20\n      mul\n      dup3\n      add\n      swap2\n      swap1\n      0x00\n      mstore\n      keccak256(0x00, 0x20)\n      swap1\n    tag_12:\n      dup2\n      sload\n      dup2\n      mstore\n      0x20\n      add\n      swap1\n      0x01\n      add\n      swap1\n      dup1\n      dup4\n      gt\n      tag_12\n      jumpi\n    tag_11:\n      pop\n      pop\n      pop\n      pop\n      pop\n      swap2\n      pop\n      dup1\n      dup1\n      sload\n      dup1\n      0x20\n      mul\n      0x20\n      add\n      mload(0x40)\n      swap1\n      dup2\n      add\n      0x40\n      mstore\n      dup1\n      swap3\n      swap2\n      swap1\n      dup2\n      dup2\n      mstore\n      0x20\n      add\n      dup3\n      dup1\n      sload\n      dup1\n      iszero\n      tag_13\n      jumpi\n      0x20\n      mul\n      dup3\n      add\n      swap2\n      swap1\n      0x00\n      mstore\n      keccak256(0x00, 0x20)\n      swap1\n    tag_14:\n      dup2\n      sload\n      dup2\n      mstore\n      0x20\n      add\n      swap1\n      0x01\n      add\n      swap1\n      dup1\n      dup4\n      gt\n      tag_14\n      jumpi\n    tag_13:\n      pop\n      pop\n      pop\n      pop\n      pop\n      swap1\n      pop\n      swap2\n      pop\n      swap2\n      pop\n        /* \"Bu\\xe1\\xbb\\x95i 18/Mang dong.sol\":142:300  function truong_demo() public returns (uint []memory , int []memory ){... */\n      swap1\n      swap2\n      jump\t// out\n    tag_10:\n      dup3\n      dup1\n      sload\n      dup3\n      dup3\n      sstore\n      swap1\n      0x00\n      mstore\n      keccak256(0x00, 0x20)\n      swap1\n      dup2\n      add\n      swap3\n      dup3\n      iszero\n      tag_15\n      jumpi\n      swap2\n      0x20\n      mul\n      dup3\n      add\n    tag_16:\n      dup3\n      dup2\n      gt\n      iszero\n      tag_17\n      jumpi\n      dup3\n      mload\n      dup3\n      sstore\n      swap2\n      0x20\n      add\n      swap2\n      swap1\n      0x01\n      add\n      swap1\n      jump(tag_16)\n    tag_17:\n    tag_15:\n      pop\n      swap1\n      pop\n      tag_18\n      swap2\n      swap1\n      tag_19\n      jump\t// in\n    tag_18:\n      pop\n      swap1\n      jump\t// out\n    tag_19:\n    tag_20:\n      dup1\n      dup3\n      gt\n      iszero\n      tag_21\n      jumpi\n      0x00\n      dup2\n      0x00\n      swap1\n      sstore\n      pop\n      0x01\n      add\n      jump(tag_20)\n    tag_21:\n      pop\n      swap1\n      jump\t// out\n        /* \"#utility.yul\":7:121   */\n    tag_22:\n        /* \"#utility.yul\":74:80   */\n      0x00\n        /* \"#utility.yul\":108:113   */\n      dup2\n        /* \"#utility.yul\":102:114   */\n      mload\n        /* \"#utility.yul\":92:114   */\n      swap1\n      pop\n        /* \"#utility.yul\":7:121   */\n      swap2\n      swap1\n      pop\n      jump\t// out\n        /* \"#utility.yul\":127:311   */\n    tag_23:\n        /* \"#utility.yul\":226:237   */\n      0x00\n        /* \"#utility.yul\":260:266   */\n      dup3\n        /* \"#utility.yul\":255:258   */\n      dup3\n        /* \"#utility.yul\":248:267   */\n      mstore\n        /* \"#utility.yul\":300:304   */\n      0x20\n        /* \"#utility.yul\":295:298   */\n      dup3\n        /* \"#utility.yul\":291:305   */\n      add\n        /* \"#utility.yul\":276:305   */\n      swap1\n      pop\n        /* \"#utility.yul\":127:311   */\n      swap3\n      swap2\n      pop\n      pop\n      jump\t// out\n        /* \"#utility.yul\":317:449   */\n    tag_24:\n        /* \"#utility.yul\":384:388   */\n      0x00\n        /* \"#utility.yul\":407:410   */\n      dup2\n        /* \"#utility.yul\":399:410   */\n      swap1\n      pop\n        /* \"#utility.yul\":437:441   */\n      0x20\n        /* \"#utility.yul\":432:435   */\n      dup3\n        /* \"#utility.yul\":428:442   */\n      add\n        /* \"#utility.yul\":420:442   */\n      swap1\n      pop\n        /* \"#utility.yul\":317:449   */\n      swap2\n      swap1\n      pop\n      jump\t// out\n        /* \"#utility.yul\":455:532   */\n    tag_25:\n        /* \"#utility.yul\":492:499   */\n      0x00\n        /* \"#utility.yul\":521:526   */\n      dup2\n        /* \"#utility.yul\":510:526   */\n      swap1\n      pop\n        /* \"#utility.yul\":455:532   */\n      swap2\n      swap1\n      pop\n      jump\t// out\n        /* \"#utility.yul\":538:646   */\n    tag_26:\n        /* \"#utility.yul\":615:639   */\n      tag_44\n        /* \"#utility.yul\":633:638   */\n      dup2\n        /* \"#utility.yul\":615:639   */\n      tag_25\n      jump\t// in\n    tag_44:\n        /* \"#utility.yul\":610:613   */\n      dup3\n        /* \"#utility.yul\":603:640   */\n      mstore\n        /* \"#utility.yul\":538:646   */\n      pop\n      pop\n      jump\t// out\n        /* \"#utility.yul\":652:831   */\n    tag_27:\n        /* \"#utility.yul\":721:731   */\n      0x00\n        /* \"#utility.yul\":742:788   */\n      tag_46\n        /* \"#utility.yul\":784:787   */\n      dup4\n        /* \"#utility.yul\":776:782   */\n      dup4\n        /* \"#utility.yul\":742:788   */\n      tag_26\n      jump\t// in\n    tag_46:\n        /* \"#utility.yul\":820:824   */\n      0x20\n        /* \"#utility.yul\":815:818   */\n      dup4\n        /* \"#utility.yul\":811:825   */\n      add\n        /* \"#utility.yul\":797:825   */\n      swap1\n      pop\n        /* \"#utility.yul\":652:831   */\n      swap3\n      swap2\n      pop\n      pop\n      jump\t// out\n        /* \"#utility.yul\":837:950   */\n    tag_28:\n        /* \"#utility.yul\":907:911   */\n      0x00\n        /* \"#utility.yul\":939:943   */\n      0x20\n        /* \"#utility.yul\":934:937   */\n      dup3\n        /* \"#utility.yul\":930:944   */\n      add\n        /* \"#utility.yul\":922:944   */\n      swap1\n      pop\n        /* \"#utility.yul\":837:950   */\n      swap2\n      swap1\n      pop\n      jump\t// out\n        /* \"#utility.yul\":986:1718   */\n    tag_29:\n        /* \"#utility.yul\":1105:1108   */\n      0x00\n        /* \"#utility.yul\":1134:1188   */\n      tag_49\n        /* \"#utility.yul\":1182:1187   */\n      dup3\n        /* \"#utility.yul\":1134:1188   */\n      tag_22\n      jump\t// in\n    tag_49:\n        /* \"#utility.yul\":1204:1290   */\n      tag_50\n        /* \"#utility.yul\":1283:1289   */\n      dup2\n        /* \"#utility.yul\":1278:1281   */\n      dup6\n        /* \"#utility.yul\":1204:1290   */\n      tag_23\n      jump\t// in\n    tag_50:\n        /* \"#utility.yul\":1197:1290   */\n      swap4\n      pop\n        /* \"#utility.yul\":1314:1370   */\n      tag_51\n        /* \"#utility.yul\":1364:1369   */\n      dup4\n        /* \"#utility.yul\":1314:1370   */\n      tag_24\n      jump\t// in\n    tag_51:\n        /* \"#utility.yul\":1393:1400   */\n      dup1\n        /* \"#utility.yul\":1424:1425   */\n      0x00\n        /* \"#utility.yul\":1409:1693   */\n    tag_52:\n        /* \"#utility.yul\":1434:1440   */\n      dup4\n        /* \"#utility.yul\":1431:1432   */\n      dup2\n        /* \"#utility.yul\":1428:1441   */\n      lt\n        /* \"#utility.yul\":1409:1693   */\n      iszero\n      tag_54\n      jumpi\n        /* \"#utility.yul\":1510:1516   */\n      dup2\n        /* \"#utility.yul\":1504:1517   */\n      mload\n        /* \"#utility.yul\":1537:1600   */\n      tag_55\n        /* \"#utility.yul\":1596:1599   */\n      dup9\n        /* \"#utility.yul\":1581:1594   */\n      dup3\n        /* \"#utility.yul\":1537:1600   */\n      tag_27\n      jump\t// in\n    tag_55:\n        /* \"#utility.yul\":1530:1600   */\n      swap8\n      pop\n        /* \"#utility.yul\":1623:1683   */\n      tag_56\n        /* \"#utility.yul\":1676:1682   */\n      dup4\n        /* \"#utility.yul\":1623:1683   */\n      tag_28\n      jump\t// in\n    tag_56:\n        /* \"#utility.yul\":1613:1683   */\n      swap3\n      pop\n        /* \"#utility.yul\":1469:1693   */\n      pop\n        /* \"#utility.yul\":1456:1457   */\n      0x01\n        /* \"#utility.yul\":1453:1454   */\n      dup2\n        /* \"#utility.yul\":1449:1458   */\n      add\n        /* \"#utility.yul\":1444:1458   */\n      swap1\n      pop\n        /* \"#utility.yul\":1409:1693   */\n      jump(tag_52)\n    tag_54:\n        /* \"#utility.yul\":1413:1427   */\n      pop\n        /* \"#utility.yul\":1709:1712   */\n      dup6\n        /* \"#utility.yul\":1702:1712   */\n      swap4\n      pop\n        /* \"#utility.yul\":1110:1718   */\n      pop\n      pop\n      pop\n        /* \"#utility.yul\":986:1718   */\n      swap3\n      swap2\n      pop\n      pop\n      jump\t// out\n        /* \"#utility.yul\":1724:1837   */\n    tag_30:\n        /* \"#utility.yul\":1790:1796   */\n      0x00\n        /* \"#utility.yul\":1824:1829   */\n      dup2\n        /* \"#utility.yul\":1818:1830   */\n      mload\n        /* \"#utility.yul\":1808:1830   */\n      swap1\n      pop\n        /* \"#utility.yul\":1724:1837   */\n      swap2\n      swap1\n      pop\n      jump\t// out\n        /* \"#utility.yul\":1843:2026   */\n    tag_31:\n        /* \"#utility.yul\":1941:1952   */\n      0x00\n        /* \"#utility.yul\":1975:1981   */\n      dup3\n        /* \"#utility.yul\":1970:1973   */\n      dup3\n        /* \"#utility.yul\":1963:1982   */\n      mstore\n        /* \"#utility.yul\":2015:2019   */\n      0x20\n        /* \"#utility.yul\":2010:2013   */\n      dup3\n        /* \"#utility.yul\":2006:2020   */\n      add\n        /* \"#utility.yul\":1991:2020   */\n      swap1\n      pop\n        /* \"#utility.yul\":1843:2026   */\n      swap3\n      swap2\n      pop\n      pop\n      jump\t// out\n        /* \"#utility.yul\":2032:2163   */\n    tag_32:\n        /* \"#utility.yul\":2098:2102   */\n      0x00\n        /* \"#utility.yul\":2121:2124   */\n      dup2\n        /* \"#utility.yul\":2113:2124   */\n      swap1\n      pop\n        /* \"#utility.yul\":2151:2155   */\n      0x20\n        /* \"#utility.yul\":2146:2149   */\n      dup3\n        /* \"#utility.yul\":2142:2156   */\n      add\n        /* \"#utility.yul\":2134:2156   */\n      swap1\n      pop\n        /* \"#utility.yul\":2032:2163   */\n      swap2\n      swap1\n      pop\n      jump\t// out\n        /* \"#utility.yul\":2169:2245   */\n    tag_33:\n        /* \"#utility.yul\":2205:2212   */\n      0x00\n        /* \"#utility.yul\":2234:2239   */\n      dup2\n        /* \"#utility.yul\":2223:2239   */\n      swap1\n      pop\n        /* \"#utility.yul\":2169:2245   */\n      swap2\n      swap1\n      pop\n      jump\t// out\n        /* \"#utility.yul\":2251:2356   */\n    tag_34:\n        /* \"#utility.yul\":2326:2349   */\n      tag_62\n        /* \"#utility.yul\":2343:2348   */\n      dup2\n        /* \"#utility.yul\":2326:2349   */\n      tag_33\n      jump\t// in\n    tag_62:\n        /* \"#utility.yul\":2321:2324   */\n      dup3\n        /* \"#utility.yul\":2314:2350   */\n      mstore\n        /* \"#utility.yul\":2251:2356   */\n      pop\n      pop\n      jump\t// out\n        /* \"#utility.yul\":2362:2537   */\n    tag_35:\n        /* \"#utility.yul\":2429:2439   */\n      0x00\n        /* \"#utility.yul\":2450:2494   */\n      tag_64\n        /* \"#utility.yul\":2490:2493   */\n      dup4\n        /* \"#utility.yul\":2482:2488   */\n      dup4\n        /* \"#utility.yul\":2450:2494   */\n      tag_34\n      jump\t// in\n    tag_64:\n        /* \"#utility.yul\":2526:2530   */\n      0x20\n        /* \"#utility.yul\":2521:2524   */\n      dup4\n        /* \"#utility.yul\":2517:2531   */\n      add\n        /* \"#utility.yul\":2503:2531   */\n      swap1\n      pop\n        /* \"#utility.yul\":2362:2537   */\n      swap3\n      swap2\n      pop\n      pop\n      jump\t// out\n        /* \"#utility.yul\":2543:2655   */\n    tag_36:\n        /* \"#utility.yul\":2612:2616   */\n      0x00\n        /* \"#utility.yul\":2644:2648   */\n      0x20\n        /* \"#utility.yul\":2639:2642   */\n      dup3\n        /* \"#utility.yul\":2635:2649   */\n      add\n        /* \"#utility.yul\":2627:2649   */\n      swap1\n      pop\n        /* \"#utility.yul\":2543:2655   */\n      swap2\n      swap1\n      pop\n      jump\t// out\n        /* \"#utility.yul\":2689:3413   */\n    tag_37:\n        /* \"#utility.yul\":2806:2809   */\n      0x00\n        /* \"#utility.yul\":2835:2888   */\n      tag_67\n        /* \"#utility.yul\":2882:2887   */\n      dup3\n        /* \"#utility.yul\":2835:2888   */\n      tag_30\n      jump\t// in\n    tag_67:\n        /* \"#utility.yul\":2904:2989   */\n      tag_68\n        /* \"#utility.yul\":2982:2988   */\n      dup2\n        /* \"#utility.yul\":2977:2980   */\n      dup6\n        /* \"#utility.yul\":2904:2989   */\n      tag_31\n      jump\t// in\n    tag_68:\n        /* \"#utility.yul\":2897:2989   */\n      swap4\n      pop\n        /* \"#utility.yul\":3013:3068   */\n      tag_69\n        /* \"#utility.yul\":3062:3067   */\n      dup4\n        /* \"#utility.yul\":3013:3068   */\n      tag_32\n      jump\t// in\n    tag_69:\n        /* \"#utility.yul\":3091:3098   */\n      dup1\n        /* \"#utility.yul\":3122:3123   */\n      0x00\n        /* \"#utility.yul\":3107:3388   */\n    tag_70:\n        /* \"#utility.yul\":3132:3138   */\n      dup4\n        /* \"#utility.yul\":3129:3130   */\n      dup2\n        /* \"#utility.yul\":3126:3139   */\n      lt\n        /* \"#utility.yul\":3107:3388   */\n      iszero\n      tag_72\n      jumpi\n        /* \"#utility.yul\":3208:3214   */\n      dup2\n        /* \"#utility.yul\":3202:3215   */\n      mload\n        /* \"#utility.yul\":3235:3296   */\n      tag_73\n        /* \"#utility.yul\":3292:3295   */\n      dup9\n        /* \"#utility.yul\":3277:3290   */\n      dup3\n        /* \"#utility.yul\":3235:3296   */\n      tag_35\n      jump\t// in\n    tag_73:\n        /* \"#utility.yul\":3228:3296   */\n      swap8\n      pop\n        /* \"#utility.yul\":3319:3378   */\n      tag_74\n        /* \"#utility.yul\":3371:3377   */\n      dup4\n        /* \"#utility.yul\":3319:3378   */\n      tag_36\n      jump\t// in\n    tag_74:\n        /* \"#utility.yul\":3309:3378   */\n      swap3\n      pop\n        /* \"#utility.yul\":3167:3388   */\n      pop\n        /* \"#utility.yul\":3154:3155   */\n      0x01\n        /* \"#utility.yul\":3151:3152   */\n      dup2\n        /* \"#utility.yul\":3147:3156   */\n      add\n        /* \"#utility.yul\":3142:3156   */\n      swap1\n      pop\n        /* \"#utility.yul\":3107:3388   */\n      jump(tag_70)\n    tag_72:\n        /* \"#utility.yul\":3111:3125   */\n      pop\n        /* \"#utility.yul\":3404:3407   */\n      dup6\n        /* \"#utility.yul\":3397:3407   */\n      swap4\n      pop\n        /* \"#utility.yul\":2811:3413   */\n      pop\n      pop\n      pop\n        /* \"#utility.yul\":2689:3413   */\n      swap3\n      swap2\n      pop\n      pop\n      jump\t// out\n        /* \"#utility.yul\":3419:4049   */\n    tag_7:\n        /* \"#utility.yul\":3638:3642   */\n      0x00\n        /* \"#utility.yul\":3676:3678   */\n      0x40\n        /* \"#utility.yul\":3665:3674   */\n      dup3\n        /* \"#utility.yul\":3661:3679   */\n      add\n        /* \"#utility.yul\":3653:3679   */\n      swap1\n      pop\n        /* \"#utility.yul\":3725:3734   */\n      dup2\n        /* \"#utility.yul\":3719:3723   */\n      dup2\n        /* \"#utility.yul\":3715:3735   */\n      sub\n        /* \"#utility.yul\":3711:3712   */\n      0x00\n        /* \"#utility.yul\":3700:3709   */\n      dup4\n        /* \"#utility.yul\":3696:3713   */\n      add\n        /* \"#utility.yul\":3689:3736   */\n      mstore\n        /* \"#utility.yul\":3753:3861   */\n      tag_76\n        /* \"#utility.yul\":3856:3860   */\n      dup2\n        /* \"#utility.yul\":3847:3853   */\n      dup6\n        /* \"#utility.yul\":3753:3861   */\n      tag_29\n      jump\t// in\n    tag_76:\n        /* \"#utility.yul\":3745:3861   */\n      swap1\n      pop\n        /* \"#utility.yul\":3908:3917   */\n      dup2\n        /* \"#utility.yul\":3902:3906   */\n      dup2\n        /* \"#utility.yul\":3898:3918   */\n      sub\n        /* \"#utility.yul\":3893:3895   */\n      0x20\n        /* \"#utility.yul\":3882:3891   */\n      dup4\n        /* \"#utility.yul\":3878:3896   */\n      add\n        /* \"#utility.yul\":3871:3919   */\n      mstore\n        /* \"#utility.yul\":3936:4042   */\n      tag_77\n        /* \"#utility.yul\":4037:4041   */\n      dup2\n        /* \"#utility.yul\":4028:4034   */\n      dup5\n        /* \"#utility.yul\":3936:4042   */\n      tag_37\n      jump\t// in\n    tag_77:\n        /* \"#utility.yul\":3928:4042   */\n      swap1\n      pop\n        /* \"#utility.yul\":3419:4049   */\n      swap4\n      swap3\n      pop\n      pop\n      pop\n      jump\t// out\n\n    auxdata: 0xa26469706673582212208bd5f0e2303d138c611c41d8aaff9820803254cddca20f1da565b0949e83c5cc64736f6c63430008160033\n}\n",
				"bytecode": {
					"linkReferences": {},
					"object": "60806040526040518060800160405280600160ff168152602001600360ff168152602001603160ff168152602001603260ff168152505f906004610044929190610056565b50348015610050575f80fd5b506100c1565b828054828255905f5260205f20908101928215610095579160200282015b82811115610094578251829060ff16905591602001919060010190610074565b5b5090506100a291906100a6565b5090565b5b808211156100bd575f815f9055506001016100a7565b5090565b610381806100ce5f395ff3fe608060405234801561000f575f80fd5b5060043610610029575f3560e01c8063bcdbfff81461002d575b5f80fd5b61003561004c565b604051610043929190610316565b60405180910390f35b60608060405180608001604052806064815260200160278152602001601d815260200160288152506001906004610084929190610130565b505f6001818054806020026020016040519081016040528092919081815260200182805480156100d157602002820191905f5260205f20905b8154815260200190600101908083116100bd575b505050505091508080548060200260200160405190810160405280929190818152602001828054801561012157602002820191905f5260205f20905b81548152602001906001019080831161010d575b50505050509050915091509091565b828054828255905f5260205f2090810192821561016a579160200282015b8281111561016957825182559160200191906001019061014e565b5b509050610177919061017b565b5090565b5b80821115610192575f815f90555060010161017c565b5090565b5f81519050919050565b5f82825260208201905092915050565b5f819050602082019050919050565b5f819050919050565b6101d1816101bf565b82525050565b5f6101e283836101c8565b60208301905092915050565b5f602082019050919050565b5f61020482610196565b61020e81856101a0565b9350610219836101b0565b805f5b8381101561024957815161023088826101d7565b975061023b836101ee565b92505060018101905061021c565b5085935050505092915050565b5f81519050919050565b5f82825260208201905092915050565b5f819050602082019050919050565b5f819050919050565b6102918161027f565b82525050565b5f6102a28383610288565b60208301905092915050565b5f602082019050919050565b5f6102c482610256565b6102ce8185610260565b93506102d983610270565b805f5b838110156103095781516102f08882610297565b97506102fb836102ae565b9250506001810190506102dc565b5085935050505092915050565b5f6040820190508181035f83015261032e81856101fa565b9050818103602083015261034281846102ba565b9050939250505056fea26469706673582212208bd5f0e2303d138c611c41d8aaff9820803254cddca20f1da565b0949e83c5cc64736f6c63430008160033",
					"opcodes": "PUSH1 0x80 PUSH1 0x40 MSTORE PUSH1 0x40 MLOAD DUP1 PUSH1 0x80 ADD PUSH1 0x40 MSTORE DUP1 PUSH1 0x1 PUSH1 0xFF AND DUP2 MSTORE PUSH1 0x20 ADD PUSH1 0x3 PUSH1 0xFF AND DUP2 MSTORE PUSH1 0x20 ADD PUSH1 0x31 PUSH1 0xFF AND DUP2 MSTORE PUSH1 0x20 ADD PUSH1 0x32 PUSH1 0xFF AND DUP2 MSTORE POP PUSH0 SWAP1 PUSH1 0x4 PUSH2 0x44 SWAP3 SWAP2 SWAP1 PUSH2 0x56 JUMP JUMPDEST POP CALLVALUE DUP1 ISZERO PUSH2 0x50 JUMPI PUSH0 DUP1 REVERT JUMPDEST POP PUSH2 0xC1 JUMP JUMPDEST DUP3 DUP1 SLOAD DUP3 DUP3 SSTORE SWAP1 PUSH0 MSTORE PUSH1 0x20 PUSH0 KECCAK256 SWAP1 DUP2 ADD SWAP3 DUP3 ISZERO PUSH2 0x95 JUMPI SWAP2 PUSH1 0x20 MUL DUP3 ADD JUMPDEST DUP3 DUP2 GT ISZERO PUSH2 0x94 JUMPI DUP3 MLOAD DUP3 SWAP1 PUSH1 0xFF AND SWAP1 SSTORE SWAP2 PUSH1 0x20 ADD SWAP2 SWAP1 PUSH1 0x1 ADD SWAP1 PUSH2 0x74 JUMP JUMPDEST JUMPDEST POP SWAP1 POP PUSH2 0xA2 SWAP2 SWAP1 PUSH2 0xA6 JUMP JUMPDEST POP SWAP1 JUMP JUMPDEST JUMPDEST DUP1 DUP3 GT ISZERO PUSH2 0xBD JUMPI PUSH0 DUP2 PUSH0 SWAP1 SSTORE POP PUSH1 0x1 ADD PUSH2 0xA7 JUMP JUMPDEST POP SWAP1 JUMP JUMPDEST PUSH2 0x381 DUP1 PUSH2 0xCE PUSH0 CODECOPY PUSH0 RETURN INVALID PUSH1 0x80 PUSH1 0x40 MSTORE CALLVALUE DUP1 ISZERO PUSH2 0xF JUMPI PUSH0 DUP1 REVERT JUMPDEST POP PUSH1 0x4 CALLDATASIZE LT PUSH2 0x29 JUMPI PUSH0 CALLDATALOAD PUSH1 0xE0 SHR DUP1 PUSH4 0xBCDBFFF8 EQ PUSH2 0x2D JUMPI JUMPDEST PUSH0 DUP1 REVERT JUMPDEST PUSH2 0x35 PUSH2 0x4C JUMP JUMPDEST PUSH1 0x40 MLOAD PUSH2 0x43 SWAP3 SWAP2 SWAP1 PUSH2 0x316 JUMP JUMPDEST PUSH1 0x40 MLOAD DUP1 SWAP2 SUB SWAP1 RETURN JUMPDEST PUSH1 0x60 DUP1 PUSH1 0x40 MLOAD DUP1 PUSH1 0x80 ADD PUSH1 0x40 MSTORE DUP1 PUSH1 0x64 DUP2 MSTORE PUSH1 0x20 ADD PUSH1 0x27 DUP2 MSTORE PUSH1 0x20 ADD PUSH1 0x1D DUP2 MSTORE PUSH1 0x20 ADD PUSH1 0x28 DUP2 MSTORE POP PUSH1 0x1 SWAP1 PUSH1 0x4 PUSH2 0x84 SWAP3 SWAP2 SWAP1 PUSH2 0x130 JUMP JUMPDEST POP PUSH0 PUSH1 0x1 DUP2 DUP1 SLOAD DUP1 PUSH1 0x20 MUL PUSH1 0x20 ADD PUSH1 0x40 MLOAD SWAP1 DUP2 ADD PUSH1 0x40 MSTORE DUP1 SWAP3 SWAP2 SWAP1 DUP2 DUP2 MSTORE PUSH1 0x20 ADD DUP3 DUP1 SLOAD DUP1 ISZERO PUSH2 0xD1 JUMPI PUSH1 0x20 MUL DUP3 ADD SWAP2 SWAP1 PUSH0 MSTORE PUSH1 0x20 PUSH0 KECCAK256 SWAP1 JUMPDEST DUP2 SLOAD DUP2 MSTORE PUSH1 0x20 ADD SWAP1 PUSH1 0x1 ADD SWAP1 DUP1 DUP4 GT PUSH2 0xBD JUMPI JUMPDEST POP POP POP POP POP SWAP2 POP DUP1 DUP1 SLOAD DUP1 PUSH1 0x20 MUL PUSH1 0x20 ADD PUSH1 0x40 MLOAD SWAP1 DUP2 ADD PUSH1 0x40 MSTORE DUP1 SWAP3 SWAP2 SWAP1 DUP2 DUP2 MSTORE PUSH1 0x20 ADD DUP3 DUP1 SLOAD DUP1 ISZERO PUSH2 0x121 JUMPI PUSH1 0x20 MUL DUP3 ADD SWAP2 SWAP1 PUSH0 MSTORE PUSH1 0x20 PUSH0 KECCAK256 SWAP1 JUMPDEST DUP2 SLOAD DUP2 MSTORE PUSH1 0x20 ADD SWAP1 PUSH1 0x1 ADD SWAP1 DUP1 DUP4 GT PUSH2 0x10D JUMPI JUMPDEST POP POP POP POP POP SWAP1 POP SWAP2 POP SWAP2 POP SWAP1 SWAP2 JUMP JUMPDEST DUP3 DUP1 SLOAD DUP3 DUP3 SSTORE SWAP1 PUSH0 MSTORE PUSH1 0x20 PUSH0 KECCAK256 SWAP1 DUP2 ADD SWAP3 DUP3 ISZERO PUSH2 0x16A JUMPI SWAP2 PUSH1 0x20 MUL DUP3 ADD JUMPDEST DUP3 DUP2 GT ISZERO PUSH2 0x169 JUMPI DUP3 MLOAD DUP3 SSTORE SWAP2 PUSH1 0x20 ADD SWAP2 SWAP1 PUSH1 0x1 ADD SWAP1 PUSH2 0x14E JUMP JUMPDEST JUMPDEST POP SWAP1 POP PUSH2 0x177 SWAP2 SWAP1 PUSH2 0x17B JUMP JUMPDEST POP SWAP1 JUMP JUMPDEST JUMPDEST DUP1 DUP3 GT ISZERO PUSH2 0x192 JUMPI PUSH0 DUP2 PUSH0 SWAP1 SSTORE POP PUSH1 0x1 ADD PUSH2 0x17C JUMP JUMPDEST POP SWAP1 JUMP JUMPDEST PUSH0 DUP2 MLOAD SWAP1 POP SWAP2 SWAP1 POP JUMP JUMPDEST PUSH0 DUP3 DUP3 MSTORE PUSH1 0x20 DUP3 ADD SWAP1 POP SWAP3 SWAP2 POP POP JUMP JUMPDEST PUSH0 DUP2 SWAP1 POP PUSH1 0x20 DUP3 ADD SWAP1 POP SWAP2 SWAP1 POP JUMP JUMPDEST PUSH0 DUP2 SWAP1 POP SWAP2 SWAP1 POP JUMP JUMPDEST PUSH2 0x1D1 DUP2 PUSH2 0x1BF JUMP JUMPDEST DUP3 MSTORE POP POP JUMP JUMPDEST PUSH0 PUSH2 0x1E2 DUP4 DUP4 PUSH2 0x1C8 JUMP JUMPDEST PUSH1 0x20 DUP4 ADD SWAP1 POP SWAP3 SWAP2 POP POP JUMP JUMPDEST PUSH0 PUSH1 0x20 DUP3 ADD SWAP1 POP SWAP2 SWAP1 POP JUMP JUMPDEST PUSH0 PUSH2 0x204 DUP3 PUSH2 0x196 JUMP JUMPDEST PUSH2 0x20E DUP2 DUP6 PUSH2 0x1A0 JUMP JUMPDEST SWAP4 POP PUSH2 0x219 DUP4 PUSH2 0x1B0 JUMP JUMPDEST DUP1 PUSH0 JUMPDEST DUP4 DUP2 LT ISZERO PUSH2 0x249 JUMPI DUP2 MLOAD PUSH2 0x230 DUP9 DUP3 PUSH2 0x1D7 JUMP JUMPDEST SWAP8 POP PUSH2 0x23B DUP4 PUSH2 0x1EE JUMP JUMPDEST SWAP3 POP POP PUSH1 0x1 DUP2 ADD SWAP1 POP PUSH2 0x21C JUMP JUMPDEST POP DUP6 SWAP4 POP POP POP POP SWAP3 SWAP2 POP POP JUMP JUMPDEST PUSH0 DUP2 MLOAD SWAP1 POP SWAP2 SWAP1 POP JUMP JUMPDEST PUSH0 DUP3 DUP3 MSTORE PUSH1 0x20 DUP3 ADD SWAP1 POP SWAP3 SWAP2 POP POP JUMP JUMPDEST PUSH0 DUP2 SWAP1 POP PUSH1 0x20 DUP3 ADD SWAP1 POP SWAP2 SWAP1 POP JUMP JUMPDEST PUSH0 DUP2 SWAP1 POP SWAP2 SWAP1 POP JUMP JUMPDEST PUSH2 0x291 DUP2 PUSH2 0x27F JUMP JUMPDEST DUP3 MSTORE POP POP JUMP JUMPDEST PUSH0 PUSH2 0x2A2 DUP4 DUP4 PUSH2 0x288 JUMP JUMPDEST PUSH1 0x20 DUP4 ADD SWAP1 POP SWAP3 SWAP2 POP POP JUMP JUMPDEST PUSH0 PUSH1 0x20 DUP3 ADD SWAP1 POP SWAP2 SWAP1 POP JUMP JUMPDEST PUSH0 PUSH2 0x2C4 DUP3 PUSH2 0x256 JUMP JUMPDEST PUSH2 0x2CE DUP2 DUP6 PUSH2 0x260 JUMP JUMPDEST SWAP4 POP PUSH2 0x2D9 DUP4 PUSH2 0x270 JUMP JUMPDEST DUP1 PUSH0 JUMPDEST DUP4 DUP2 LT ISZERO PUSH2 0x309 JUMPI DUP2 MLOAD PUSH2 0x2F0 DUP9 DUP3 PUSH2 0x297 JUMP JUMPDEST SWAP8 POP PUSH2 0x2FB DUP4 PUSH2 0x2AE JUMP JUMPDEST SWAP3 POP POP PUSH1 0x1 DUP2 ADD SWAP1 POP PUSH2 0x2DC JUMP JUMPDEST POP DUP6 SWAP4 POP POP POP POP SWAP3 SWAP2 POP POP JUMP JUMPDEST PUSH0 PUSH1 0x40 DUP3 ADD SWAP1 POP DUP2 DUP2 SUB PUSH0 DUP4 ADD MSTORE PUSH2 0x32E DUP2 DUP6 PUSH2 0x1FA JUMP JUMPDEST SWAP1 POP DUP2 DUP2 SUB PUSH1 0x20 DUP4 ADD MSTORE PUSH2 0x342 DUP2 DUP5 PUSH2 0x2BA JUMP JUMPDEST SWAP1 POP SWAP4 SWAP3 POP POP POP JUMP INVALID LOG2 PUSH5 0x6970667358 0x22 SLT KECCAK256 DUP12 0xD5 CREATE 0xE2 ADDRESS RETURNDATASIZE SGT DUP13 PUSH2 0x1C41 0xD8 0xAA SELFDESTRUCT SWAP9 KECCAK256 DUP1 ORIGIN SLOAD 0xCD 0xDC LOG2 0xF SAR 0xA5 PUSH6 0xB0949E83C5CC PUSH5 0x736F6C6343 STOP ADDMOD AND STOP CALLER "
				},
				"gasEstimates": {
					"creation": {
						"codeDepositCost": "179400",
						"executionCost": "infinite",
						"totalCost": "infinite"
					},
					"external": {
						"truong_demo()": "infinite"
					}
				},
				"methodIdentifiers": {
					"truong_demo()": "bcdbfff8"
				}
			},
			"storageLayout": {
				"storage": [
					{
						"astId": 9,
						"contract": "Buổi 18/Mang dong.sol:Dong",
						"label": "truong",
						"offset": 0,
						"slot": "0",
						"type": "t_array(t_uint256)dyn_storage"
					},
					{
						"astId": 12,
						"contract": "Buổi 18/Mang dong.sol:Dong",
						"label": "truong1",
						"offset": 0,
						"slot": "1",
						"type": "t_array(t_int256)dyn_storage"
					}
				],
				"types": {
					"t_array(t_int256)dyn_storage": {
						"base": "t_int256",
						"encoding": "dynamic_array",
						"label": "int256[]",
						"numberOfBytes": "32"
					},
					"t_array(t_uint256)dyn_storage": {
						"base": "t_uint256",
						"encoding": "dynamic_array",
						"label": "uint256[]",
						"numberOfBytes": "32"
					},
					"t_int256": {
						"encoding": "inplace",
						"label": "int256",
						"numberOfBytes": "32"
					},
					"t_uint256": {
						"encoding": "inplace",
						"label": "uint256",
						"numberOfBytes": "32"
					}
				}
			},
			"userdoc": {
				"kind": "user",
				"methods": {},
				"version": 1
			}
		}
	}
}