{
	"Buổi 18/Mang du lieu.sol": {
		"dulieu": {
			"abi": [
				{
					"inputs": [],
					"name": "saovang_demo",
					"outputs": [
						{
							"internalType": "uint256[3]",
							"name": "",
							"type": "uint256[3]"
						}
					],
					"stateMutability": "payable",
					"type": "function"
				},
				{
					"inputs": [],
					"name": "saovang_limit",
					"outputs": [
						{
							"internalType": "uint256",
							"name": "",
							"type": "uint256"
						}
					],
					"stateMutability": "payable",
					"type": "function"
				}
			],
			"devdoc": {
				"kind": "dev",
				"methods": {},
				"version": 1
			},
			"evm": {
				"assembly": "    /* \"Bu\\xe1\\xbb\\x95i 18/Mang du lieu.sol\":59:355  contract dulieu{... */\n  mstore(0x40, 0x80)\n  callvalue\n  dup1\n  iszero\n  tag_1\n  jumpi\n  0x00\n  dup1\n  revert\ntag_1:\n  pop\n  dataSize(sub_0)\n  dup1\n  dataOffset(sub_0)\n  0x00\n  codecopy\n  0x00\n  return\nstop\n\nsub_0: assembly {\n        /* \"Bu\\xe1\\xbb\\x95i 18/Mang du lieu.sol\":59:355  contract dulieu{... */\n      mstore(0x40, 0x80)\n      jumpi(tag_1, lt(calldatasize, 0x04))\n      shr(0xe0, calldataload(0x00))\n      dup1\n      0x2bdd4cba\n      eq\n      tag_2\n      jumpi\n      dup1\n      0x57343a8a\n      eq\n      tag_3\n      jumpi\n    tag_1:\n      0x00\n      dup1\n      revert\n        /* \"Bu\\xe1\\xbb\\x95i 18/Mang du lieu.sol\":103:236  function saovang_demo ()public payable returns (uint[3] memory ){... */\n    tag_2:\n      tag_4\n      tag_5\n      jump\t// in\n    tag_4:\n      mload(0x40)\n      tag_6\n      swap2\n      swap1\n      tag_7\n      jump\t// in\n    tag_6:\n      mload(0x40)\n      dup1\n      swap2\n      sub\n      swap1\n      return\n        /* \"Bu\\xe1\\xbb\\x95i 18/Mang du lieu.sol\":242:352  function saovang_limit()public payable returns (uint){... */\n    tag_3:\n      tag_8\n      tag_9\n      jump\t// in\n    tag_8:\n      mload(0x40)\n      tag_10\n      swap2\n      swap1\n      tag_11\n      jump\t// in\n    tag_10:\n      mload(0x40)\n      dup1\n      swap2\n      sub\n      swap1\n      return\n        /* \"Bu\\xe1\\xbb\\x95i 18/Mang du lieu.sol\":103:236  function saovang_demo ()public payable returns (uint[3] memory ){... */\n    tag_5:\n        /* \"Bu\\xe1\\xbb\\x95i 18/Mang du lieu.sol\":151:165  uint[3] memory */\n      tag_12\n      tag_13\n      jump\t// in\n    tag_12:\n        /* \"Bu\\xe1\\xbb\\x95i 18/Mang du lieu.sol\":178:206  truong = [uint(12), 34, 45 ] */\n      mload(0x40)\n      dup1\n      0x60\n      add\n      0x40\n      mstore\n      dup1\n        /* \"Bu\\xe1\\xbb\\x95i 18/Mang du lieu.sol\":193:195  12 */\n      0x0c\n        /* \"Bu\\xe1\\xbb\\x95i 18/Mang du lieu.sol\":178:206  truong = [uint(12), 34, 45 ] */\n      dup2\n      mstore\n      0x20\n      add\n        /* \"Bu\\xe1\\xbb\\x95i 18/Mang du lieu.sol\":198:200  34 */\n      0x22\n        /* \"Bu\\xe1\\xbb\\x95i 18/Mang du lieu.sol\":178:206  truong = [uint(12), 34, 45 ] */\n      dup2\n      mstore\n      0x20\n      add\n        /* \"Bu\\xe1\\xbb\\x95i 18/Mang du lieu.sol\":202:204  45 */\n      0x2d\n        /* \"Bu\\xe1\\xbb\\x95i 18/Mang du lieu.sol\":178:206  truong = [uint(12), 34, 45 ] */\n      dup2\n      mstore\n      pop\n        /* \"Bu\\xe1\\xbb\\x95i 18/Mang du lieu.sol\":178:184  truong */\n      0x00\n        /* \"Bu\\xe1\\xbb\\x95i 18/Mang du lieu.sol\":178:206  truong = [uint(12), 34, 45 ] */\n      swap1\n      0x03\n      tag_15\n      swap3\n      swap2\n      swap1\n      tag_16\n      jump\t// in\n    tag_15:\n      pop\n        /* \"Bu\\xe1\\xbb\\x95i 18/Mang du lieu.sol\":220:226  truong */\n      0x00\n        /* \"Bu\\xe1\\xbb\\x95i 18/Mang du lieu.sol\":213:226  return truong */\n      0x03\n      dup1\n      0x20\n      mul\n      mload(0x40)\n      swap1\n      dup2\n      add\n      0x40\n      mstore\n      dup1\n      swap3\n      swap2\n      swap1\n      dup3\n      0x03\n      dup1\n      iszero\n      tag_17\n      jumpi\n      0x20\n      mul\n      dup3\n      add\n      swap2\n    tag_18:\n      dup2\n      sload\n      dup2\n      mstore\n      0x20\n      add\n      swap1\n      0x01\n      add\n      swap1\n      dup1\n      dup4\n      gt\n      tag_18\n      jumpi\n    tag_17:\n      pop\n      pop\n      pop\n      pop\n      pop\n      swap1\n      pop\n        /* \"Bu\\xe1\\xbb\\x95i 18/Mang du lieu.sol\":103:236  function saovang_demo ()public payable returns (uint[3] memory ){... */\n      swap1\n      jump\t// out\n        /* \"Bu\\xe1\\xbb\\x95i 18/Mang du lieu.sol\":242:352  function saovang_limit()public payable returns (uint){... */\n    tag_9:\n        /* \"Bu\\xe1\\xbb\\x95i 18/Mang du lieu.sol\":290:294  uint */\n      0x00\n        /* \"Bu\\xe1\\xbb\\x95i 18/Mang du lieu.sol\":306:312  uint t */\n      dup1\n        /* \"Bu\\xe1\\xbb\\x95i 18/Mang du lieu.sol\":315:321  truong */\n      0x00\n        /* \"Bu\\xe1\\xbb\\x95i 18/Mang du lieu.sol\":322:323  2 */\n      0x02\n        /* \"Bu\\xe1\\xbb\\x95i 18/Mang du lieu.sol\":315:324  truong[2] */\n      0x03\n      dup2\n      lt\n      tag_20\n      jumpi\n      tag_21\n      tag_22\n      jump\t// in\n    tag_21:\n    tag_20:\n      add\n      sload\n        /* \"Bu\\xe1\\xbb\\x95i 18/Mang du lieu.sol\":306:324  uint t = truong[2] */\n      swap1\n      pop\n        /* \"Bu\\xe1\\xbb\\x95i 18/Mang du lieu.sol\":342:343  t */\n      dup1\n        /* \"Bu\\xe1\\xbb\\x95i 18/Mang du lieu.sol\":335:343  return t */\n      swap2\n      pop\n      pop\n        /* \"Bu\\xe1\\xbb\\x95i 18/Mang du lieu.sol\":242:352  function saovang_limit()public payable returns (uint){... */\n      swap1\n      jump\t// out\n    tag_13:\n      mload(0x40)\n      dup1\n      0x60\n      add\n      0x40\n      mstore\n      dup1\n      0x03\n      swap1\n      0x20\n      dup3\n      mul\n      dup1\n      calldatasize\n      dup4\n      calldatacopy\n      dup1\n      dup3\n      add\n      swap2\n      pop\n      pop\n      swap1\n      pop\n      pop\n      swap1\n      jump\t// out\n    tag_16:\n      dup3\n      0x03\n      dup2\n      add\n      swap3\n      dup3\n      iszero\n      tag_24\n      jumpi\n      swap2\n      0x20\n      mul\n      dup3\n      add\n    tag_25:\n      dup3\n      dup2\n      gt\n      iszero\n      tag_26\n      jumpi\n      dup3\n      mload\n      dup3\n      sstore\n      swap2\n      0x20\n      add\n      swap2\n      swap1\n      0x01\n      add\n      swap1\n      jump(tag_25)\n    tag_26:\n    tag_24:\n      pop\n      swap1\n      pop\n      tag_27\n      swap2\n      swap1\n      tag_28\n      jump\t// in\n    tag_27:\n      pop\n      swap1\n      jump\t// out\n    tag_28:\n    tag_29:\n      dup1\n      dup3\n      gt\n      iszero\n      tag_30\n      jumpi\n      0x00\n      dup2\n      0x00\n      swap1\n      sstore\n      pop\n      0x01\n      add\n      jump(tag_29)\n    tag_30:\n      pop\n      swap1\n      jump\t// out\n        /* \"#utility.yul\":7:111   */\n    tag_31:\n        /* \"#utility.yul\":72:78   */\n      0x00\n        /* \"#utility.yul\":100:104   */\n      0x03\n        /* \"#utility.yul\":90:104   */\n      swap1\n      pop\n        /* \"#utility.yul\":7:111   */\n      swap2\n      swap1\n      pop\n      jump\t// out\n        /* \"#utility.yul\":117:260   */\n    tag_32:\n        /* \"#utility.yul\":214:225   */\n      0x00\n        /* \"#utility.yul\":251:254   */\n      dup2\n        /* \"#utility.yul\":236:254   */\n      swap1\n      pop\n        /* \"#utility.yul\":117:260   */\n      swap3\n      swap2\n      pop\n      pop\n      jump\t// out\n        /* \"#utility.yul\":266:364   */\n    tag_33:\n        /* \"#utility.yul\":331:335   */\n      0x00\n        /* \"#utility.yul\":354:357   */\n      dup2\n        /* \"#utility.yul\":346:357   */\n      swap1\n      pop\n        /* \"#utility.yul\":266:364   */\n      swap2\n      swap1\n      pop\n      jump\t// out\n        /* \"#utility.yul\":370:447   */\n    tag_34:\n        /* \"#utility.yul\":407:414   */\n      0x00\n        /* \"#utility.yul\":436:441   */\n      dup2\n        /* \"#utility.yul\":425:441   */\n      swap1\n      pop\n        /* \"#utility.yul\":370:447   */\n      swap2\n      swap1\n      pop\n      jump\t// out\n        /* \"#utility.yul\":453:561   */\n    tag_35:\n        /* \"#utility.yul\":530:554   */\n      tag_46\n        /* \"#utility.yul\":548:553   */\n      dup2\n        /* \"#utility.yul\":530:554   */\n      tag_34\n      jump\t// in\n    tag_46:\n        /* \"#utility.yul\":525:528   */\n      dup3\n        /* \"#utility.yul\":518:555   */\n      mstore\n        /* \"#utility.yul\":453:561   */\n      pop\n      pop\n      jump\t// out\n        /* \"#utility.yul\":567:746   */\n    tag_36:\n        /* \"#utility.yul\":636:646   */\n      0x00\n        /* \"#utility.yul\":657:703   */\n      tag_48\n        /* \"#utility.yul\":699:702   */\n      dup4\n        /* \"#utility.yul\":691:697   */\n      dup4\n        /* \"#utility.yul\":657:703   */\n      tag_35\n      jump\t// in\n    tag_48:\n        /* \"#utility.yul\":735:739   */\n      0x20\n        /* \"#utility.yul\":730:733   */\n      dup4\n        /* \"#utility.yul\":726:740   */\n      add\n        /* \"#utility.yul\":712:740   */\n      swap1\n      pop\n        /* \"#utility.yul\":567:746   */\n      swap3\n      swap2\n      pop\n      pop\n      jump\t// out\n        /* \"#utility.yul\":752:863   */\n    tag_37:\n        /* \"#utility.yul\":820:824   */\n      0x00\n        /* \"#utility.yul\":852:856   */\n      0x20\n        /* \"#utility.yul\":847:850   */\n      dup3\n        /* \"#utility.yul\":843:857   */\n      add\n        /* \"#utility.yul\":835:857   */\n      swap1\n      pop\n        /* \"#utility.yul\":752:863   */\n      swap2\n      swap1\n      pop\n      jump\t// out\n        /* \"#utility.yul\":901:1595   */\n    tag_38:\n        /* \"#utility.yul\":1037:1089   */\n      tag_51\n        /* \"#utility.yul\":1083:1088   */\n      dup2\n        /* \"#utility.yul\":1037:1089   */\n      tag_31\n      jump\t// in\n    tag_51:\n        /* \"#utility.yul\":1105:1189   */\n      tag_52\n        /* \"#utility.yul\":1182:1188   */\n      dup2\n        /* \"#utility.yul\":1177:1180   */\n      dup5\n        /* \"#utility.yul\":1105:1189   */\n      tag_32\n      jump\t// in\n    tag_52:\n        /* \"#utility.yul\":1098:1189   */\n      swap3\n      pop\n        /* \"#utility.yul\":1213:1267   */\n      tag_53\n        /* \"#utility.yul\":1261:1266   */\n      dup3\n        /* \"#utility.yul\":1213:1267   */\n      tag_33\n      jump\t// in\n    tag_53:\n        /* \"#utility.yul\":1290:1297   */\n      dup1\n        /* \"#utility.yul\":1321:1322   */\n      0x00\n        /* \"#utility.yul\":1306:1588   */\n    tag_54:\n        /* \"#utility.yul\":1331:1337   */\n      dup4\n        /* \"#utility.yul\":1328:1329   */\n      dup2\n        /* \"#utility.yul\":1325:1338   */\n      lt\n        /* \"#utility.yul\":1306:1588   */\n      iszero\n      tag_56\n      jumpi\n        /* \"#utility.yul\":1407:1413   */\n      dup2\n        /* \"#utility.yul\":1401:1414   */\n      mload\n        /* \"#utility.yul\":1434:1497   */\n      tag_57\n        /* \"#utility.yul\":1493:1496   */\n      dup8\n        /* \"#utility.yul\":1478:1491   */\n      dup3\n        /* \"#utility.yul\":1434:1497   */\n      tag_36\n      jump\t// in\n    tag_57:\n        /* \"#utility.yul\":1427:1497   */\n      swap7\n      pop\n        /* \"#utility.yul\":1520:1578   */\n      tag_58\n        /* \"#utility.yul\":1571:1577   */\n      dup4\n        /* \"#utility.yul\":1520:1578   */\n      tag_37\n      jump\t// in\n    tag_58:\n        /* \"#utility.yul\":1510:1578   */\n      swap3\n      pop\n        /* \"#utility.yul\":1366:1588   */\n      pop\n        /* \"#utility.yul\":1353:1354   */\n      0x01\n        /* \"#utility.yul\":1350:1351   */\n      dup2\n        /* \"#utility.yul\":1346:1355   */\n      add\n        /* \"#utility.yul\":1341:1355   */\n      swap1\n      pop\n        /* \"#utility.yul\":1306:1588   */\n      jump(tag_54)\n    tag_56:\n        /* \"#utility.yul\":1310:1324   */\n      pop\n        /* \"#utility.yul\":1013:1595   */\n      pop\n      pop\n      pop\n        /* \"#utility.yul\":901:1595   */\n      pop\n      pop\n      jump\t// out\n        /* \"#utility.yul\":1601:1915   */\n    tag_7:\n        /* \"#utility.yul\":1740:1744   */\n      0x00\n        /* \"#utility.yul\":1778:1780   */\n      0x60\n        /* \"#utility.yul\":1767:1776   */\n      dup3\n        /* \"#utility.yul\":1763:1781   */\n      add\n        /* \"#utility.yul\":1755:1781   */\n      swap1\n      pop\n        /* \"#utility.yul\":1791:1908   */\n      tag_60\n        /* \"#utility.yul\":1905:1906   */\n      0x00\n        /* \"#utility.yul\":1894:1903   */\n      dup4\n        /* \"#utility.yul\":1890:1907   */\n      add\n        /* \"#utility.yul\":1881:1887   */\n      dup5\n        /* \"#utility.yul\":1791:1908   */\n      tag_38\n      jump\t// in\n    tag_60:\n        /* \"#utility.yul\":1601:1915   */\n      swap3\n      swap2\n      pop\n      pop\n      jump\t// out\n        /* \"#utility.yul\":1921:2039   */\n    tag_39:\n        /* \"#utility.yul\":2008:2032   */\n      tag_62\n        /* \"#utility.yul\":2026:2031   */\n      dup2\n        /* \"#utility.yul\":2008:2032   */\n      tag_34\n      jump\t// in\n    tag_62:\n        /* \"#utility.yul\":2003:2006   */\n      dup3\n        /* \"#utility.yul\":1996:2033   */\n      mstore\n        /* \"#utility.yul\":1921:2039   */\n      pop\n      pop\n      jump\t// out\n        /* \"#utility.yul\":2045:2267   */\n    tag_11:\n        /* \"#utility.yul\":2138:2142   */\n      0x00\n        /* \"#utility.yul\":2176:2178   */\n      0x20\n        /* \"#utility.yul\":2165:2174   */\n      dup3\n        /* \"#utility.yul\":2161:2179   */\n      add\n        /* \"#utility.yul\":2153:2179   */\n      swap1\n      pop\n        /* \"#utility.yul\":2189:2260   */\n      tag_64\n        /* \"#utility.yul\":2257:2258   */\n      0x00\n        /* \"#utility.yul\":2246:2255   */\n      dup4\n        /* \"#utility.yul\":2242:2259   */\n      add\n        /* \"#utility.yul\":2233:2239   */\n      dup5\n        /* \"#utility.yul\":2189:2260   */\n      tag_39\n      jump\t// in\n    tag_64:\n        /* \"#utility.yul\":2045:2267   */\n      swap3\n      swap2\n      pop\n      pop\n      jump\t// out\n        /* \"#utility.yul\":2273:2453   */\n    tag_22:\n        /* \"#utility.yul\":2321:2398   */\n      0x4e487b7100000000000000000000000000000000000000000000000000000000\n        /* \"#utility.yul\":2318:2319   */\n      0x00\n        /* \"#utility.yul\":2311:2399   */\n      mstore\n        /* \"#utility.yul\":2418:2422   */\n      0x32\n        /* \"#utility.yul\":2415:2416   */\n      0x04\n        /* \"#utility.yul\":2408:2423   */\n      mstore\n        /* \"#utility.yul\":2442:2446   */\n      0x24\n        /* \"#utility.yul\":2439:2440   */\n      0x00\n        /* \"#utility.yul\":2432:2447   */\n      revert\n\n    auxdata: 0xa2646970667358221220ee50a4ddb8bf299bbfa3d004a0bf13b601443cd5c68291e727e9ada0e668553264736f6c63430008160033\n}\n",
				"bytecode": {
					"linkReferences": {},
					"object": "608060405234801561000f575f80fd5b506102d08061001d5f395ff3fe608060405260043610610028575f3560e01c80632bdd4cba1461002c57806357343a8a1461004a575b5f80fd5b610034610068565b604051610041919061022c565b60405180910390f35b6100526100e0565b60405161005f9190610254565b60405180910390f35b610070610101565b6040518060600160405280600c815260200160228152602001602d8152505f90600361009d929190610123565b505f6003806020026040519081016040528092919082600380156100d6576020028201915b8154815260200190600101908083116100c2575b5050505050905090565b5f805f6002600381106100f6576100f561026d565b5b015490508091505090565b6040518060600160405280600390602082028036833780820191505090505090565b8260038101928215610152579160200282015b82811115610151578251825591602001919060010190610136565b5b50905061015f9190610163565b5090565b5b8082111561017a575f815f905550600101610164565b5090565b5f60039050919050565b5f81905092915050565b5f819050919050565b5f819050919050565b6101ad8161019b565b82525050565b5f6101be83836101a4565b60208301905092915050565b5f602082019050919050565b6101df8161017e565b6101e98184610188565b92506101f482610192565b805f5b8381101561022457815161020b87826101b3565b9650610216836101ca565b9250506001810190506101f7565b505050505050565b5f60608201905061023f5f8301846101d6565b92915050565b61024e8161019b565b82525050565b5f6020820190506102675f830184610245565b92915050565b7f4e487b71000000000000000000000000000000000000000000000000000000005f52603260045260245ffdfea2646970667358221220ee50a4ddb8bf299bbfa3d004a0bf13b601443cd5c68291e727e9ada0e668553264736f6c63430008160033",
					"opcodes": "PUSH1 0x80 PUSH1 0x40 MSTORE CALLVALUE DUP1 ISZERO PUSH2 0xF JUMPI PUSH0 DUP1 REVERT JUMPDEST POP PUSH2 0x2D0 DUP1 PUSH2 0x1D PUSH0 CODECOPY PUSH0 RETURN INVALID PUSH1 0x80 PUSH1 0x40 MSTORE PUSH1 0x4 CALLDATASIZE LT PUSH2 0x28 JUMPI PUSH0 CALLDATALOAD PUSH1 0xE0 SHR DUP1 PUSH4 0x2BDD4CBA EQ PUSH2 0x2C JUMPI DUP1 PUSH4 0x57343A8A EQ PUSH2 0x4A JUMPI JUMPDEST PUSH0 DUP1 REVERT JUMPDEST PUSH2 0x34 PUSH2 0x68 JUMP JUMPDEST PUSH1 0x40 MLOAD PUSH2 0x41 SWAP2 SWAP1 PUSH2 0x22C JUMP JUMPDEST PUSH1 0x40 MLOAD DUP1 SWAP2 SUB SWAP1 RETURN JUMPDEST PUSH2 0x52 PUSH2 0xE0 JUMP JUMPDEST PUSH1 0x40 MLOAD PUSH2 0x5F SWAP2 SWAP1 PUSH2 0x254 JUMP JUMPDEST PUSH1 0x40 MLOAD DUP1 SWAP2 SUB SWAP1 RETURN JUMPDEST PUSH2 0x70 PUSH2 0x101 JUMP JUMPDEST PUSH1 0x40 MLOAD DUP1 PUSH1 0x60 ADD PUSH1 0x40 MSTORE DUP1 PUSH1 0xC DUP2 MSTORE PUSH1 0x20 ADD PUSH1 0x22 DUP2 MSTORE PUSH1 0x20 ADD PUSH1 0x2D DUP2 MSTORE POP PUSH0 SWAP1 PUSH1 0x3 PUSH2 0x9D SWAP3 SWAP2 SWAP1 PUSH2 0x123 JUMP JUMPDEST POP PUSH0 PUSH1 0x3 DUP1 PUSH1 0x20 MUL PUSH1 0x40 MLOAD SWAP1 DUP2 ADD PUSH1 0x40 MSTORE DUP1 SWAP3 SWAP2 SWAP1 DUP3 PUSH1 0x3 DUP1 ISZERO PUSH2 0xD6 JUMPI PUSH1 0x20 MUL DUP3 ADD SWAP2 JUMPDEST DUP2 SLOAD DUP2 MSTORE PUSH1 0x20 ADD SWAP1 PUSH1 0x1 ADD SWAP1 DUP1 DUP4 GT PUSH2 0xC2 JUMPI JUMPDEST POP POP POP POP POP SWAP1 POP SWAP1 JUMP JUMPDEST PUSH0 DUP1 PUSH0 PUSH1 0x2 PUSH1 0x3 DUP2 LT PUSH2 0xF6 JUMPI PUSH2 0xF5 PUSH2 0x26D JUMP JUMPDEST JUMPDEST ADD SLOAD SWAP1 POP DUP1 SWAP2 POP POP SWAP1 JUMP JUMPDEST PUSH1 0x40 MLOAD DUP1 PUSH1 0x60 ADD PUSH1 0x40 MSTORE DUP1 PUSH1 0x3 SWAP1 PUSH1 0x20 DUP3 MUL DUP1 CALLDATASIZE DUP4 CALLDATACOPY DUP1 DUP3 ADD SWAP2 POP POP SWAP1 POP POP SWAP1 JUMP JUMPDEST DUP3 PUSH1 0x3 DUP2 ADD SWAP3 DUP3 ISZERO PUSH2 0x152 JUMPI SWAP2 PUSH1 0x20 MUL DUP3 ADD JUMPDEST DUP3 DUP2 GT ISZERO PUSH2 0x151 JUMPI DUP3 MLOAD DUP3 SSTORE SWAP2 PUSH1 0x20 ADD SWAP2 SWAP1 PUSH1 0x1 ADD SWAP1 PUSH2 0x136 JUMP JUMPDEST JUMPDEST POP SWAP1 POP PUSH2 0x15F SWAP2 SWAP1 PUSH2 0x163 JUMP JUMPDEST POP SWAP1 JUMP JUMPDEST JUMPDEST DUP1 DUP3 GT ISZERO PUSH2 0x17A JUMPI PUSH0 DUP2 PUSH0 SWAP1 SSTORE POP PUSH1 0x1 ADD PUSH2 0x164 JUMP JUMPDEST POP SWAP1 JUMP JUMPDEST PUSH0 PUSH1 0x3 SWAP1 POP SWAP2 SWAP1 POP JUMP JUMPDEST PUSH0 DUP2 SWAP1 POP SWAP3 SWAP2 POP POP JUMP JUMPDEST PUSH0 DUP2 SWAP1 POP SWAP2 SWAP1 POP JUMP JUMPDEST PUSH0 DUP2 SWAP1 POP SWAP2 SWAP1 POP JUMP JUMPDEST PUSH2 0x1AD DUP2 PUSH2 0x19B JUMP JUMPDEST DUP3 MSTORE POP POP JUMP JUMPDEST PUSH0 PUSH2 0x1BE DUP4 DUP4 PUSH2 0x1A4 JUMP JUMPDEST PUSH1 0x20 DUP4 ADD SWAP1 POP SWAP3 SWAP2 POP POP JUMP JUMPDEST PUSH0 PUSH1 0x20 DUP3 ADD SWAP1 POP SWAP2 SWAP1 POP JUMP JUMPDEST PUSH2 0x1DF DUP2 PUSH2 0x17E JUMP JUMPDEST PUSH2 0x1E9 DUP2 DUP5 PUSH2 0x188 JUMP JUMPDEST SWAP3 POP PUSH2 0x1F4 DUP3 PUSH2 0x192 JUMP JUMPDEST DUP1 PUSH0 JUMPDEST DUP4 DUP2 LT ISZERO PUSH2 0x224 JUMPI DUP2 MLOAD PUSH2 0x20B DUP8 DUP3 PUSH2 0x1B3 JUMP JUMPDEST SWAP7 POP PUSH2 0x216 DUP4 PUSH2 0x1CA JUMP JUMPDEST SWAP3 POP POP PUSH1 0x1 DUP2 ADD SWAP1 POP PUSH2 0x1F7 JUMP JUMPDEST POP POP POP POP POP POP JUMP JUMPDEST PUSH0 PUSH1 0x60 DUP3 ADD SWAP1 POP PUSH2 0x23F PUSH0 DUP4 ADD DUP5 PUSH2 0x1D6 JUMP JUMPDEST SWAP3 SWAP2 POP POP JUMP JUMPDEST PUSH2 0x24E DUP2 PUSH2 0x19B JUMP JUMPDEST DUP3 MSTORE POP POP JUMP JUMPDEST PUSH0 PUSH1 0x20 DUP3 ADD SWAP1 POP PUSH2 0x267 PUSH0 DUP4 ADD DUP5 PUSH2 0x245 JUMP JUMPDEST SWAP3 SWAP2 POP POP JUMP JUMPDEST PUSH32 0x4E487B7100000000000000000000000000000000000000000000000000000000 PUSH0 MSTORE PUSH1 0x32 PUSH1 0x4 MSTORE PUSH1 0x24 PUSH0 REVERT INVALID LOG2 PUSH5 0x6970667358 0x22 SLT KECCAK256 0xEE POP LOG4 0xDD 0xB8 0xBF 0x29 SWAP12 0xBF LOG3 0xD0 DIV LOG0 0xBF SGT 0xB6 ADD PREVRANDAO EXTCODECOPY 0xD5 0xC6 DUP3 SWAP2 0xE7 0x27 0xE9 0xAD LOG0 0xE6 PUSH9 0x553264736F6C634300 ADDMOD AND STOP CALLER "
				},
				"gasEstimates": {
					"creation": {
						"codeDepositCost": "144000",
						"executionCost": "188",
						"totalCost": "144188"
					},
					"external": {
						"saovang_demo()": "infinite",
						"saovang_limit()": "2449"
					}
				},
				"methodIdentifiers": {
					"saovang_demo()": "2bdd4cba",
					"saovang_limit()": "57343a8a"
				}
			},
			"storageLayout": {
				"storage": [
					{
						"astId": 5,
						"contract": "Buổi 18/Mang du lieu.sol:dulieu",
						"label": "truong",
						"offset": 0,
						"slot": "0",
						"type": "t_array(t_uint256)3_storage"
					}
				],
				"types": {
					"t_array(t_uint256)3_storage": {
						"base": "t_uint256",
						"encoding": "inplace",
						"label": "uint256[3]",
						"numberOfBytes": "96"
					},
					"t_uint256": {
						"encoding": "inplace",
						"label": "uint256",
						"numberOfBytes": "32"
					}
				}
			},
			"userdoc": {
				"kind": "user",
				"methods": {},
				"version": 1
			}
		}
	}
}