{
	"Buổi 18/Mang tinh.sol": {
		"Types": {
			"abi": [
				{
					"inputs": [],
					"name": "array_example",
					"outputs": [
						{
							"internalType": "int256[5]",
							"name": "",
							"type": "int256[5]"
						},
						{
							"internalType": "uint256[6]",
							"name": "",
							"type": "uint256[6]"
						}
					],
					"stateMutability": "nonpayable",
					"type": "function"
				}
			],
			"devdoc": {
				"kind": "dev",
				"methods": {},
				"version": 1
			},
			"evm": {
				"assembly": "    /* \"Bu\\xe1\\xbb\\x95i 18/Mang tinh.sol\":58:666  contract Types {  ... */\n  mstore(0x40, 0x80)\n  callvalue\n  dup1\n  iszero\n  tag_1\n  jumpi\n  0x00\n  dup1\n  revert\ntag_1:\n  pop\n  dataSize(sub_0)\n  dup1\n  dataOffset(sub_0)\n  0x00\n  codecopy\n  0x00\n  return\nstop\n\nsub_0: assembly {\n        /* \"Bu\\xe1\\xbb\\x95i 18/Mang tinh.sol\":58:666  contract Types {  ... */\n      mstore(0x40, 0x80)\n      callvalue\n      dup1\n      iszero\n      tag_1\n      jumpi\n      0x00\n      dup1\n      revert\n    tag_1:\n      pop\n      jumpi(tag_2, lt(calldatasize, 0x04))\n      shr(0xe0, calldataload(0x00))\n      dup1\n      0x67227992\n      eq\n      tag_3\n      jumpi\n    tag_2:\n      0x00\n      dup1\n      revert\n        /* \"Bu\\xe1\\xbb\\x95i 18/Mang tinh.sol\":234:661  function array_example() public returns (... */\n    tag_3:\n      tag_4\n      tag_5\n      jump\t// in\n    tag_4:\n      mload(0x40)\n      tag_6\n      swap3\n      swap2\n      swap1\n      tag_7\n      jump\t// in\n    tag_6:\n      mload(0x40)\n      dup1\n      swap2\n      sub\n      swap1\n      return\n    tag_5:\n        /* \"Bu\\xe1\\xbb\\x95i 18/Mang tinh.sol\":281:294  int[5] memory */\n      tag_8\n      tag_9\n      jump\t// in\n    tag_8:\n        /* \"Bu\\xe1\\xbb\\x95i 18/Mang tinh.sol\":296:310  uint[6] memory */\n      tag_10\n      tag_11\n      jump\t// in\n    tag_10:\n        /* \"Bu\\xe1\\xbb\\x95i 18/Mang tinh.sol\":337:355  int[5] memory data */\n      0x00\n        /* \"Bu\\xe1\\xbb\\x95i 18/Mang tinh.sol\":337:394  int[5] memory data ... */\n      mload(0x40)\n      dup1\n      0xa0\n      add\n      0x40\n      mstore\n      dup1\n        /* \"Bu\\xe1\\xbb\\x95i 18/Mang tinh.sol\":373:375  50 */\n      0x32\n        /* \"Bu\\xe1\\xbb\\x95i 18/Mang tinh.sol\":337:394  int[5] memory data ... */\n      dup2\n      mstore\n      0x20\n      add\n        /* \"Bu\\xe1\\xbb\\x95i 18/Mang tinh.sol\":378:381  -63 */\n      0xffffffffffffffffffffffffffffffffffffffffffffffffffffffffffffffc1\n        /* \"Bu\\xe1\\xbb\\x95i 18/Mang tinh.sol\":337:394  int[5] memory data ... */\n      dup2\n      mstore\n      0x20\n      add\n        /* \"Bu\\xe1\\xbb\\x95i 18/Mang tinh.sol\":383:385  77 */\n      0x4d\n        /* \"Bu\\xe1\\xbb\\x95i 18/Mang tinh.sol\":337:394  int[5] memory data ... */\n      dup2\n      mstore\n      0x20\n      add\n        /* \"Bu\\xe1\\xbb\\x95i 18/Mang tinh.sol\":387:390  -28 */\n      0xffffffffffffffffffffffffffffffffffffffffffffffffffffffffffffffe4\n        /* \"Bu\\xe1\\xbb\\x95i 18/Mang tinh.sol\":337:394  int[5] memory data ... */\n      dup2\n      mstore\n      0x20\n      add\n        /* \"Bu\\xe1\\xbb\\x95i 18/Mang tinh.sol\":391:393  99 */\n      0x63\n        /* \"Bu\\xe1\\xbb\\x95i 18/Mang tinh.sol\":337:394  int[5] memory data ... */\n      dup2\n      mstore\n      pop\n      swap1\n      pop\n        /* \"Bu\\xe1\\xbb\\x95i 18/Mang tinh.sol\":503:543  data1 ... */\n      mload(0x40)\n      dup1\n      0x80\n      add\n      0x40\n      mstore\n      dup1\n        /* \"Bu\\xe1\\xbb\\x95i 18/Mang tinh.sol\":527:529  10 */\n      0x0a\n        /* \"Bu\\xe1\\xbb\\x95i 18/Mang tinh.sol\":503:543  data1 ... */\n      dup2\n      mstore\n      0x20\n      add\n        /* \"Bu\\xe1\\xbb\\x95i 18/Mang tinh.sol\":532:534  20 */\n      0x14\n        /* \"Bu\\xe1\\xbb\\x95i 18/Mang tinh.sol\":503:543  data1 ... */\n      dup2\n      mstore\n      0x20\n      add\n        /* \"Bu\\xe1\\xbb\\x95i 18/Mang tinh.sol\":536:538  30 */\n      0x1e\n        /* \"Bu\\xe1\\xbb\\x95i 18/Mang tinh.sol\":503:543  data1 ... */\n      dup2\n      mstore\n      0x20\n      add\n        /* \"Bu\\xe1\\xbb\\x95i 18/Mang tinh.sol\":540:542  40 */\n      0x28\n        /* \"Bu\\xe1\\xbb\\x95i 18/Mang tinh.sol\":503:543  data1 ... */\n      dup2\n      mstore\n      pop\n        /* \"Bu\\xe1\\xbb\\x95i 18/Mang tinh.sol\":503:508  data1 */\n      0x00\n        /* \"Bu\\xe1\\xbb\\x95i 18/Mang tinh.sol\":503:543  data1 ... */\n      swap1\n      0x04\n      tag_13\n      swap3\n      swap2\n      swap1\n      tag_14\n      jump\t// in\n    tag_13:\n      pop\n        /* \"Bu\\xe1\\xbb\\x95i 18/Mang tinh.sol\":641:645  data */\n      dup1\n        /* \"Bu\\xe1\\xbb\\x95i 18/Mang tinh.sol\":647:652  data1 */\n      0x00\n        /* \"Bu\\xe1\\xbb\\x95i 18/Mang tinh.sol\":633:653  return (data, data1) */\n      dup1\n      0x06\n      dup1\n      0x20\n      mul\n      mload(0x40)\n      swap1\n      dup2\n      add\n      0x40\n      mstore\n      dup1\n      swap3\n      swap2\n      swap1\n      dup3\n      0x06\n      dup1\n      iszero\n      tag_15\n      jumpi\n      0x20\n      mul\n      dup3\n      add\n      swap2\n    tag_16:\n      dup2\n      sload\n      dup2\n      mstore\n      0x20\n      add\n      swap1\n      0x01\n      add\n      swap1\n      dup1\n      dup4\n      gt\n      tag_16\n      jumpi\n    tag_15:\n      pop\n      pop\n      pop\n      pop\n      pop\n      swap1\n      pop\n      swap3\n      pop\n      swap3\n      pop\n      pop\n        /* \"Bu\\xe1\\xbb\\x95i 18/Mang tinh.sol\":234:661  function array_example() public returns (... */\n      swap1\n      swap2\n      jump\t// out\n    tag_9:\n      mload(0x40)\n      dup1\n      0xa0\n      add\n      0x40\n      mstore\n      dup1\n      0x05\n      swap1\n      0x20\n      dup3\n      mul\n      dup1\n      calldatasize\n      dup4\n      calldatacopy\n      dup1\n      dup3\n      add\n      swap2\n      pop\n      pop\n      swap1\n      pop\n      pop\n      swap1\n      jump\t// out\n    tag_11:\n      mload(0x40)\n      dup1\n      0xc0\n      add\n      0x40\n      mstore\n      dup1\n      0x06\n      swap1\n      0x20\n      dup3\n      mul\n      dup1\n      calldatasize\n      dup4\n      calldatacopy\n      dup1\n      dup3\n      add\n      swap2\n      pop\n      pop\n      swap1\n      pop\n      pop\n      swap1\n      jump\t// out\n    tag_14:\n      dup3\n      0x06\n      dup2\n      add\n      swap3\n      dup3\n      iszero\n      tag_17\n      jumpi\n      swap2\n      0x20\n      mul\n      dup3\n      add\n    tag_18:\n      dup3\n      dup2\n      gt\n      iszero\n      tag_19\n      jumpi\n      dup3\n      mload\n      dup3\n      sstore\n      swap2\n      0x20\n      add\n      swap2\n      swap1\n      0x01\n      add\n      swap1\n      jump(tag_18)\n    tag_19:\n    tag_17:\n      pop\n      swap1\n      pop\n      tag_20\n      swap2\n      swap1\n      tag_21\n      jump\t// in\n    tag_20:\n      pop\n      swap1\n      jump\t// out\n    tag_21:\n    tag_22:\n      dup1\n      dup3\n      gt\n      iszero\n      tag_23\n      jumpi\n      0x00\n      dup2\n      0x00\n      swap1\n      sstore\n      pop\n      0x01\n      add\n      jump(tag_22)\n    tag_23:\n      pop\n      swap1\n      jump\t// out\n        /* \"#utility.yul\":7:110   */\n    tag_24:\n        /* \"#utility.yul\":71:77   */\n      0x00\n        /* \"#utility.yul\":99:103   */\n      0x05\n        /* \"#utility.yul\":89:103   */\n      swap1\n      pop\n        /* \"#utility.yul\":7:110   */\n      swap2\n      swap1\n      pop\n      jump\t// out\n        /* \"#utility.yul\":116:258   */\n    tag_25:\n        /* \"#utility.yul\":212:223   */\n      0x00\n        /* \"#utility.yul\":249:252   */\n      dup2\n        /* \"#utility.yul\":234:252   */\n      swap1\n      pop\n        /* \"#utility.yul\":116:258   */\n      swap3\n      swap2\n      pop\n      pop\n      jump\t// out\n        /* \"#utility.yul\":264:361   */\n    tag_26:\n        /* \"#utility.yul\":328:332   */\n      0x00\n        /* \"#utility.yul\":351:354   */\n      dup2\n        /* \"#utility.yul\":343:354   */\n      swap1\n      pop\n        /* \"#utility.yul\":264:361   */\n      swap2\n      swap1\n      pop\n      jump\t// out\n        /* \"#utility.yul\":367:443   */\n    tag_27:\n        /* \"#utility.yul\":403:410   */\n      0x00\n        /* \"#utility.yul\":432:437   */\n      dup2\n        /* \"#utility.yul\":421:437   */\n      swap1\n      pop\n        /* \"#utility.yul\":367:443   */\n      swap2\n      swap1\n      pop\n      jump\t// out\n        /* \"#utility.yul\":449:554   */\n    tag_28:\n        /* \"#utility.yul\":524:547   */\n      tag_46\n        /* \"#utility.yul\":541:546   */\n      dup2\n        /* \"#utility.yul\":524:547   */\n      tag_27\n      jump\t// in\n    tag_46:\n        /* \"#utility.yul\":519:522   */\n      dup3\n        /* \"#utility.yul\":512:548   */\n      mstore\n        /* \"#utility.yul\":449:554   */\n      pop\n      pop\n      jump\t// out\n        /* \"#utility.yul\":560:735   */\n    tag_29:\n        /* \"#utility.yul\":627:637   */\n      0x00\n        /* \"#utility.yul\":648:692   */\n      tag_48\n        /* \"#utility.yul\":688:691   */\n      dup4\n        /* \"#utility.yul\":680:686   */\n      dup4\n        /* \"#utility.yul\":648:692   */\n      tag_28\n      jump\t// in\n    tag_48:\n        /* \"#utility.yul\":724:728   */\n      0x20\n        /* \"#utility.yul\":719:722   */\n      dup4\n        /* \"#utility.yul\":715:729   */\n      add\n        /* \"#utility.yul\":701:729   */\n      swap1\n      pop\n        /* \"#utility.yul\":560:735   */\n      swap3\n      swap2\n      pop\n      pop\n      jump\t// out\n        /* \"#utility.yul\":741:851   */\n    tag_30:\n        /* \"#utility.yul\":808:812   */\n      0x00\n        /* \"#utility.yul\":840:844   */\n      0x20\n        /* \"#utility.yul\":835:838   */\n      dup3\n        /* \"#utility.yul\":831:845   */\n      add\n        /* \"#utility.yul\":823:845   */\n      swap1\n      pop\n        /* \"#utility.yul\":741:851   */\n      swap2\n      swap1\n      pop\n      jump\t// out\n        /* \"#utility.yul\":887:1573   */\n    tag_31:\n        /* \"#utility.yul\":1021:1072   */\n      tag_51\n        /* \"#utility.yul\":1066:1071   */\n      dup2\n        /* \"#utility.yul\":1021:1072   */\n      tag_24\n      jump\t// in\n    tag_51:\n        /* \"#utility.yul\":1088:1171   */\n      tag_52\n        /* \"#utility.yul\":1164:1170   */\n      dup2\n        /* \"#utility.yul\":1159:1162   */\n      dup5\n        /* \"#utility.yul\":1088:1171   */\n      tag_25\n      jump\t// in\n    tag_52:\n        /* \"#utility.yul\":1081:1171   */\n      swap3\n      pop\n        /* \"#utility.yul\":1195:1248   */\n      tag_53\n        /* \"#utility.yul\":1242:1247   */\n      dup3\n        /* \"#utility.yul\":1195:1248   */\n      tag_26\n      jump\t// in\n    tag_53:\n        /* \"#utility.yul\":1271:1278   */\n      dup1\n        /* \"#utility.yul\":1302:1303   */\n      0x00\n        /* \"#utility.yul\":1287:1566   */\n    tag_54:\n        /* \"#utility.yul\":1312:1318   */\n      dup4\n        /* \"#utility.yul\":1309:1310   */\n      dup2\n        /* \"#utility.yul\":1306:1319   */\n      lt\n        /* \"#utility.yul\":1287:1566   */\n      iszero\n      tag_56\n      jumpi\n        /* \"#utility.yul\":1388:1394   */\n      dup2\n        /* \"#utility.yul\":1382:1395   */\n      mload\n        /* \"#utility.yul\":1415:1476   */\n      tag_57\n        /* \"#utility.yul\":1472:1475   */\n      dup8\n        /* \"#utility.yul\":1457:1470   */\n      dup3\n        /* \"#utility.yul\":1415:1476   */\n      tag_29\n      jump\t// in\n    tag_57:\n        /* \"#utility.yul\":1408:1476   */\n      swap7\n      pop\n        /* \"#utility.yul\":1499:1556   */\n      tag_58\n        /* \"#utility.yul\":1549:1555   */\n      dup4\n        /* \"#utility.yul\":1499:1556   */\n      tag_30\n      jump\t// in\n    tag_58:\n        /* \"#utility.yul\":1489:1556   */\n      swap3\n      pop\n        /* \"#utility.yul\":1347:1566   */\n      pop\n        /* \"#utility.yul\":1334:1335   */\n      0x01\n        /* \"#utility.yul\":1331:1332   */\n      dup2\n        /* \"#utility.yul\":1327:1336   */\n      add\n        /* \"#utility.yul\":1322:1336   */\n      swap1\n      pop\n        /* \"#utility.yul\":1287:1566   */\n      jump(tag_54)\n    tag_56:\n        /* \"#utility.yul\":1291:1305   */\n      pop\n        /* \"#utility.yul\":997:1573   */\n      pop\n      pop\n      pop\n        /* \"#utility.yul\":887:1573   */\n      pop\n      pop\n      jump\t// out\n        /* \"#utility.yul\":1579:1683   */\n    tag_32:\n        /* \"#utility.yul\":1644:1650   */\n      0x00\n        /* \"#utility.yul\":1672:1676   */\n      0x06\n        /* \"#utility.yul\":1662:1676   */\n      swap1\n      pop\n        /* \"#utility.yul\":1579:1683   */\n      swap2\n      swap1\n      pop\n      jump\t// out\n        /* \"#utility.yul\":1689:1832   */\n    tag_33:\n        /* \"#utility.yul\":1786:1797   */\n      0x00\n        /* \"#utility.yul\":1823:1826   */\n      dup2\n        /* \"#utility.yul\":1808:1826   */\n      swap1\n      pop\n        /* \"#utility.yul\":1689:1832   */\n      swap3\n      swap2\n      pop\n      pop\n      jump\t// out\n        /* \"#utility.yul\":1838:1936   */\n    tag_34:\n        /* \"#utility.yul\":1903:1907   */\n      0x00\n        /* \"#utility.yul\":1926:1929   */\n      dup2\n        /* \"#utility.yul\":1918:1929   */\n      swap1\n      pop\n        /* \"#utility.yul\":1838:1936   */\n      swap2\n      swap1\n      pop\n      jump\t// out\n        /* \"#utility.yul\":1942:2019   */\n    tag_35:\n        /* \"#utility.yul\":1979:1986   */\n      0x00\n        /* \"#utility.yul\":2008:2013   */\n      dup2\n        /* \"#utility.yul\":1997:2013   */\n      swap1\n      pop\n        /* \"#utility.yul\":1942:2019   */\n      swap2\n      swap1\n      pop\n      jump\t// out\n        /* \"#utility.yul\":2025:2133   */\n    tag_36:\n        /* \"#utility.yul\":2102:2126   */\n      tag_64\n        /* \"#utility.yul\":2120:2125   */\n      dup2\n        /* \"#utility.yul\":2102:2126   */\n      tag_35\n      jump\t// in\n    tag_64:\n        /* \"#utility.yul\":2097:2100   */\n      dup3\n        /* \"#utility.yul\":2090:2127   */\n      mstore\n        /* \"#utility.yul\":2025:2133   */\n      pop\n      pop\n      jump\t// out\n        /* \"#utility.yul\":2139:2318   */\n    tag_37:\n        /* \"#utility.yul\":2208:2218   */\n      0x00\n        /* \"#utility.yul\":2229:2275   */\n      tag_66\n        /* \"#utility.yul\":2271:2274   */\n      dup4\n        /* \"#utility.yul\":2263:2269   */\n      dup4\n        /* \"#utility.yul\":2229:2275   */\n      tag_36\n      jump\t// in\n    tag_66:\n        /* \"#utility.yul\":2307:2311   */\n      0x20\n        /* \"#utility.yul\":2302:2305   */\n      dup4\n        /* \"#utility.yul\":2298:2312   */\n      add\n        /* \"#utility.yul\":2284:2312   */\n      swap1\n      pop\n        /* \"#utility.yul\":2139:2318   */\n      swap3\n      swap2\n      pop\n      pop\n      jump\t// out\n        /* \"#utility.yul\":2324:2435   */\n    tag_38:\n        /* \"#utility.yul\":2392:2396   */\n      0x00\n        /* \"#utility.yul\":2424:2428   */\n      0x20\n        /* \"#utility.yul\":2419:2422   */\n      dup3\n        /* \"#utility.yul\":2415:2429   */\n      add\n        /* \"#utility.yul\":2407:2429   */\n      swap1\n      pop\n        /* \"#utility.yul\":2324:2435   */\n      swap2\n      swap1\n      pop\n      jump\t// out\n        /* \"#utility.yul\":2473:3167   */\n    tag_39:\n        /* \"#utility.yul\":2609:2661   */\n      tag_69\n        /* \"#utility.yul\":2655:2660   */\n      dup2\n        /* \"#utility.yul\":2609:2661   */\n      tag_32\n      jump\t// in\n    tag_69:\n        /* \"#utility.yul\":2677:2761   */\n      tag_70\n        /* \"#utility.yul\":2754:2760   */\n      dup2\n        /* \"#utility.yul\":2749:2752   */\n      dup5\n        /* \"#utility.yul\":2677:2761   */\n      tag_33\n      jump\t// in\n    tag_70:\n        /* \"#utility.yul\":2670:2761   */\n      swap3\n      pop\n        /* \"#utility.yul\":2785:2839   */\n      tag_71\n        /* \"#utility.yul\":2833:2838   */\n      dup3\n        /* \"#utility.yul\":2785:2839   */\n      tag_34\n      jump\t// in\n    tag_71:\n        /* \"#utility.yul\":2862:2869   */\n      dup1\n        /* \"#utility.yul\":2893:2894   */\n      0x00\n        /* \"#utility.yul\":2878:3160   */\n    tag_72:\n        /* \"#utility.yul\":2903:2909   */\n      dup4\n        /* \"#utility.yul\":2900:2901   */\n      dup2\n        /* \"#utility.yul\":2897:2910   */\n      lt\n        /* \"#utility.yul\":2878:3160   */\n      iszero\n      tag_74\n      jumpi\n        /* \"#utility.yul\":2979:2985   */\n      dup2\n        /* \"#utility.yul\":2973:2986   */\n      mload\n        /* \"#utility.yul\":3006:3069   */\n      tag_75\n        /* \"#utility.yul\":3065:3068   */\n      dup8\n        /* \"#utility.yul\":3050:3063   */\n      dup3\n        /* \"#utility.yul\":3006:3069   */\n      tag_37\n      jump\t// in\n    tag_75:\n        /* \"#utility.yul\":2999:3069   */\n      swap7\n      pop\n        /* \"#utility.yul\":3092:3150   */\n      tag_76\n        /* \"#utility.yul\":3143:3149   */\n      dup4\n        /* \"#utility.yul\":3092:3150   */\n      tag_38\n      jump\t// in\n    tag_76:\n        /* \"#utility.yul\":3082:3150   */\n      swap3\n      pop\n        /* \"#utility.yul\":2938:3160   */\n      pop\n        /* \"#utility.yul\":2925:2926   */\n      0x01\n        /* \"#utility.yul\":2922:2923   */\n      dup2\n        /* \"#utility.yul\":2918:2927   */\n      add\n        /* \"#utility.yul\":2913:2927   */\n      swap1\n      pop\n        /* \"#utility.yul\":2878:3160   */\n      jump(tag_72)\n    tag_74:\n        /* \"#utility.yul\":2882:2896   */\n      pop\n        /* \"#utility.yul\":2585:3167   */\n      pop\n      pop\n      pop\n        /* \"#utility.yul\":2473:3167   */\n      pop\n      pop\n      jump\t// out\n        /* \"#utility.yul\":3173:3687   */\n    tag_7:\n        /* \"#utility.yul\":3384:3388   */\n      0x00\n        /* \"#utility.yul\":3422:3425   */\n      0x0160\n        /* \"#utility.yul\":3411:3420   */\n      dup3\n        /* \"#utility.yul\":3407:3426   */\n      add\n        /* \"#utility.yul\":3399:3426   */\n      swap1\n      pop\n        /* \"#utility.yul\":3436:3551   */\n      tag_78\n        /* \"#utility.yul\":3548:3549   */\n      0x00\n        /* \"#utility.yul\":3537:3546   */\n      dup4\n        /* \"#utility.yul\":3533:3550   */\n      add\n        /* \"#utility.yul\":3524:3530   */\n      dup6\n        /* \"#utility.yul\":3436:3551   */\n      tag_31\n      jump\t// in\n    tag_78:\n        /* \"#utility.yul\":3561:3680   */\n      tag_79\n        /* \"#utility.yul\":3675:3678   */\n      0xa0\n        /* \"#utility.yul\":3664:3673   */\n      dup4\n        /* \"#utility.yul\":3660:3679   */\n      add\n        /* \"#utility.yul\":3651:3657   */\n      dup5\n        /* \"#utility.yul\":3561:3680   */\n      tag_39\n      jump\t// in\n    tag_79:\n        /* \"#utility.yul\":3173:3687   */\n      swap4\n      swap3\n      pop\n      pop\n      pop\n      jump\t// out\n\n    auxdata: 0xa264697066735822122096b010623c8317cd16cf8584529f40802e951283fdfb4573667b8d76764b7df464736f6c63430008160033\n}\n",
				"bytecode": {
					"linkReferences": {},
					"object": "608060405234801561000f575f80fd5b506103a18061001d5f395ff3fe608060405234801561000f575f80fd5b5060043610610029575f3560e01c8063672279921461002d575b5f80fd5b61003561004c565b604051610043929190610343565b60405180910390f35b610054610148565b61005c61016a565b5f6040518060a00160405280603281526020017fffffffffffffffffffffffffffffffffffffffffffffffffffffffffffffffc18152602001604d81526020017fffffffffffffffffffffffffffffffffffffffffffffffffffffffffffffffe48152602001606381525090506040518060800160405280600a815260200160148152602001601e815260200160288152505f9060046100fd92919061018c565b50805f80600680602002604051908101604052809291908260068015610138576020028201915b815481526020019060010190808311610124575b5050505050905092509250509091565b6040518060a00160405280600590602082028036833780820191505090505090565b6040518060c00160405280600690602082028036833780820191505090505090565b82600681019282156101bb579160200282015b828111156101ba57825182559160200191906001019061019f565b5b5090506101c891906101cc565b5090565b5b808211156101e3575f815f9055506001016101cd565b5090565b5f60059050919050565b5f81905092915050565b5f819050919050565b5f819050919050565b61021681610204565b82525050565b5f610227838361020d565b60208301905092915050565b5f602082019050919050565b610248816101e7565b61025281846101f1565b925061025d826101fb565b805f5b8381101561028d578151610274878261021c565b965061027f83610233565b925050600181019050610260565b505050505050565b5f60069050919050565b5f81905092915050565b5f819050919050565b5f819050919050565b6102c4816102b2565b82525050565b5f6102d583836102bb565b60208301905092915050565b5f602082019050919050565b6102f681610295565b610300818461029f565b925061030b826102a9565b805f5b8381101561033b57815161032287826102ca565b965061032d836102e1565b92505060018101905061030e565b505050505050565b5f610160820190506103575f83018561023f565b61036460a08301846102ed565b939250505056fea264697066735822122096b010623c8317cd16cf8584529f40802e951283fdfb4573667b8d76764b7df464736f6c63430008160033",
					"opcodes": "PUSH1 0x80 PUSH1 0x40 MSTORE CALLVALUE DUP1 ISZERO PUSH2 0xF JUMPI PUSH0 DUP1 REVERT JUMPDEST POP PUSH2 0x3A1 DUP1 PUSH2 0x1D PUSH0 CODECOPY PUSH0 RETURN INVALID PUSH1 0x80 PUSH1 0x40 MSTORE CALLVALUE DUP1 ISZERO PUSH2 0xF JUMPI PUSH0 DUP1 REVERT JUMPDEST POP PUSH1 0x4 CALLDATASIZE LT PUSH2 0x29 JUMPI PUSH0 CALLDATALOAD PUSH1 0xE0 SHR DUP1 PUSH4 0x67227992 EQ PUSH2 0x2D JUMPI JUMPDEST PUSH0 DUP1 REVERT JUMPDEST PUSH2 0x35 PUSH2 0x4C JUMP JUMPDEST PUSH1 0x40 MLOAD PUSH2 0x43 SWAP3 SWAP2 SWAP1 PUSH2 0x343 JUMP JUMPDEST PUSH1 0x40 MLOAD DUP1 SWAP2 SUB SWAP1 RETURN JUMPDEST PUSH2 0x54 PUSH2 0x148 JUMP JUMPDEST PUSH2 0x5C PUSH2 0x16A JUMP JUMPDEST PUSH0 PUSH1 0x40 MLOAD DUP1 PUSH1 0xA0 ADD PUSH1 0x40 MSTORE DUP1 PUSH1 0x32 DUP2 MSTORE PUSH1 0x20 ADD PUSH32 0xFFFFFFFFFFFFFFFFFFFFFFFFFFFFFFFFFFFFFFFFFFFFFFFFFFFFFFFFFFFFFFC1 DUP2 MSTORE PUSH1 0x20 ADD PUSH1 0x4D DUP2 MSTORE PUSH1 0x20 ADD PUSH32 0xFFFFFFFFFFFFFFFFFFFFFFFFFFFFFFFFFFFFFFFFFFFFFFFFFFFFFFFFFFFFFFE4 DUP2 MSTORE PUSH1 0x20 ADD PUSH1 0x63 DUP2 MSTORE POP SWAP1 POP PUSH1 0x40 MLOAD DUP1 PUSH1 0x80 ADD PUSH1 0x40 MSTORE DUP1 PUSH1 0xA DUP2 MSTORE PUSH1 0x20 ADD PUSH1 0x14 DUP2 MSTORE PUSH1 0x20 ADD PUSH1 0x1E DUP2 MSTORE PUSH1 0x20 ADD PUSH1 0x28 DUP2 MSTORE POP PUSH0 SWAP1 PUSH1 0x4 PUSH2 0xFD SWAP3 SWAP2 SWAP1 PUSH2 0x18C JUMP JUMPDEST POP DUP1 PUSH0 DUP1 PUSH1 0x6 DUP1 PUSH1 0x20 MUL PUSH1 0x40 MLOAD SWAP1 DUP2 ADD PUSH1 0x40 MSTORE DUP1 SWAP3 SWAP2 SWAP1 DUP3 PUSH1 0x6 DUP1 ISZERO PUSH2 0x138 JUMPI PUSH1 0x20 MUL DUP3 ADD SWAP2 JUMPDEST DUP2 SLOAD DUP2 MSTORE PUSH1 0x20 ADD SWAP1 PUSH1 0x1 ADD SWAP1 DUP1 DUP4 GT PUSH2 0x124 JUMPI JUMPDEST POP POP POP POP POP SWAP1 POP SWAP3 POP SWAP3 POP POP SWAP1 SWAP2 JUMP JUMPDEST PUSH1 0x40 MLOAD DUP1 PUSH1 0xA0 ADD PUSH1 0x40 MSTORE DUP1 PUSH1 0x5 SWAP1 PUSH1 0x20 DUP3 MUL DUP1 CALLDATASIZE DUP4 CALLDATACOPY DUP1 DUP3 ADD SWAP2 POP POP SWAP1 POP POP SWAP1 JUMP JUMPDEST PUSH1 0x40 MLOAD DUP1 PUSH1 0xC0 ADD PUSH1 0x40 MSTORE DUP1 PUSH1 0x6 SWAP1 PUSH1 0x20 DUP3 MUL DUP1 CALLDATASIZE DUP4 CALLDATACOPY DUP1 DUP3 ADD SWAP2 POP POP SWAP1 POP POP SWAP1 JUMP JUMPDEST DUP3 PUSH1 0x6 DUP2 ADD SWAP3 DUP3 ISZERO PUSH2 0x1BB JUMPI SWAP2 PUSH1 0x20 MUL DUP3 ADD JUMPDEST DUP3 DUP2 GT ISZERO PUSH2 0x1BA JUMPI DUP3 MLOAD DUP3 SSTORE SWAP2 PUSH1 0x20 ADD SWAP2 SWAP1 PUSH1 0x1 ADD SWAP1 PUSH2 0x19F JUMP JUMPDEST JUMPDEST POP SWAP1 POP PUSH2 0x1C8 SWAP2 SWAP1 PUSH2 0x1CC JUMP JUMPDEST POP SWAP1 JUMP JUMPDEST JUMPDEST DUP1 DUP3 GT ISZERO PUSH2 0x1E3 JUMPI PUSH0 DUP2 PUSH0 SWAP1 SSTORE POP PUSH1 0x1 ADD PUSH2 0x1CD JUMP JUMPDEST POP SWAP1 JUMP JUMPDEST PUSH0 PUSH1 0x5 SWAP1 POP SWAP2 SWAP1 POP JUMP JUMPDEST PUSH0 DUP2 SWAP1 POP SWAP3 SWAP2 POP POP JUMP JUMPDEST PUSH0 DUP2 SWAP1 POP SWAP2 SWAP1 POP JUMP JUMPDEST PUSH0 DUP2 SWAP1 POP SWAP2 SWAP1 POP JUMP JUMPDEST PUSH2 0x216 DUP2 PUSH2 0x204 JUMP JUMPDEST DUP3 MSTORE POP POP JUMP JUMPDEST PUSH0 PUSH2 0x227 DUP4 DUP4 PUSH2 0x20D JUMP JUMPDEST PUSH1 0x20 DUP4 ADD SWAP1 POP SWAP3 SWAP2 POP POP JUMP JUMPDEST PUSH0 PUSH1 0x20 DUP3 ADD SWAP1 POP SWAP2 SWAP1 POP JUMP JUMPDEST PUSH2 0x248 DUP2 PUSH2 0x1E7 JUMP JUMPDEST PUSH2 0x252 DUP2 DUP5 PUSH2 0x1F1 JUMP JUMPDEST SWAP3 POP PUSH2 0x25D DUP3 PUSH2 0x1FB JUMP JUMPDEST DUP1 PUSH0 JUMPDEST DUP4 DUP2 LT ISZERO PUSH2 0x28D JUMPI DUP2 MLOAD PUSH2 0x274 DUP8 DUP3 PUSH2 0x21C JUMP JUMPDEST SWAP7 POP PUSH2 0x27F DUP4 PUSH2 0x233 JUMP JUMPDEST SWAP3 POP POP PUSH1 0x1 DUP2 ADD SWAP1 POP PUSH2 0x260 JUMP JUMPDEST POP POP POP POP POP POP JUMP JUMPDEST PUSH0 PUSH1 0x6 SWAP1 POP SWAP2 SWAP1 POP JUMP JUMPDEST PUSH0 DUP2 SWAP1 POP SWAP3 SWAP2 POP POP JUMP JUMPDEST PUSH0 DUP2 SWAP1 POP SWAP2 SWAP1 POP JUMP JUMPDEST PUSH0 DUP2 SWAP1 POP SWAP2 SWAP1 POP JUMP JUMPDEST PUSH2 0x2C4 DUP2 PUSH2 0x2B2 JUMP JUMPDEST DUP3 MSTORE POP POP JUMP JUMPDEST PUSH0 PUSH2 0x2D5 DUP4 DUP4 PUSH2 0x2BB JUMP JUMPDEST PUSH1 0x20 DUP4 ADD SWAP1 POP SWAP3 SWAP2 POP POP JUMP JUMPDEST PUSH0 PUSH1 0x20 DUP3 ADD SWAP1 POP SWAP2 SWAP1 POP JUMP JUMPDEST PUSH2 0x2F6 DUP2 PUSH2 0x295 JUMP JUMPDEST PUSH2 0x300 DUP2 DUP5 PUSH2 0x29F JUMP JUMPDEST SWAP3 POP PUSH2 0x30B DUP3 PUSH2 0x2A9 JUMP JUMPDEST DUP1 PUSH0 JUMPDEST DUP4 DUP2 LT ISZERO PUSH2 0x33B JUMPI DUP2 MLOAD PUSH2 0x322 DUP8 DUP3 PUSH2 0x2CA JUMP JUMPDEST SWAP7 POP PUSH2 0x32D DUP4 PUSH2 0x2E1 JUMP JUMPDEST SWAP3 POP POP PUSH1 0x1 DUP2 ADD SWAP1 POP PUSH2 0x30E JUMP JUMPDEST POP POP POP POP POP POP JUMP JUMPDEST PUSH0 PUSH2 0x160 DUP3 ADD SWAP1 POP PUSH2 0x357 PUSH0 DUP4 ADD DUP6 PUSH2 0x23F JUMP JUMPDEST PUSH2 0x364 PUSH1 0xA0 DUP4 ADD DUP5 PUSH2 0x2ED JUMP JUMPDEST SWAP4 SWAP3 POP POP POP JUMP INVALID LOG2 PUSH5 0x6970667358 0x22 SLT KECCAK256 SWAP7 0xB0 LT PUSH3 0x3C8317 0xCD AND 0xCF DUP6 DUP5 MSTORE SWAP16 BLOCKHASH DUP1 0x2E SWAP6 SLT DUP4 REVERT 0xFB GASLIMIT PUSH20 0x667B8D76764B7DF464736F6C6343000816003300 "
				},
				"gasEstimates": {
					"creation": {
						"codeDepositCost": "185800",
						"executionCost": "230",
						"totalCost": "186030"
					},
					"external": {
						"array_example()": "infinite"
					}
				},
				"methodIdentifiers": {
					"array_example()": "67227992"
				}
			},
			"storageLayout": {
				"storage": [
					{
						"astId": 5,
						"contract": "Buổi 18/Mang tinh.sol:Types",
						"label": "data1",
						"offset": 0,
						"slot": "0",
						"type": "t_array(t_uint256)6_storage"
					}
				],
				"types": {
					"t_array(t_uint256)6_storage": {
						"base": "t_uint256",
						"encoding": "inplace",
						"label": "uint256[6]",
						"numberOfBytes": "192"
					},
					"t_uint256": {
						"encoding": "inplace",
						"label": "uint256",
						"numberOfBytes": "32"
					}
				}
			},
			"userdoc": {
				"kind": "user",
				"methods": {},
				"version": 1
			}
		}
	}
}