{
	"Buổi 18/Enum/DemoEnum.sol": {
		"Enum": {
			"abi": [
				{
					"inputs": [],
					"name": "get_choice",
					"outputs": [
						{
							"internalType": "enum Enum.week_days",
							"name": "",
							"type": "uint8"
						}
					],
					"stateMutability": "view",
					"type": "function"
				},
				{
					"inputs": [],
					"name": "getdemovalue",
					"outputs": [
						{
							"internalType": "enum Enum.week_days",
							"name": "",
							"type": "uint8"
						}
					],
					"stateMutability": "pure",
					"type": "function"
				},
				{
					"inputs": [],
					"name": "set_value",
					"outputs": [],
					"stateMutability": "nonpayable",
					"type": "function"
				}
			],
			"devdoc": {
				"kind": "dev",
				"methods": {},
				"version": 1
			},
			"evm": {
				"assembly": "    /* \"Bu\\xe1\\xbb\\x95i 18/Enum/DemoEnum.sol\":59:714  contract  Enum {... */\n  mstore(0x40, 0x80)\n  callvalue\n  dup1\n  iszero\n  tag_1\n  jumpi\n  0x00\n  dup1\n  revert\ntag_1:\n  pop\n  dataSize(sub_0)\n  dup1\n  dataOffset(sub_0)\n  0x00\n  codecopy\n  0x00\n  return\nstop\n\nsub_0: assembly {\n        /* \"Bu\\xe1\\xbb\\x95i 18/Enum/DemoEnum.sol\":59:714  contract  Enum {... */\n      mstore(0x40, 0x80)\n      callvalue\n      dup1\n      iszero\n      tag_1\n      jumpi\n      0x00\n      dup1\n      revert\n    tag_1:\n      pop\n      jumpi(tag_2, lt(calldatasize, 0x04))\n      shr(0xe0, calldataload(0x00))\n      dup1\n      0x630f7035\n      eq\n      tag_3\n      jumpi\n      dup1\n      0xda15f2b1\n      eq\n      tag_4\n      jumpi\n      dup1\n      0xf1388f46\n      eq\n      tag_5\n      jumpi\n    tag_2:\n      0x00\n      dup1\n      revert\n        /* \"Bu\\xe1\\xbb\\x95i 18/Enum/DemoEnum.sol\":384:626  function get_choice(... */\n    tag_3:\n      tag_6\n      tag_7\n      jump\t// in\n    tag_6:\n      mload(0x40)\n      tag_8\n      swap2\n      swap1\n      tag_9\n      jump\t// in\n    tag_8:\n      mload(0x40)\n      dup1\n      swap2\n      sub\n      swap1\n      return\n        /* \"Bu\\xe1\\xbb\\x95i 18/Enum/DemoEnum.sol\":628:711  function getdemovalue() public pure returns(week_days){... */\n    tag_4:\n      tag_10\n      tag_11\n      jump\t// in\n    tag_10:\n      mload(0x40)\n      tag_12\n      swap2\n      swap1\n      tag_9\n      jump\t// in\n    tag_12:\n      mload(0x40)\n      dup1\n      swap2\n      sub\n      swap1\n      return\n        /* \"Bu\\xe1\\xbb\\x95i 18/Enum/DemoEnum.sol\":313:382  function set_value() public {... */\n    tag_5:\n      tag_13\n      tag_14\n      jump\t// in\n    tag_13:\n      stop\n        /* \"Bu\\xe1\\xbb\\x95i 18/Enum/DemoEnum.sol\":384:626  function get_choice(... */\n    tag_7:\n        /* \"Bu\\xe1\\xbb\\x95i 18/Enum/DemoEnum.sol\":431:440  week_days */\n      0x00\n        /* \"Bu\\xe1\\xbb\\x95i 18/Enum/DemoEnum.sol\":459:465  choice */\n      dup1\n      0x01\n      swap1\n      sload\n      swap1\n      0x0100\n      exp\n      swap1\n      div\n      0xff\n      and\n        /* \"Bu\\xe1\\xbb\\x95i 18/Enum/DemoEnum.sol\":452:465  return choice */\n      swap1\n      pop\n        /* \"Bu\\xe1\\xbb\\x95i 18/Enum/DemoEnum.sol\":384:626  function get_choice(... */\n      swap1\n      jump\t// out\n        /* \"Bu\\xe1\\xbb\\x95i 18/Enum/DemoEnum.sol\":628:711  function getdemovalue() public pure returns(week_days){... */\n    tag_11:\n        /* \"Bu\\xe1\\xbb\\x95i 18/Enum/DemoEnum.sol\":672:681  week_days */\n      0x00\n        /* \"Bu\\xe1\\xbb\\x95i 18/Enum/DemoEnum.sol\":293:306  week_days.Nam */\n      0x04\n        /* \"Bu\\xe1\\xbb\\x95i 18/Enum/DemoEnum.sol\":689:706  return demo_value */\n      swap1\n      pop\n        /* \"Bu\\xe1\\xbb\\x95i 18/Enum/DemoEnum.sol\":628:711  function getdemovalue() public pure returns(week_days){... */\n      swap1\n      jump\t// out\n        /* \"Bu\\xe1\\xbb\\x95i 18/Enum/DemoEnum.sol\":313:382  function set_value() public {... */\n    tag_14:\n        /* \"Bu\\xe1\\xbb\\x95i 18/Enum/DemoEnum.sol\":361:374  week_days.Mot */\n      0x00\n        /* \"Bu\\xe1\\xbb\\x95i 18/Enum/DemoEnum.sol\":352:358  choice */\n      dup1\n      0x01\n        /* \"Bu\\xe1\\xbb\\x95i 18/Enum/DemoEnum.sol\":352:374  choice = week_days.Mot */\n      0x0100\n      exp\n      dup2\n      sload\n      dup2\n      0xff\n      mul\n      not\n      and\n      swap1\n      dup4\n      0x06\n      dup2\n      gt\n      iszero\n      tag_18\n      jumpi\n      tag_19\n      tag_20\n      jump\t// in\n    tag_19:\n    tag_18:\n      mul\n      or\n      swap1\n      sstore\n      pop\n        /* \"Bu\\xe1\\xbb\\x95i 18/Enum/DemoEnum.sol\":313:382  function set_value() public {... */\n      jump\t// out\n        /* \"#utility.yul\":7:187   */\n    tag_20:\n        /* \"#utility.yul\":55:132   */\n      0x4e487b7100000000000000000000000000000000000000000000000000000000\n        /* \"#utility.yul\":52:53   */\n      0x00\n        /* \"#utility.yul\":45:133   */\n      mstore\n        /* \"#utility.yul\":152:156   */\n      0x21\n        /* \"#utility.yul\":149:150   */\n      0x04\n        /* \"#utility.yul\":142:157   */\n      mstore\n        /* \"#utility.yul\":176:180   */\n      0x24\n        /* \"#utility.yul\":173:174   */\n      0x00\n        /* \"#utility.yul\":166:181   */\n      revert\n        /* \"#utility.yul\":193:309   */\n    tag_21:\n        /* \"#utility.yul\":277:278   */\n      0x07\n        /* \"#utility.yul\":270:275   */\n      dup2\n        /* \"#utility.yul\":267:279   */\n      lt\n        /* \"#utility.yul\":257:303   */\n      tag_28\n      jumpi\n        /* \"#utility.yul\":283:301   */\n      tag_29\n      tag_20\n      jump\t// in\n    tag_29:\n        /* \"#utility.yul\":257:303   */\n    tag_28:\n        /* \"#utility.yul\":193:309   */\n      pop\n      jump\t// out\n        /* \"#utility.yul\":315:448   */\n    tag_22:\n        /* \"#utility.yul\":363:370   */\n      0x00\n        /* \"#utility.yul\":392:397   */\n      dup2\n        /* \"#utility.yul\":381:397   */\n      swap1\n      pop\n        /* \"#utility.yul\":398:442   */\n      tag_31\n        /* \"#utility.yul\":436:441   */\n      dup3\n        /* \"#utility.yul\":398:442   */\n      tag_21\n      jump\t// in\n    tag_31:\n        /* \"#utility.yul\":315:448   */\n      swap2\n      swap1\n      pop\n      jump\t// out\n        /* \"#utility.yul\":454:587   */\n    tag_23:\n        /* \"#utility.yul\":513:522   */\n      0x00\n        /* \"#utility.yul\":546:581   */\n      tag_33\n        /* \"#utility.yul\":575:580   */\n      dup3\n        /* \"#utility.yul\":546:581   */\n      tag_22\n      jump\t// in\n    tag_33:\n        /* \"#utility.yul\":533:581   */\n      swap1\n      pop\n        /* \"#utility.yul\":454:587   */\n      swap2\n      swap1\n      pop\n      jump\t// out\n        /* \"#utility.yul\":593:742   */\n    tag_24:\n        /* \"#utility.yul\":689:735   */\n      tag_35\n        /* \"#utility.yul\":729:734   */\n      dup2\n        /* \"#utility.yul\":689:735   */\n      tag_23\n      jump\t// in\n    tag_35:\n        /* \"#utility.yul\":684:687   */\n      dup3\n        /* \"#utility.yul\":677:736   */\n      mstore\n        /* \"#utility.yul\":593:742   */\n      pop\n      pop\n      jump\t// out\n        /* \"#utility.yul\":748:988   */\n    tag_9:\n        /* \"#utility.yul\":850:854   */\n      0x00\n        /* \"#utility.yul\":888:890   */\n      0x20\n        /* \"#utility.yul\":877:886   */\n      dup3\n        /* \"#utility.yul\":873:891   */\n      add\n        /* \"#utility.yul\":865:891   */\n      swap1\n      pop\n        /* \"#utility.yul\":901:981   */\n      tag_37\n        /* \"#utility.yul\":978:979   */\n      0x00\n        /* \"#utility.yul\":967:976   */\n      dup4\n        /* \"#utility.yul\":963:980   */\n      add\n        /* \"#utility.yul\":954:960   */\n      dup5\n        /* \"#utility.yul\":901:981   */\n      tag_24\n      jump\t// in\n    tag_37:\n        /* \"#utility.yul\":748:988   */\n      swap3\n      swap2\n      pop\n      pop\n      jump\t// out\n\n    auxdata: 0xa26469706673582212208c22d5370156765eafd3e09b68e7b2cdae8e087b78e8a8c300cf3a062e610ce364736f6c63430008160033\n}\n",
				"bytecode": {
					"linkReferences": {},
					"object": "608060405234801561000f575f80fd5b506101938061001d5f395ff3fe608060405234801561000f575f80fd5b506004361061003f575f3560e01c8063630f703514610043578063da15f2b114610061578063f1388f461461007f575b5f80fd5b61004b610089565b6040516100589190610144565b60405180910390f35b61006961009e565b6040516100769190610144565b60405180910390f35b6100876100a6565b005b5f8060019054906101000a900460ff16905090565b5f6004905090565b5f8060016101000a81548160ff021916908360068111156100ca576100c96100d1565b5b0217905550565b7f4e487b71000000000000000000000000000000000000000000000000000000005f52602160045260245ffd5b6007811061010f5761010e6100d1565b5b50565b5f81905061011f826100fe565b919050565b5f61012e82610112565b9050919050565b61013e81610124565b82525050565b5f6020820190506101575f830184610135565b9291505056fea26469706673582212208c22d5370156765eafd3e09b68e7b2cdae8e087b78e8a8c300cf3a062e610ce364736f6c63430008160033",
					"opcodes": "PUSH1 0x80 PUSH1 0x40 MSTORE CALLVALUE DUP1 ISZERO PUSH2 0xF JUMPI PUSH0 DUP1 REVERT JUMPDEST POP PUSH2 0x193 DUP1 PUSH2 0x1D PUSH0 CODECOPY PUSH0 RETURN INVALID PUSH1 0x80 PUSH1 0x40 MSTORE CALLVALUE DUP1 ISZERO PUSH2 0xF JUMPI PUSH0 DUP1 REVERT JUMPDEST POP PUSH1 0x4 CALLDATASIZE LT PUSH2 0x3F JUMPI PUSH0 CALLDATALOAD PUSH1 0xE0 SHR DUP1 PUSH4 0x630F7035 EQ PUSH2 0x43 JUMPI DUP1 PUSH4 0xDA15F2B1 EQ PUSH2 0x61 JUMPI DUP1 PUSH4 0xF1388F46 EQ PUSH2 0x7F JUMPI JUMPDEST PUSH0 DUP1 REVERT JUMPDEST PUSH2 0x4B PUSH2 0x89 JUMP JUMPDEST PUSH1 0x40 MLOAD PUSH2 0x58 SWAP2 SWAP1 PUSH2 0x144 JUMP JUMPDEST PUSH1 0x40 MLOAD DUP1 SWAP2 SUB SWAP1 RETURN JUMPDEST PUSH2 0x69 PUSH2 0x9E JUMP JUMPDEST PUSH1 0x40 MLOAD PUSH2 0x76 SWAP2 SWAP1 PUSH2 0x144 JUMP JUMPDEST PUSH1 0x40 MLOAD DUP1 SWAP2 SUB SWAP1 RETURN JUMPDEST PUSH2 0x87 PUSH2 0xA6 JUMP JUMPDEST STOP JUMPDEST PUSH0 DUP1 PUSH1 0x1 SWAP1 SLOAD SWAP1 PUSH2 0x100 EXP SWAP1 DIV PUSH1 0xFF AND SWAP1 POP SWAP1 JUMP JUMPDEST PUSH0 PUSH1 0x4 SWAP1 POP SWAP1 JUMP JUMPDEST PUSH0 DUP1 PUSH1 0x1 PUSH2 0x100 EXP DUP2 SLOAD DUP2 PUSH1 0xFF MUL NOT AND SWAP1 DUP4 PUSH1 0x6 DUP2 GT ISZERO PUSH2 0xCA JUMPI PUSH2 0xC9 PUSH2 0xD1 JUMP JUMPDEST JUMPDEST MUL OR SWAP1 SSTORE POP JUMP JUMPDEST PUSH32 0x4E487B7100000000000000000000000000000000000000000000000000000000 PUSH0 MSTORE PUSH1 0x21 PUSH1 0x4 MSTORE PUSH1 0x24 PUSH0 REVERT JUMPDEST PUSH1 0x7 DUP2 LT PUSH2 0x10F JUMPI PUSH2 0x10E PUSH2 0xD1 JUMP JUMPDEST JUMPDEST POP JUMP JUMPDEST PUSH0 DUP2 SWAP1 POP PUSH2 0x11F DUP3 PUSH2 0xFE JUMP JUMPDEST SWAP2 SWAP1 POP JUMP JUMPDEST PUSH0 PUSH2 0x12E DUP3 PUSH2 0x112 JUMP JUMPDEST SWAP1 POP SWAP2 SWAP1 POP JUMP JUMPDEST PUSH2 0x13E DUP2 PUSH2 0x124 JUMP JUMPDEST DUP3 MSTORE POP POP JUMP JUMPDEST PUSH0 PUSH1 0x20 DUP3 ADD SWAP1 POP PUSH2 0x157 PUSH0 DUP4 ADD DUP5 PUSH2 0x135 JUMP JUMPDEST SWAP3 SWAP2 POP POP JUMP INVALID LOG2 PUSH5 0x6970667358 0x22 SLT KECCAK256 DUP13 0x22 0xD5 CALLDATACOPY ADD JUMP PUSH23 0x5EAFD3E09B68E7B2CDAE8E087B78E8A8C300CF3A062E61 0xC 0xE3 PUSH5 0x736F6C6343 STOP ADDMOD AND STOP CALLER "
				},
				"gasEstimates": {
					"creation": {
						"codeDepositCost": "80600",
						"executionCost": "127",
						"totalCost": "80727"
					},
					"external": {
						"get_choice()": "2590",
						"getdemovalue()": "426",
						"set_value()": "24501"
					}
				},
				"methodIdentifiers": {
					"get_choice()": "630f7035",
					"getdemovalue()": "da15f2b1",
					"set_value()": "f1388f46"
				}
			},
			"storageLayout": {
				"storage": [
					{
						"astId": 12,
						"contract": "Buổi 18/Enum/DemoEnum.sol:Enum",
						"label": "week",
						"offset": 0,
						"slot": "0",
						"type": "t_enum(week_days)9"
					},
					{
						"astId": 15,
						"contract": "Buổi 18/Enum/DemoEnum.sol:Enum",
						"label": "choice",
						"offset": 1,
						"slot": "0",
						"type": "t_enum(week_days)9"
					}
				],
				"types": {
					"t_enum(week_days)9": {
						"encoding": "inplace",
						"label": "enum Enum.week_days",
						"numberOfBytes": "1"
					}
				}
			},
			"userdoc": {
				"kind": "user",
				"methods": {},
				"version": 1
			}
		}
	}
}