{
	"Buổi 18/Struct/Demo.sol": {
		"Struct": {
			"abi": [
				{
					"inputs": [],
					"name": "animal_new",
					"outputs": [
						{
							"internalType": "string",
							"name": "",
							"type": "string"
						},
						{
							"internalType": "string",
							"name": "",
							"type": "string"
						},
						{
							"internalType": "bool",
							"name": "",
							"type": "bool"
						},
						{
							"internalType": "uint256",
							"name": "",
							"type": "uint256"
						}
					],
					"stateMutability": "view",
					"type": "function"
				},
				{
					"inputs": [],
					"name": "get_details",
					"outputs": [
						{
							"internalType": "string",
							"name": "",
							"type": "string"
						},
						{
							"internalType": "uint256",
							"name": "",
							"type": "uint256"
						}
					],
					"stateMutability": "view",
					"type": "function"
				},
				{
					"inputs": [],
					"name": "set_animal_demo",
					"outputs": [],
					"stateMutability": "nonpayable",
					"type": "function"
				}
			],
			"devdoc": {
				"kind": "dev",
				"methods": {},
				"version": 1
			},
			"evm": {
				"assembly": "    /* \"Bu\\xe1\\xbb\\x95i 18/Struct/Demo.sol\":60:747  contract Struct {... */\n  mstore(0x40, 0x80)\n    /* \"Bu\\xe1\\xbb\\x95i 18/Struct/Demo.sol\":238:306  Animal(\"di hoc va di choi \", ... */\n  mload(0x40)\n  dup1\n  0x80\n  add\n  0x40\n  mstore\n  dup1\n  mload(0x40)\n  dup1\n  0x40\n  add\n  0x40\n  mstore\n  dup1\n  0x12\n  dup2\n  mstore\n  0x20\n  add\n  0x646920686f632076612064692063686f69200000000000000000000000000000\n  dup2\n  mstore\n  pop\n  dup2\n  mstore\n  0x20\n  add\n  mload(0x40)\n  dup1\n  0x40\n  add\n  0x40\n  mstore\n  dup1\n  0x09\n  dup2\n  mstore\n  0x20\n  add\n  0x746865207468616f200000000000000000000000000000000000000000000000\n  dup2\n  mstore\n  pop\n  dup2\n  mstore\n  0x20\n  add\n    /* \"Bu\\xe1\\xbb\\x95i 18/Struct/Demo.sol\":294:295  2 */\n  0x02\n    /* \"Bu\\xe1\\xbb\\x95i 18/Struct/Demo.sol\":238:306  Animal(\"di hoc va di choi \", ... */\n  dup2\n  mstore\n  0x20\n  add\n    /* \"Bu\\xe1\\xbb\\x95i 18/Struct/Demo.sol\":299:304  false */\n  0x00\n    /* \"Bu\\xe1\\xbb\\x95i 18/Struct/Demo.sol\":238:306  Animal(\"di hoc va di choi \", ... */\n  iszero\n  iszero\n  dup2\n  mstore\n  pop\n    /* \"Bu\\xe1\\xbb\\x95i 18/Struct/Demo.sol\":221:306  Animal animal2 = Animal(\"di hoc va di choi \", ... */\n  0x04\n  0x00\n  dup3\n  add\n  mload\n  dup2\n  0x00\n  add\n  swap1\n  dup2\n  tag_1\n  swap2\n  swap1\n  tag_2\n  jump\t// in\ntag_1:\n  pop\n  0x20\n  dup3\n  add\n  mload\n  dup2\n  0x01\n  add\n  swap1\n  dup2\n  tag_3\n  swap2\n  swap1\n  tag_2\n  jump\t// in\ntag_3:\n  pop\n  0x40\n  dup3\n  add\n  mload\n  dup2\n  0x02\n  add\n  sstore\n  0x60\n  dup3\n  add\n  mload\n  dup2\n  0x03\n  add\n  exp(0x0100, 0x00)\n  dup2\n  sload\n  dup2\n  0xff\n  mul\n  not\n  and\n  swap1\n  dup4\n  iszero\n  iszero\n  mul\n  or\n  swap1\n  sstore\n  pop\n  pop\n  pop\n    /* \"Bu\\xe1\\xbb\\x95i 18/Struct/Demo.sol\":60:747  contract Struct {... */\n  callvalue\n  dup1\n  iszero\n  tag_4\n  jumpi\n  0x00\n  dup1\n  revert\ntag_4:\n  pop\n  jump(tag_5)\n    /* \"#utility.yul\":7:106   */\ntag_6:\n    /* \"#utility.yul\":59:65   */\n  0x00\n    /* \"#utility.yul\":93:98   */\n  dup2\n    /* \"#utility.yul\":87:99   */\n  mload\n    /* \"#utility.yul\":77:99   */\n  swap1\n  pop\n    /* \"#utility.yul\":7:106   */\n  swap2\n  swap1\n  pop\n  jump\t// out\n    /* \"#utility.yul\":112:292   */\ntag_7:\n    /* \"#utility.yul\":160:237   */\n  0x4e487b7100000000000000000000000000000000000000000000000000000000\n    /* \"#utility.yul\":157:158   */\n  0x00\n    /* \"#utility.yul\":150:238   */\n  mstore\n    /* \"#utility.yul\":257:261   */\n  0x41\n    /* \"#utility.yul\":254:255   */\n  0x04\n    /* \"#utility.yul\":247:262   */\n  mstore\n    /* \"#utility.yul\":281:285   */\n  0x24\n    /* \"#utility.yul\":278:279   */\n  0x00\n    /* \"#utility.yul\":271:286   */\n  revert\n    /* \"#utility.yul\":298:478   */\ntag_8:\n    /* \"#utility.yul\":346:423   */\n  0x4e487b7100000000000000000000000000000000000000000000000000000000\n    /* \"#utility.yul\":343:344   */\n  0x00\n    /* \"#utility.yul\":336:424   */\n  mstore\n    /* \"#utility.yul\":443:447   */\n  0x22\n    /* \"#utility.yul\":440:441   */\n  0x04\n    /* \"#utility.yul\":433:448   */\n  mstore\n    /* \"#utility.yul\":467:471   */\n  0x24\n    /* \"#utility.yul\":464:465   */\n  0x00\n    /* \"#utility.yul\":457:472   */\n  revert\n    /* \"#utility.yul\":484:804   */\ntag_9:\n    /* \"#utility.yul\":528:534   */\n  0x00\n    /* \"#utility.yul\":565:566   */\n  0x02\n    /* \"#utility.yul\":559:563   */\n  dup3\n    /* \"#utility.yul\":555:567   */\n  div\n    /* \"#utility.yul\":545:567   */\n  swap1\n  pop\n    /* \"#utility.yul\":612:613   */\n  0x01\n    /* \"#utility.yul\":606:610   */\n  dup3\n    /* \"#utility.yul\":602:614   */\n  and\n    /* \"#utility.yul\":633:651   */\n  dup1\n    /* \"#utility.yul\":623:704   */\n  tag_31\n  jumpi\n    /* \"#utility.yul\":689:693   */\n  0x7f\n    /* \"#utility.yul\":681:687   */\n  dup3\n    /* \"#utility.yul\":677:694   */\n  and\n    /* \"#utility.yul\":667:694   */\n  swap2\n  pop\n    /* \"#utility.yul\":623:704   */\ntag_31:\n    /* \"#utility.yul\":751:753   */\n  0x20\n    /* \"#utility.yul\":743:749   */\n  dup3\n    /* \"#utility.yul\":740:754   */\n  lt\n    /* \"#utility.yul\":720:738   */\n  dup2\n    /* \"#utility.yul\":717:755   */\n  sub\n    /* \"#utility.yul\":714:798   */\n  tag_32\n  jumpi\n    /* \"#utility.yul\":770:788   */\n  tag_33\n  tag_8\n  jump\t// in\ntag_33:\n    /* \"#utility.yul\":714:798   */\ntag_32:\n    /* \"#utility.yul\":535:804   */\n  pop\n    /* \"#utility.yul\":484:804   */\n  swap2\n  swap1\n  pop\n  jump\t// out\n    /* \"#utility.yul\":810:951   */\ntag_10:\n    /* \"#utility.yul\":859:863   */\n  0x00\n    /* \"#utility.yul\":882:885   */\n  dup2\n    /* \"#utility.yul\":874:885   */\n  swap1\n  pop\n    /* \"#utility.yul\":905:908   */\n  dup2\n    /* \"#utility.yul\":902:903   */\n  0x00\n    /* \"#utility.yul\":895:909   */\n  mstore\n    /* \"#utility.yul\":939:943   */\n  0x20\n    /* \"#utility.yul\":936:937   */\n  0x00\n    /* \"#utility.yul\":926:944   */\n  keccak256\n    /* \"#utility.yul\":918:944   */\n  swap1\n  pop\n    /* \"#utility.yul\":810:951   */\n  swap2\n  swap1\n  pop\n  jump\t// out\n    /* \"#utility.yul\":957:1050   */\ntag_11:\n    /* \"#utility.yul\":994:1000   */\n  0x00\n    /* \"#utility.yul\":1041:1043   */\n  0x20\n    /* \"#utility.yul\":1036:1038   */\n  0x1f\n    /* \"#utility.yul\":1029:1034   */\n  dup4\n    /* \"#utility.yul\":1025:1039   */\n  add\n    /* \"#utility.yul\":1021:1044   */\n  div\n    /* \"#utility.yul\":1011:1044   */\n  swap1\n  pop\n    /* \"#utility.yul\":957:1050   */\n  swap2\n  swap1\n  pop\n  jump\t// out\n    /* \"#utility.yul\":1056:1163   */\ntag_12:\n    /* \"#utility.yul\":1100:1108   */\n  0x00\n    /* \"#utility.yul\":1150:1155   */\n  dup3\n    /* \"#utility.yul\":1144:1148   */\n  dup3\n    /* \"#utility.yul\":1140:1156   */\n  shl\n    /* \"#utility.yul\":1119:1156   */\n  swap1\n  pop\n    /* \"#utility.yul\":1056:1163   */\n  swap3\n  swap2\n  pop\n  pop\n  jump\t// out\n    /* \"#utility.yul\":1169:1562   */\ntag_13:\n    /* \"#utility.yul\":1238:1244   */\n  0x00\n    /* \"#utility.yul\":1288:1289   */\n  0x08\n    /* \"#utility.yul\":1276:1286   */\n  dup4\n    /* \"#utility.yul\":1272:1290   */\n  mul\n    /* \"#utility.yul\":1311:1408   */\n  tag_38\n    /* \"#utility.yul\":1341:1407   */\n  0xffffffffffffffffffffffffffffffffffffffffffffffffffffffffffffffff\n    /* \"#utility.yul\":1330:1339   */\n  dup3\n    /* \"#utility.yul\":1311:1408   */\n  tag_12\n  jump\t// in\ntag_38:\n    /* \"#utility.yul\":1429:1468   */\n  tag_39\n    /* \"#utility.yul\":1459:1467   */\n  dup7\n    /* \"#utility.yul\":1448:1457   */\n  dup4\n    /* \"#utility.yul\":1429:1468   */\n  tag_12\n  jump\t// in\ntag_39:\n    /* \"#utility.yul\":1417:1468   */\n  swap6\n  pop\n    /* \"#utility.yul\":1501:1505   */\n  dup1\n    /* \"#utility.yul\":1497:1506   */\n  not\n    /* \"#utility.yul\":1490:1495   */\n  dup5\n    /* \"#utility.yul\":1486:1507   */\n  and\n    /* \"#utility.yul\":1477:1507   */\n  swap4\n  pop\n    /* \"#utility.yul\":1550:1554   */\n  dup1\n    /* \"#utility.yul\":1540:1548   */\n  dup7\n    /* \"#utility.yul\":1536:1555   */\n  and\n    /* \"#utility.yul\":1529:1534   */\n  dup5\n    /* \"#utility.yul\":1526:1556   */\n  or\n    /* \"#utility.yul\":1516:1556   */\n  swap3\n  pop\n    /* \"#utility.yul\":1245:1562   */\n  pop\n  pop\n    /* \"#utility.yul\":1169:1562   */\n  swap4\n  swap3\n  pop\n  pop\n  pop\n  jump\t// out\n    /* \"#utility.yul\":1568:1645   */\ntag_14:\n    /* \"#utility.yul\":1605:1612   */\n  0x00\n    /* \"#utility.yul\":1634:1639   */\n  dup2\n    /* \"#utility.yul\":1623:1639   */\n  swap1\n  pop\n    /* \"#utility.yul\":1568:1645   */\n  swap2\n  swap1\n  pop\n  jump\t// out\n    /* \"#utility.yul\":1651:1711   */\ntag_15:\n    /* \"#utility.yul\":1679:1682   */\n  0x00\n    /* \"#utility.yul\":1700:1705   */\n  dup2\n    /* \"#utility.yul\":1693:1705   */\n  swap1\n  pop\n    /* \"#utility.yul\":1651:1711   */\n  swap2\n  swap1\n  pop\n  jump\t// out\n    /* \"#utility.yul\":1717:1859   */\ntag_16:\n    /* \"#utility.yul\":1767:1776   */\n  0x00\n    /* \"#utility.yul\":1800:1853   */\n  tag_43\n    /* \"#utility.yul\":1818:1852   */\n  tag_44\n    /* \"#utility.yul\":1827:1851   */\n  tag_45\n    /* \"#utility.yul\":1845:1850   */\n  dup5\n    /* \"#utility.yul\":1827:1851   */\n  tag_14\n  jump\t// in\ntag_45:\n    /* \"#utility.yul\":1818:1852   */\n  tag_15\n  jump\t// in\ntag_44:\n    /* \"#utility.yul\":1800:1853   */\n  tag_14\n  jump\t// in\ntag_43:\n    /* \"#utility.yul\":1787:1853   */\n  swap1\n  pop\n    /* \"#utility.yul\":1717:1859   */\n  swap2\n  swap1\n  pop\n  jump\t// out\n    /* \"#utility.yul\":1865:1940   */\ntag_17:\n    /* \"#utility.yul\":1908:1911   */\n  0x00\n    /* \"#utility.yul\":1929:1934   */\n  dup2\n    /* \"#utility.yul\":1922:1934   */\n  swap1\n  pop\n    /* \"#utility.yul\":1865:1940   */\n  swap2\n  swap1\n  pop\n  jump\t// out\n    /* \"#utility.yul\":1946:2215   */\ntag_18:\n    /* \"#utility.yul\":2056:2095   */\n  tag_48\n    /* \"#utility.yul\":2087:2094   */\n  dup4\n    /* \"#utility.yul\":2056:2095   */\n  tag_16\n  jump\t// in\ntag_48:\n    /* \"#utility.yul\":2117:2208   */\n  tag_49\n    /* \"#utility.yul\":2166:2207   */\n  tag_50\n    /* \"#utility.yul\":2190:2206   */\n  dup3\n    /* \"#utility.yul\":2166:2207   */\n  tag_17\n  jump\t// in\ntag_50:\n    /* \"#utility.yul\":2158:2164   */\n  dup5\n    /* \"#utility.yul\":2151:2155   */\n  dup5\n    /* \"#utility.yul\":2145:2156   */\n  sload\n    /* \"#utility.yul\":2117:2208   */\n  tag_13\n  jump\t// in\ntag_49:\n    /* \"#utility.yul\":2111:2115   */\n  dup3\n    /* \"#utility.yul\":2104:2209   */\n  sstore\n    /* \"#utility.yul\":2022:2215   */\n  pop\n    /* \"#utility.yul\":1946:2215   */\n  pop\n  pop\n  pop\n  jump\t// out\n    /* \"#utility.yul\":2221:2294   */\ntag_19:\n    /* \"#utility.yul\":2266:2269   */\n  0x00\n    /* \"#utility.yul\":2221:2294   */\n  swap1\n  jump\t// out\n    /* \"#utility.yul\":2300:2489   */\ntag_20:\n    /* \"#utility.yul\":2377:2409   */\n  tag_53\n  tag_19\n  jump\t// in\ntag_53:\n    /* \"#utility.yul\":2418:2483   */\n  tag_54\n    /* \"#utility.yul\":2476:2482   */\n  dup2\n    /* \"#utility.yul\":2468:2474   */\n  dup5\n    /* \"#utility.yul\":2462:2466   */\n  dup5\n    /* \"#utility.yul\":2418:2483   */\n  tag_18\n  jump\t// in\ntag_54:\n    /* \"#utility.yul\":2353:2489   */\n  pop\n    /* \"#utility.yul\":2300:2489   */\n  pop\n  pop\n  jump\t// out\n    /* \"#utility.yul\":2495:2681   */\ntag_21:\n    /* \"#utility.yul\":2555:2675   */\ntag_56:\n    /* \"#utility.yul\":2572:2575   */\n  dup2\n    /* \"#utility.yul\":2565:2570   */\n  dup2\n    /* \"#utility.yul\":2562:2576   */\n  lt\n    /* \"#utility.yul\":2555:2675   */\n  iszero\n  tag_58\n  jumpi\n    /* \"#utility.yul\":2626:2665   */\n  tag_59\n    /* \"#utility.yul\":2663:2664   */\n  0x00\n    /* \"#utility.yul\":2656:2661   */\n  dup3\n    /* \"#utility.yul\":2626:2665   */\n  tag_20\n  jump\t// in\ntag_59:\n    /* \"#utility.yul\":2599:2600   */\n  0x01\n    /* \"#utility.yul\":2592:2597   */\n  dup2\n    /* \"#utility.yul\":2588:2601   */\n  add\n    /* \"#utility.yul\":2579:2601   */\n  swap1\n  pop\n    /* \"#utility.yul\":2555:2675   */\n  jump(tag_56)\ntag_58:\n    /* \"#utility.yul\":2495:2681   */\n  pop\n  pop\n  jump\t// out\n    /* \"#utility.yul\":2687:3230   */\ntag_22:\n    /* \"#utility.yul\":2788:2790   */\n  0x1f\n    /* \"#utility.yul\":2783:2786   */\n  dup3\n    /* \"#utility.yul\":2780:2791   */\n  gt\n    /* \"#utility.yul\":2777:3223   */\n  iszero\n  tag_61\n  jumpi\n    /* \"#utility.yul\":2822:2860   */\n  tag_62\n    /* \"#utility.yul\":2854:2859   */\n  dup2\n    /* \"#utility.yul\":2822:2860   */\n  tag_10\n  jump\t// in\ntag_62:\n    /* \"#utility.yul\":2906:2935   */\n  tag_63\n    /* \"#utility.yul\":2924:2934   */\n  dup5\n    /* \"#utility.yul\":2906:2935   */\n  tag_11\n  jump\t// in\ntag_63:\n    /* \"#utility.yul\":2896:2904   */\n  dup2\n    /* \"#utility.yul\":2892:2936   */\n  add\n    /* \"#utility.yul\":3089:3091   */\n  0x20\n    /* \"#utility.yul\":3077:3087   */\n  dup6\n    /* \"#utility.yul\":3074:3092   */\n  lt\n    /* \"#utility.yul\":3071:3120   */\n  iszero\n  tag_64\n  jumpi\n    /* \"#utility.yul\":3110:3118   */\n  dup2\n    /* \"#utility.yul\":3095:3118   */\n  swap1\n  pop\n    /* \"#utility.yul\":3071:3120   */\ntag_64:\n    /* \"#utility.yul\":3133:3213   */\n  tag_65\n    /* \"#utility.yul\":3189:3211   */\n  tag_66\n    /* \"#utility.yul\":3207:3210   */\n  dup6\n    /* \"#utility.yul\":3189:3211   */\n  tag_11\n  jump\t// in\ntag_66:\n    /* \"#utility.yul\":3179:3187   */\n  dup4\n    /* \"#utility.yul\":3175:3212   */\n  add\n    /* \"#utility.yul\":3162:3173   */\n  dup3\n    /* \"#utility.yul\":3133:3213   */\n  tag_21\n  jump\t// in\ntag_65:\n    /* \"#utility.yul\":2792:3223   */\n  pop\n  pop\n    /* \"#utility.yul\":2777:3223   */\ntag_61:\n    /* \"#utility.yul\":2687:3230   */\n  pop\n  pop\n  pop\n  jump\t// out\n    /* \"#utility.yul\":3236:3353   */\ntag_23:\n    /* \"#utility.yul\":3290:3298   */\n  0x00\n    /* \"#utility.yul\":3340:3345   */\n  dup3\n    /* \"#utility.yul\":3334:3338   */\n  dup3\n    /* \"#utility.yul\":3330:3346   */\n  shr\n    /* \"#utility.yul\":3309:3346   */\n  swap1\n  pop\n    /* \"#utility.yul\":3236:3353   */\n  swap3\n  swap2\n  pop\n  pop\n  jump\t// out\n    /* \"#utility.yul\":3359:3528   */\ntag_24:\n    /* \"#utility.yul\":3403:3409   */\n  0x00\n    /* \"#utility.yul\":3436:3487   */\n  tag_69\n    /* \"#utility.yul\":3484:3485   */\n  0x00\n    /* \"#utility.yul\":3480:3486   */\n  not\n    /* \"#utility.yul\":3472:3477   */\n  dup5\n    /* \"#utility.yul\":3469:3470   */\n  0x08\n    /* \"#utility.yul\":3465:3478   */\n  mul\n    /* \"#utility.yul\":3436:3487   */\n  tag_23\n  jump\t// in\ntag_69:\n    /* \"#utility.yul\":3432:3488   */\n  not\n    /* \"#utility.yul\":3517:3521   */\n  dup1\n    /* \"#utility.yul\":3511:3515   */\n  dup4\n    /* \"#utility.yul\":3507:3522   */\n  and\n    /* \"#utility.yul\":3497:3522   */\n  swap2\n  pop\n    /* \"#utility.yul\":3410:3528   */\n  pop\n    /* \"#utility.yul\":3359:3528   */\n  swap3\n  swap2\n  pop\n  pop\n  jump\t// out\n    /* \"#utility.yul\":3533:3828   */\ntag_25:\n    /* \"#utility.yul\":3609:3613   */\n  0x00\n    /* \"#utility.yul\":3755:3784   */\n  tag_71\n    /* \"#utility.yul\":3780:3783   */\n  dup4\n    /* \"#utility.yul\":3774:3778   */\n  dup4\n    /* \"#utility.yul\":3755:3784   */\n  tag_24\n  jump\t// in\ntag_71:\n    /* \"#utility.yul\":3747:3784   */\n  swap2\n  pop\n    /* \"#utility.yul\":3817:3820   */\n  dup3\n    /* \"#utility.yul\":3814:3815   */\n  0x02\n    /* \"#utility.yul\":3810:3821   */\n  mul\n    /* \"#utility.yul\":3804:3808   */\n  dup3\n    /* \"#utility.yul\":3801:3822   */\n  or\n    /* \"#utility.yul\":3793:3822   */\n  swap1\n  pop\n    /* \"#utility.yul\":3533:3828   */\n  swap3\n  swap2\n  pop\n  pop\n  jump\t// out\n    /* \"#utility.yul\":3833:5228   */\ntag_2:\n    /* \"#utility.yul\":3950:3987   */\n  tag_73\n    /* \"#utility.yul\":3983:3986   */\n  dup3\n    /* \"#utility.yul\":3950:3987   */\n  tag_6\n  jump\t// in\ntag_73:\n    /* \"#utility.yul\":4052:4070   */\n  0xffffffffffffffff\n    /* \"#utility.yul\":4044:4050   */\n  dup2\n    /* \"#utility.yul\":4041:4071   */\n  gt\n    /* \"#utility.yul\":4038:4094   */\n  iszero\n  tag_74\n  jumpi\n    /* \"#utility.yul\":4074:4092   */\n  tag_75\n  tag_7\n  jump\t// in\ntag_75:\n    /* \"#utility.yul\":4038:4094   */\ntag_74:\n    /* \"#utility.yul\":4118:4156   */\n  tag_76\n    /* \"#utility.yul\":4150:4154   */\n  dup3\n    /* \"#utility.yul\":4144:4155   */\n  sload\n    /* \"#utility.yul\":4118:4156   */\n  tag_9\n  jump\t// in\ntag_76:\n    /* \"#utility.yul\":4203:4270   */\n  tag_77\n    /* \"#utility.yul\":4263:4269   */\n  dup3\n    /* \"#utility.yul\":4255:4261   */\n  dup3\n    /* \"#utility.yul\":4249:4253   */\n  dup6\n    /* \"#utility.yul\":4203:4270   */\n  tag_22\n  jump\t// in\ntag_77:\n    /* \"#utility.yul\":4297:4298   */\n  0x00\n    /* \"#utility.yul\":4321:4325   */\n  0x20\n    /* \"#utility.yul\":4308:4325   */\n  swap1\n  pop\n    /* \"#utility.yul\":4353:4355   */\n  0x1f\n    /* \"#utility.yul\":4345:4351   */\n  dup4\n    /* \"#utility.yul\":4342:4356   */\n  gt\n    /* \"#utility.yul\":4370:4371   */\n  0x01\n    /* \"#utility.yul\":4365:4983   */\n  dup2\n  eq\n  tag_79\n  jumpi\n    /* \"#utility.yul\":5027:5028   */\n  0x00\n    /* \"#utility.yul\":5044:5050   */\n  dup5\n    /* \"#utility.yul\":5041:5118   */\n  iszero\n  tag_80\n  jumpi\n    /* \"#utility.yul\":5093:5102   */\n  dup3\n    /* \"#utility.yul\":5088:5091   */\n  dup8\n    /* \"#utility.yul\":5084:5103   */\n  add\n    /* \"#utility.yul\":5078:5104   */\n  mload\n    /* \"#utility.yul\":5069:5104   */\n  swap1\n  pop\n    /* \"#utility.yul\":5041:5118   */\ntag_80:\n    /* \"#utility.yul\":5144:5211   */\n  tag_81\n    /* \"#utility.yul\":5204:5210   */\n  dup6\n    /* \"#utility.yul\":5197:5202   */\n  dup3\n    /* \"#utility.yul\":5144:5211   */\n  tag_25\n  jump\t// in\ntag_81:\n    /* \"#utility.yul\":5138:5142   */\n  dup7\n    /* \"#utility.yul\":5131:5212   */\n  sstore\n    /* \"#utility.yul\":5000:5222   */\n  pop\n    /* \"#utility.yul\":4335:5222   */\n  jump(tag_78)\n    /* \"#utility.yul\":4365:4983   */\ntag_79:\n    /* \"#utility.yul\":4417:4421   */\n  0x1f\n    /* \"#utility.yul\":4413:4422   */\n  not\n    /* \"#utility.yul\":4405:4411   */\n  dup5\n    /* \"#utility.yul\":4401:4423   */\n  and\n    /* \"#utility.yul\":4451:4488   */\n  tag_82\n    /* \"#utility.yul\":4483:4487   */\n  dup7\n    /* \"#utility.yul\":4451:4488   */\n  tag_10\n  jump\t// in\ntag_82:\n    /* \"#utility.yul\":4510:4511   */\n  0x00\n    /* \"#utility.yul\":4524:4732   */\ntag_83:\n    /* \"#utility.yul\":4538:4545   */\n  dup3\n    /* \"#utility.yul\":4535:4536   */\n  dup2\n    /* \"#utility.yul\":4532:4546   */\n  lt\n    /* \"#utility.yul\":4524:4732   */\n  iszero\n  tag_85\n  jumpi\n    /* \"#utility.yul\":4617:4626   */\n  dup5\n    /* \"#utility.yul\":4612:4615   */\n  dup10\n    /* \"#utility.yul\":4608:4627   */\n  add\n    /* \"#utility.yul\":4602:4628   */\n  mload\n    /* \"#utility.yul\":4594:4600   */\n  dup3\n    /* \"#utility.yul\":4587:4629   */\n  sstore\n    /* \"#utility.yul\":4668:4669   */\n  0x01\n    /* \"#utility.yul\":4660:4666   */\n  dup3\n    /* \"#utility.yul\":4656:4670   */\n  add\n    /* \"#utility.yul\":4646:4670   */\n  swap2\n  pop\n    /* \"#utility.yul\":4715:4717   */\n  0x20\n    /* \"#utility.yul\":4704:4713   */\n  dup6\n    /* \"#utility.yul\":4700:4718   */\n  add\n    /* \"#utility.yul\":4687:4718   */\n  swap5\n  pop\n    /* \"#utility.yul\":4561:4565   */\n  0x20\n    /* \"#utility.yul\":4558:4559   */\n  dup2\n    /* \"#utility.yul\":4554:4566   */\n  add\n    /* \"#utility.yul\":4549:4566   */\n  swap1\n  pop\n    /* \"#utility.yul\":4524:4732   */\n  jump(tag_83)\ntag_85:\n    /* \"#utility.yul\":4760:4766   */\n  dup7\n    /* \"#utility.yul\":4751:4758   */\n  dup4\n    /* \"#utility.yul\":4748:4767   */\n  lt\n    /* \"#utility.yul\":4745:4924   */\n  iszero\n  tag_86\n  jumpi\n    /* \"#utility.yul\":4818:4827   */\n  dup5\n    /* \"#utility.yul\":4813:4816   */\n  dup10\n    /* \"#utility.yul\":4809:4828   */\n  add\n    /* \"#utility.yul\":4803:4829   */\n  mload\n    /* \"#utility.yul\":4861:4909   */\n  tag_87\n    /* \"#utility.yul\":4903:4907   */\n  0x1f\n    /* \"#utility.yul\":4895:4901   */\n  dup10\n    /* \"#utility.yul\":4891:4908   */\n  and\n    /* \"#utility.yul\":4880:4889   */\n  dup3\n    /* \"#utility.yul\":4861:4909   */\n  tag_24\n  jump\t// in\ntag_87:\n    /* \"#utility.yul\":4853:4859   */\n  dup4\n    /* \"#utility.yul\":4846:4910   */\n  sstore\n    /* \"#utility.yul\":4768:4924   */\n  pop\n    /* \"#utility.yul\":4745:4924   */\ntag_86:\n    /* \"#utility.yul\":4970:4971   */\n  0x01\n    /* \"#utility.yul\":4966:4967   */\n  0x02\n    /* \"#utility.yul\":4958:4964   */\n  dup9\n    /* \"#utility.yul\":4954:4968   */\n  mul\n    /* \"#utility.yul\":4950:4972   */\n  add\n    /* \"#utility.yul\":4944:4948   */\n  dup9\n    /* \"#utility.yul\":4937:4973   */\n  sstore\n    /* \"#utility.yul\":4372:4983   */\n  pop\n  pop\n  pop\n    /* \"#utility.yul\":4335:5222   */\ntag_78:\n  pop\n    /* \"#utility.yul\":3925:5228   */\n  pop\n  pop\n  pop\n    /* \"#utility.yul\":3833:5228   */\n  pop\n  pop\n  jump\t// out\n    /* \"Bu\\xe1\\xbb\\x95i 18/Struct/Demo.sol\":60:747  contract Struct {... */\ntag_5:\n  dataSize(sub_0)\n  dup1\n  dataOffset(sub_0)\n  0x00\n  codecopy\n  0x00\n  return\nstop\n\nsub_0: assembly {\n        /* \"Bu\\xe1\\xbb\\x95i 18/Struct/Demo.sol\":60:747  contract Struct {... */\n      mstore(0x40, 0x80)\n      callvalue\n      dup1\n      iszero\n      tag_1\n      jumpi\n      0x00\n      dup1\n      revert\n    tag_1:\n      pop\n      jumpi(tag_2, lt(calldatasize, 0x04))\n      shr(0xe0, calldataload(0x00))\n      dup1\n      0x1c977b41\n      eq\n      tag_3\n      jumpi\n      dup1\n      0xb87f86b7\n      eq\n      tag_4\n      jumpi\n      dup1\n      0xf3ebb82d\n      eq\n      tag_5\n      jumpi\n    tag_2:\n      0x00\n      dup1\n      revert\n        /* \"Bu\\xe1\\xbb\\x95i 18/Struct/Demo.sol\":466:625  function animal_new() public view returns(string memory , string memory , bool , uint ){... */\n    tag_3:\n      tag_6\n      tag_7\n      jump\t// in\n    tag_6:\n      mload(0x40)\n      tag_8\n      swap5\n      swap4\n      swap3\n      swap2\n      swap1\n      tag_9\n      jump\t// in\n    tag_8:\n      mload(0x40)\n      dup1\n      swap2\n      sub\n      swap1\n      return\n        /* \"Bu\\xe1\\xbb\\x95i 18/Struct/Demo.sol\":634:744  function get_details() public view returns (string memory, uint) {... */\n    tag_4:\n      tag_10\n      tag_11\n      jump\t// in\n    tag_10:\n      mload(0x40)\n      tag_12\n      swap3\n      swap2\n      swap1\n      tag_13\n      jump\t// in\n    tag_12:\n      mload(0x40)\n      dup1\n      swap2\n      sub\n      swap1\n      return\n        /* \"Bu\\xe1\\xbb\\x95i 18/Struct/Demo.sol\":322:453  function set_animal_demo() public {... */\n    tag_5:\n      tag_14\n      tag_15\n      jump\t// in\n    tag_14:\n      stop\n        /* \"Bu\\xe1\\xbb\\x95i 18/Struct/Demo.sol\":466:625  function animal_new() public view returns(string memory , string memory , bool , uint ){... */\n    tag_7:\n        /* \"Bu\\xe1\\xbb\\x95i 18/Struct/Demo.sol\":508:521  string memory */\n      0x60\n        /* \"Bu\\xe1\\xbb\\x95i 18/Struct/Demo.sol\":524:537  string memory */\n      dup1\n        /* \"Bu\\xe1\\xbb\\x95i 18/Struct/Demo.sol\":540:544  bool */\n      0x00\n        /* \"Bu\\xe1\\xbb\\x95i 18/Struct/Demo.sol\":547:551  uint */\n      dup1\n        /* \"Bu\\xe1\\xbb\\x95i 18/Struct/Demo.sol\":567:574  animal2 */\n      0x04\n        /* \"Bu\\xe1\\xbb\\x95i 18/Struct/Demo.sol\":567:579  animal2.name */\n      0x00\n      add\n        /* \"Bu\\xe1\\xbb\\x95i 18/Struct/Demo.sol\":582:589  animal2 */\n      0x04\n        /* \"Bu\\xe1\\xbb\\x95i 18/Struct/Demo.sol\":582:594  animal2.year */\n      0x01\n      add\n        /* \"Bu\\xe1\\xbb\\x95i 18/Struct/Demo.sol\":596:603  animal2 */\n      0x04\n        /* \"Bu\\xe1\\xbb\\x95i 18/Struct/Demo.sol\":596:607  animal2.eat */\n      0x03\n      add\n      0x00\n      swap1\n      sload\n      swap1\n      0x0100\n      exp\n      swap1\n      div\n      0xff\n      and\n        /* \"Bu\\xe1\\xbb\\x95i 18/Struct/Demo.sol\":609:616  animal2 */\n      0x04\n        /* \"Bu\\xe1\\xbb\\x95i 18/Struct/Demo.sol\":609:620  animal2.run */\n      0x02\n      add\n      sload\n        /* \"Bu\\xe1\\xbb\\x95i 18/Struct/Demo.sol\":560:621  return(animal2.name , animal2.year, animal2.eat, animal2.run) */\n      dup4\n      dup1\n      sload\n      tag_17\n      swap1\n      tag_18\n      jump\t// in\n    tag_17:\n      dup1\n      0x1f\n      add\n      0x20\n      dup1\n      swap2\n      div\n      mul\n      0x20\n      add\n      mload(0x40)\n      swap1\n      dup2\n      add\n      0x40\n      mstore\n      dup1\n      swap3\n      swap2\n      swap1\n      dup2\n      dup2\n      mstore\n      0x20\n      add\n      dup3\n      dup1\n      sload\n      tag_19\n      swap1\n      tag_18\n      jump\t// in\n    tag_19:\n      dup1\n      iszero\n      tag_20\n      jumpi\n      dup1\n      0x1f\n      lt\n      tag_21\n      jumpi\n      0x0100\n      dup1\n      dup4\n      sload\n      div\n      mul\n      dup4\n      mstore\n      swap2\n      0x20\n      add\n      swap2\n      jump(tag_20)\n    tag_21:\n      dup3\n      add\n      swap2\n      swap1\n      0x00\n      mstore\n      keccak256(0x00, 0x20)\n      swap1\n    tag_22:\n      dup2\n      sload\n      dup2\n      mstore\n      swap1\n      0x01\n      add\n      swap1\n      0x20\n      add\n      dup1\n      dup4\n      gt\n      tag_22\n      jumpi\n      dup3\n      swap1\n      sub\n      0x1f\n      and\n      dup3\n      add\n      swap2\n    tag_20:\n      pop\n      pop\n      pop\n      pop\n      pop\n      swap4\n      pop\n      dup3\n      dup1\n      sload\n      tag_23\n      swap1\n      tag_18\n      jump\t// in\n    tag_23:\n      dup1\n      0x1f\n      add\n      0x20\n      dup1\n      swap2\n      div\n      mul\n      0x20\n      add\n      mload(0x40)\n      swap1\n      dup2\n      add\n      0x40\n      mstore\n      dup1\n      swap3\n      swap2\n      swap1\n      dup2\n      dup2\n      mstore\n      0x20\n      add\n      dup3\n      dup1\n      sload\n      tag_24\n      swap1\n      tag_18\n      jump\t// in\n    tag_24:\n      dup1\n      iszero\n      tag_25\n      jumpi\n      dup1\n      0x1f\n      lt\n      tag_26\n      jumpi\n      0x0100\n      dup1\n      dup4\n      sload\n      div\n      mul\n      dup4\n      mstore\n      swap2\n      0x20\n      add\n      swap2\n      jump(tag_25)\n    tag_26:\n      dup3\n      add\n      swap2\n      swap1\n      0x00\n      mstore\n      keccak256(0x00, 0x20)\n      swap1\n    tag_27:\n      dup2\n      sload\n      dup2\n      mstore\n      swap1\n      0x01\n      add\n      swap1\n      0x20\n      add\n      dup1\n      dup4\n      gt\n      tag_27\n      jumpi\n      dup3\n      swap1\n      sub\n      0x1f\n      and\n      dup3\n      add\n      swap2\n    tag_25:\n      pop\n      pop\n      pop\n      pop\n      pop\n      swap3\n      pop\n      swap4\n      pop\n      swap4\n      pop\n      swap4\n      pop\n      swap4\n      pop\n        /* \"Bu\\xe1\\xbb\\x95i 18/Struct/Demo.sol\":466:625  function animal_new() public view returns(string memory , string memory , bool , uint ){... */\n      swap1\n      swap2\n      swap3\n      swap4\n      jump\t// out\n        /* \"Bu\\xe1\\xbb\\x95i 18/Struct/Demo.sol\":634:744  function get_details() public view returns (string memory, uint) {... */\n    tag_11:\n        /* \"Bu\\xe1\\xbb\\x95i 18/Struct/Demo.sol\":678:691  string memory */\n      0x60\n        /* \"Bu\\xe1\\xbb\\x95i 18/Struct/Demo.sol\":693:697  uint */\n      0x00\n        /* \"Bu\\xe1\\xbb\\x95i 18/Struct/Demo.sol\":714:721  animal1 */\n      dup1\n        /* \"Bu\\xe1\\xbb\\x95i 18/Struct/Demo.sol\":714:726  animal1.name */\n      0x00\n      add\n        /* \"Bu\\xe1\\xbb\\x95i 18/Struct/Demo.sol\":728:735  animal1 */\n      0x00\n        /* \"Bu\\xe1\\xbb\\x95i 18/Struct/Demo.sol\":728:739  animal1.run */\n      0x02\n      add\n      sload\n        /* \"Bu\\xe1\\xbb\\x95i 18/Struct/Demo.sol\":706:740  return (animal1.name, animal1.run) */\n      dup2\n      dup1\n      sload\n      tag_29\n      swap1\n      tag_18\n      jump\t// in\n    tag_29:\n      dup1\n      0x1f\n      add\n      0x20\n      dup1\n      swap2\n      div\n      mul\n      0x20\n      add\n      mload(0x40)\n      swap1\n      dup2\n      add\n      0x40\n      mstore\n      dup1\n      swap3\n      swap2\n      swap1\n      dup2\n      dup2\n      mstore\n      0x20\n      add\n      dup3\n      dup1\n      sload\n      tag_30\n      swap1\n      tag_18\n      jump\t// in\n    tag_30:\n      dup1\n      iszero\n      tag_31\n      jumpi\n      dup1\n      0x1f\n      lt\n      tag_32\n      jumpi\n      0x0100\n      dup1\n      dup4\n      sload\n      div\n      mul\n      dup4\n      mstore\n      swap2\n      0x20\n      add\n      swap2\n      jump(tag_31)\n    tag_32:\n      dup3\n      add\n      swap2\n      swap1\n      0x00\n      mstore\n      keccak256(0x00, 0x20)\n      swap1\n    tag_33:\n      dup2\n      sload\n      dup2\n      mstore\n      swap1\n      0x01\n      add\n      swap1\n      0x20\n      add\n      dup1\n      dup4\n      gt\n      tag_33\n      jumpi\n      dup3\n      swap1\n      sub\n      0x1f\n      and\n      dup3\n      add\n      swap2\n    tag_31:\n      pop\n      pop\n      pop\n      pop\n      pop\n      swap2\n      pop\n      swap2\n      pop\n      swap2\n      pop\n        /* \"Bu\\xe1\\xbb\\x95i 18/Struct/Demo.sol\":634:744  function get_details() public view returns (string memory, uint) {... */\n      swap1\n      swap2\n      jump\t// out\n        /* \"Bu\\xe1\\xbb\\x95i 18/Struct/Demo.sol\":322:453  function set_animal_demo() public {... */\n    tag_15:\n        /* \"Bu\\xe1\\xbb\\x95i 18/Struct/Demo.sol\":385:437  Animal(\"an uong ngu nghi\",\"chay nhay \", 1  ,  true ) */\n      mload(0x40)\n      dup1\n      0x80\n      add\n      0x40\n      mstore\n      dup1\n      mload(0x40)\n      dup1\n      0x40\n      add\n      0x40\n      mstore\n      dup1\n      0x10\n      dup2\n      mstore\n      0x20\n      add\n      0x616e20756f6e67206e6775206e67686900000000000000000000000000000000\n      dup2\n      mstore\n      pop\n      dup2\n      mstore\n      0x20\n      add\n      mload(0x40)\n      dup1\n      0x40\n      add\n      0x40\n      mstore\n      dup1\n      0x0a\n      dup2\n      mstore\n      0x20\n      add\n      0x63686179206e6861792000000000000000000000000000000000000000000000\n      dup2\n      mstore\n      pop\n      dup2\n      mstore\n      0x20\n      add\n        /* \"Bu\\xe1\\xbb\\x95i 18/Struct/Demo.sol\":425:426  1 */\n      0x01\n        /* \"Bu\\xe1\\xbb\\x95i 18/Struct/Demo.sol\":385:437  Animal(\"an uong ngu nghi\",\"chay nhay \", 1  ,  true ) */\n      dup2\n      mstore\n      0x20\n      add\n        /* \"Bu\\xe1\\xbb\\x95i 18/Struct/Demo.sol\":431:435  true */\n      0x01\n        /* \"Bu\\xe1\\xbb\\x95i 18/Struct/Demo.sol\":385:437  Animal(\"an uong ngu nghi\",\"chay nhay \", 1  ,  true ) */\n      iszero\n      iszero\n      dup2\n      mstore\n      pop\n        /* \"Bu\\xe1\\xbb\\x95i 18/Struct/Demo.sol\":375:382  animal1 */\n      0x00\n        /* \"Bu\\xe1\\xbb\\x95i 18/Struct/Demo.sol\":375:437  animal1 = Animal(\"an uong ngu nghi\",\"chay nhay \", 1  ,  true ) */\n      dup1\n      dup3\n      add\n      mload\n      dup2\n      0x00\n      add\n      swap1\n      dup2\n      tag_35\n      swap2\n      swap1\n      tag_36\n      jump\t// in\n    tag_35:\n      pop\n      0x20\n      dup3\n      add\n      mload\n      dup2\n      0x01\n      add\n      swap1\n      dup2\n      tag_37\n      swap2\n      swap1\n      tag_36\n      jump\t// in\n    tag_37:\n      pop\n      0x40\n      dup3\n      add\n      mload\n      dup2\n      0x02\n      add\n      sstore\n      0x60\n      dup3\n      add\n      mload\n      dup2\n      0x03\n      add\n      exp(0x0100, 0x00)\n      dup2\n      sload\n      dup2\n      0xff\n      mul\n      not\n      and\n      swap1\n      dup4\n      iszero\n      iszero\n      mul\n      or\n      swap1\n      sstore\n      pop\n      swap1\n      pop\n      pop\n        /* \"Bu\\xe1\\xbb\\x95i 18/Struct/Demo.sol\":322:453  function set_animal_demo() public {... */\n      jump\t// out\n        /* \"#utility.yul\":7:106   */\n    tag_38:\n        /* \"#utility.yul\":59:65   */\n      0x00\n        /* \"#utility.yul\":93:98   */\n      dup2\n        /* \"#utility.yul\":87:99   */\n      mload\n        /* \"#utility.yul\":77:99   */\n      swap1\n      pop\n        /* \"#utility.yul\":7:106   */\n      swap2\n      swap1\n      pop\n      jump\t// out\n        /* \"#utility.yul\":112:281   */\n    tag_39:\n        /* \"#utility.yul\":196:207   */\n      0x00\n        /* \"#utility.yul\":230:236   */\n      dup3\n        /* \"#utility.yul\":225:228   */\n      dup3\n        /* \"#utility.yul\":218:237   */\n      mstore\n        /* \"#utility.yul\":270:274   */\n      0x20\n        /* \"#utility.yul\":265:268   */\n      dup3\n        /* \"#utility.yul\":261:275   */\n      add\n        /* \"#utility.yul\":246:275   */\n      swap1\n      pop\n        /* \"#utility.yul\":112:281   */\n      swap3\n      swap2\n      pop\n      pop\n      jump\t// out\n        /* \"#utility.yul\":287:533   */\n    tag_40:\n        /* \"#utility.yul\":368:369   */\n      0x00\n        /* \"#utility.yul\":378:491   */\n    tag_68:\n        /* \"#utility.yul\":392:398   */\n      dup4\n        /* \"#utility.yul\":389:390   */\n      dup2\n        /* \"#utility.yul\":386:399   */\n      lt\n        /* \"#utility.yul\":378:491   */\n      iszero\n      tag_70\n      jumpi\n        /* \"#utility.yul\":477:478   */\n      dup1\n        /* \"#utility.yul\":472:475   */\n      dup3\n        /* \"#utility.yul\":468:479   */\n      add\n        /* \"#utility.yul\":462:480   */\n      mload\n        /* \"#utility.yul\":458:459   */\n      dup2\n        /* \"#utility.yul\":453:456   */\n      dup5\n        /* \"#utility.yul\":449:460   */\n      add\n        /* \"#utility.yul\":442:481   */\n      mstore\n        /* \"#utility.yul\":414:416   */\n      0x20\n        /* \"#utility.yul\":411:412   */\n      dup2\n        /* \"#utility.yul\":407:417   */\n      add\n        /* \"#utility.yul\":402:417   */\n      swap1\n      pop\n        /* \"#utility.yul\":378:491   */\n      jump(tag_68)\n    tag_70:\n        /* \"#utility.yul\":525:526   */\n      0x00\n        /* \"#utility.yul\":516:522   */\n      dup5\n        /* \"#utility.yul\":511:514   */\n      dup5\n        /* \"#utility.yul\":507:523   */\n      add\n        /* \"#utility.yul\":500:527   */\n      mstore\n        /* \"#utility.yul\":349:533   */\n      pop\n        /* \"#utility.yul\":287:533   */\n      pop\n      pop\n      pop\n      jump\t// out\n        /* \"#utility.yul\":539:641   */\n    tag_41:\n        /* \"#utility.yul\":580:586   */\n      0x00\n        /* \"#utility.yul\":631:633   */\n      0x1f\n        /* \"#utility.yul\":627:634   */\n      not\n        /* \"#utility.yul\":622:624   */\n      0x1f\n        /* \"#utility.yul\":615:620   */\n      dup4\n        /* \"#utility.yul\":611:625   */\n      add\n        /* \"#utility.yul\":607:635   */\n      and\n        /* \"#utility.yul\":597:635   */\n      swap1\n      pop\n        /* \"#utility.yul\":539:641   */\n      swap2\n      swap1\n      pop\n      jump\t// out\n        /* \"#utility.yul\":647:1024   */\n    tag_42:\n        /* \"#utility.yul\":735:738   */\n      0x00\n        /* \"#utility.yul\":763:802   */\n      tag_73\n        /* \"#utility.yul\":796:801   */\n      dup3\n        /* \"#utility.yul\":763:802   */\n      tag_38\n      jump\t// in\n    tag_73:\n        /* \"#utility.yul\":818:889   */\n      tag_74\n        /* \"#utility.yul\":882:888   */\n      dup2\n        /* \"#utility.yul\":877:880   */\n      dup6\n        /* \"#utility.yul\":818:889   */\n      tag_39\n      jump\t// in\n    tag_74:\n        /* \"#utility.yul\":811:889   */\n      swap4\n      pop\n        /* \"#utility.yul\":898:963   */\n      tag_75\n        /* \"#utility.yul\":956:962   */\n      dup2\n        /* \"#utility.yul\":951:954   */\n      dup6\n        /* \"#utility.yul\":944:948   */\n      0x20\n        /* \"#utility.yul\":937:942   */\n      dup7\n        /* \"#utility.yul\":933:949   */\n      add\n        /* \"#utility.yul\":898:963   */\n      tag_40\n      jump\t// in\n    tag_75:\n        /* \"#utility.yul\":988:1017   */\n      tag_76\n        /* \"#utility.yul\":1010:1016   */\n      dup2\n        /* \"#utility.yul\":988:1017   */\n      tag_41\n      jump\t// in\n    tag_76:\n        /* \"#utility.yul\":983:986   */\n      dup5\n        /* \"#utility.yul\":979:1018   */\n      add\n        /* \"#utility.yul\":972:1018   */\n      swap2\n      pop\n        /* \"#utility.yul\":739:1024   */\n      pop\n        /* \"#utility.yul\":647:1024   */\n      swap3\n      swap2\n      pop\n      pop\n      jump\t// out\n        /* \"#utility.yul\":1030:1120   */\n    tag_43:\n        /* \"#utility.yul\":1064:1071   */\n      0x00\n        /* \"#utility.yul\":1107:1112   */\n      dup2\n        /* \"#utility.yul\":1100:1113   */\n      iszero\n        /* \"#utility.yul\":1093:1114   */\n      iszero\n        /* \"#utility.yul\":1082:1114   */\n      swap1\n      pop\n        /* \"#utility.yul\":1030:1120   */\n      swap2\n      swap1\n      pop\n      jump\t// out\n        /* \"#utility.yul\":1126:1235   */\n    tag_44:\n        /* \"#utility.yul\":1207:1228   */\n      tag_79\n        /* \"#utility.yul\":1222:1227   */\n      dup2\n        /* \"#utility.yul\":1207:1228   */\n      tag_43\n      jump\t// in\n    tag_79:\n        /* \"#utility.yul\":1202:1205   */\n      dup3\n        /* \"#utility.yul\":1195:1229   */\n      mstore\n        /* \"#utility.yul\":1126:1235   */\n      pop\n      pop\n      jump\t// out\n        /* \"#utility.yul\":1241:1318   */\n    tag_45:\n        /* \"#utility.yul\":1278:1285   */\n      0x00\n        /* \"#utility.yul\":1307:1312   */\n      dup2\n        /* \"#utility.yul\":1296:1312   */\n      swap1\n      pop\n        /* \"#utility.yul\":1241:1318   */\n      swap2\n      swap1\n      pop\n      jump\t// out\n        /* \"#utility.yul\":1324:1442   */\n    tag_46:\n        /* \"#utility.yul\":1411:1435   */\n      tag_82\n        /* \"#utility.yul\":1429:1434   */\n      dup2\n        /* \"#utility.yul\":1411:1435   */\n      tag_45\n      jump\t// in\n    tag_82:\n        /* \"#utility.yul\":1406:1409   */\n      dup3\n        /* \"#utility.yul\":1399:1436   */\n      mstore\n        /* \"#utility.yul\":1324:1442   */\n      pop\n      pop\n      jump\t// out\n        /* \"#utility.yul\":1448:2171   */\n    tag_9:\n        /* \"#utility.yul\":1659:1663   */\n      0x00\n        /* \"#utility.yul\":1697:1700   */\n      0x80\n        /* \"#utility.yul\":1686:1695   */\n      dup3\n        /* \"#utility.yul\":1682:1701   */\n      add\n        /* \"#utility.yul\":1674:1701   */\n      swap1\n      pop\n        /* \"#utility.yul\":1747:1756   */\n      dup2\n        /* \"#utility.yul\":1741:1745   */\n      dup2\n        /* \"#utility.yul\":1737:1757   */\n      sub\n        /* \"#utility.yul\":1733:1734   */\n      0x00\n        /* \"#utility.yul\":1722:1731   */\n      dup4\n        /* \"#utility.yul\":1718:1735   */\n      add\n        /* \"#utility.yul\":1711:1758   */\n      mstore\n        /* \"#utility.yul\":1775:1853   */\n      tag_84\n        /* \"#utility.yul\":1848:1852   */\n      dup2\n        /* \"#utility.yul\":1839:1845   */\n      dup8\n        /* \"#utility.yul\":1775:1853   */\n      tag_42\n      jump\t// in\n    tag_84:\n        /* \"#utility.yul\":1767:1853   */\n      swap1\n      pop\n        /* \"#utility.yul\":1900:1909   */\n      dup2\n        /* \"#utility.yul\":1894:1898   */\n      dup2\n        /* \"#utility.yul\":1890:1910   */\n      sub\n        /* \"#utility.yul\":1885:1887   */\n      0x20\n        /* \"#utility.yul\":1874:1883   */\n      dup4\n        /* \"#utility.yul\":1870:1888   */\n      add\n        /* \"#utility.yul\":1863:1911   */\n      mstore\n        /* \"#utility.yul\":1928:2006   */\n      tag_85\n        /* \"#utility.yul\":2001:2005   */\n      dup2\n        /* \"#utility.yul\":1992:1998   */\n      dup7\n        /* \"#utility.yul\":1928:2006   */\n      tag_42\n      jump\t// in\n    tag_85:\n        /* \"#utility.yul\":1920:2006   */\n      swap1\n      pop\n        /* \"#utility.yul\":2016:2082   */\n      tag_86\n        /* \"#utility.yul\":2078:2080   */\n      0x40\n        /* \"#utility.yul\":2067:2076   */\n      dup4\n        /* \"#utility.yul\":2063:2081   */\n      add\n        /* \"#utility.yul\":2054:2060   */\n      dup6\n        /* \"#utility.yul\":2016:2082   */\n      tag_44\n      jump\t// in\n    tag_86:\n        /* \"#utility.yul\":2092:2164   */\n      tag_87\n        /* \"#utility.yul\":2160:2162   */\n      0x60\n        /* \"#utility.yul\":2149:2158   */\n      dup4\n        /* \"#utility.yul\":2145:2163   */\n      add\n        /* \"#utility.yul\":2136:2142   */\n      dup5\n        /* \"#utility.yul\":2092:2164   */\n      tag_46\n      jump\t// in\n    tag_87:\n        /* \"#utility.yul\":1448:2171   */\n      swap6\n      swap5\n      pop\n      pop\n      pop\n      pop\n      pop\n      jump\t// out\n        /* \"#utility.yul\":2177:2600   */\n    tag_13:\n        /* \"#utility.yul\":2318:2322   */\n      0x00\n        /* \"#utility.yul\":2356:2358   */\n      0x40\n        /* \"#utility.yul\":2345:2354   */\n      dup3\n        /* \"#utility.yul\":2341:2359   */\n      add\n        /* \"#utility.yul\":2333:2359   */\n      swap1\n      pop\n        /* \"#utility.yul\":2405:2414   */\n      dup2\n        /* \"#utility.yul\":2399:2403   */\n      dup2\n        /* \"#utility.yul\":2395:2415   */\n      sub\n        /* \"#utility.yul\":2391:2392   */\n      0x00\n        /* \"#utility.yul\":2380:2389   */\n      dup4\n        /* \"#utility.yul\":2376:2393   */\n      add\n        /* \"#utility.yul\":2369:2416   */\n      mstore\n        /* \"#utility.yul\":2433:2511   */\n      tag_89\n        /* \"#utility.yul\":2506:2510   */\n      dup2\n        /* \"#utility.yul\":2497:2503   */\n      dup6\n        /* \"#utility.yul\":2433:2511   */\n      tag_42\n      jump\t// in\n    tag_89:\n        /* \"#utility.yul\":2425:2511   */\n      swap1\n      pop\n        /* \"#utility.yul\":2521:2593   */\n      tag_90\n        /* \"#utility.yul\":2589:2591   */\n      0x20\n        /* \"#utility.yul\":2578:2587   */\n      dup4\n        /* \"#utility.yul\":2574:2592   */\n      add\n        /* \"#utility.yul\":2565:2571   */\n      dup5\n        /* \"#utility.yul\":2521:2593   */\n      tag_46\n      jump\t// in\n    tag_90:\n        /* \"#utility.yul\":2177:2600   */\n      swap4\n      swap3\n      pop\n      pop\n      pop\n      jump\t// out\n        /* \"#utility.yul\":2606:2786   */\n    tag_47:\n        /* \"#utility.yul\":2654:2731   */\n      0x4e487b7100000000000000000000000000000000000000000000000000000000\n        /* \"#utility.yul\":2651:2652   */\n      0x00\n        /* \"#utility.yul\":2644:2732   */\n      mstore\n        /* \"#utility.yul\":2751:2755   */\n      0x22\n        /* \"#utility.yul\":2748:2749   */\n      0x04\n        /* \"#utility.yul\":2741:2756   */\n      mstore\n        /* \"#utility.yul\":2775:2779   */\n      0x24\n        /* \"#utility.yul\":2772:2773   */\n      0x00\n        /* \"#utility.yul\":2765:2780   */\n      revert\n        /* \"#utility.yul\":2792:3112   */\n    tag_18:\n        /* \"#utility.yul\":2836:2842   */\n      0x00\n        /* \"#utility.yul\":2873:2874   */\n      0x02\n        /* \"#utility.yul\":2867:2871   */\n      dup3\n        /* \"#utility.yul\":2863:2875   */\n      div\n        /* \"#utility.yul\":2853:2875   */\n      swap1\n      pop\n        /* \"#utility.yul\":2920:2921   */\n      0x01\n        /* \"#utility.yul\":2914:2918   */\n      dup3\n        /* \"#utility.yul\":2910:2922   */\n      and\n        /* \"#utility.yul\":2941:2959   */\n      dup1\n        /* \"#utility.yul\":2931:3012   */\n      tag_93\n      jumpi\n        /* \"#utility.yul\":2997:3001   */\n      0x7f\n        /* \"#utility.yul\":2989:2995   */\n      dup3\n        /* \"#utility.yul\":2985:3002   */\n      and\n        /* \"#utility.yul\":2975:3002   */\n      swap2\n      pop\n        /* \"#utility.yul\":2931:3012   */\n    tag_93:\n        /* \"#utility.yul\":3059:3061   */\n      0x20\n        /* \"#utility.yul\":3051:3057   */\n      dup3\n        /* \"#utility.yul\":3048:3062   */\n      lt\n        /* \"#utility.yul\":3028:3046   */\n      dup2\n        /* \"#utility.yul\":3025:3063   */\n      sub\n        /* \"#utility.yul\":3022:3106   */\n      tag_94\n      jumpi\n        /* \"#utility.yul\":3078:3096   */\n      tag_95\n      tag_47\n      jump\t// in\n    tag_95:\n        /* \"#utility.yul\":3022:3106   */\n    tag_94:\n        /* \"#utility.yul\":2843:3112   */\n      pop\n        /* \"#utility.yul\":2792:3112   */\n      swap2\n      swap1\n      pop\n      jump\t// out\n        /* \"#utility.yul\":3118:3298   */\n    tag_48:\n        /* \"#utility.yul\":3166:3243   */\n      0x4e487b7100000000000000000000000000000000000000000000000000000000\n        /* \"#utility.yul\":3163:3164   */\n      0x00\n        /* \"#utility.yul\":3156:3244   */\n      mstore\n        /* \"#utility.yul\":3263:3267   */\n      0x41\n        /* \"#utility.yul\":3260:3261   */\n      0x04\n        /* \"#utility.yul\":3253:3268   */\n      mstore\n        /* \"#utility.yul\":3287:3291   */\n      0x24\n        /* \"#utility.yul\":3284:3285   */\n      0x00\n        /* \"#utility.yul\":3277:3292   */\n      revert\n        /* \"#utility.yul\":3304:3445   */\n    tag_49:\n        /* \"#utility.yul\":3353:3357   */\n      0x00\n        /* \"#utility.yul\":3376:3379   */\n      dup2\n        /* \"#utility.yul\":3368:3379   */\n      swap1\n      pop\n        /* \"#utility.yul\":3399:3402   */\n      dup2\n        /* \"#utility.yul\":3396:3397   */\n      0x00\n        /* \"#utility.yul\":3389:3403   */\n      mstore\n        /* \"#utility.yul\":3433:3437   */\n      0x20\n        /* \"#utility.yul\":3430:3431   */\n      0x00\n        /* \"#utility.yul\":3420:3438   */\n      keccak256\n        /* \"#utility.yul\":3412:3438   */\n      swap1\n      pop\n        /* \"#utility.yul\":3304:3445   */\n      swap2\n      swap1\n      pop\n      jump\t// out\n        /* \"#utility.yul\":3451:3544   */\n    tag_50:\n        /* \"#utility.yul\":3488:3494   */\n      0x00\n        /* \"#utility.yul\":3535:3537   */\n      0x20\n        /* \"#utility.yul\":3530:3532   */\n      0x1f\n        /* \"#utility.yul\":3523:3528   */\n      dup4\n        /* \"#utility.yul\":3519:3533   */\n      add\n        /* \"#utility.yul\":3515:3538   */\n      div\n        /* \"#utility.yul\":3505:3538   */\n      swap1\n      pop\n        /* \"#utility.yul\":3451:3544   */\n      swap2\n      swap1\n      pop\n      jump\t// out\n        /* \"#utility.yul\":3550:3657   */\n    tag_51:\n        /* \"#utility.yul\":3594:3602   */\n      0x00\n        /* \"#utility.yul\":3644:3649   */\n      dup3\n        /* \"#utility.yul\":3638:3642   */\n      dup3\n        /* \"#utility.yul\":3634:3650   */\n      shl\n        /* \"#utility.yul\":3613:3650   */\n      swap1\n      pop\n        /* \"#utility.yul\":3550:3657   */\n      swap3\n      swap2\n      pop\n      pop\n      jump\t// out\n        /* \"#utility.yul\":3663:4056   */\n    tag_52:\n        /* \"#utility.yul\":3732:3738   */\n      0x00\n        /* \"#utility.yul\":3782:3783   */\n      0x08\n        /* \"#utility.yul\":3770:3780   */\n      dup4\n        /* \"#utility.yul\":3766:3784   */\n      mul\n        /* \"#utility.yul\":3805:3902   */\n      tag_101\n        /* \"#utility.yul\":3835:3901   */\n      0xffffffffffffffffffffffffffffffffffffffffffffffffffffffffffffffff\n        /* \"#utility.yul\":3824:3833   */\n      dup3\n        /* \"#utility.yul\":3805:3902   */\n      tag_51\n      jump\t// in\n    tag_101:\n        /* \"#utility.yul\":3923:3962   */\n      tag_102\n        /* \"#utility.yul\":3953:3961   */\n      dup7\n        /* \"#utility.yul\":3942:3951   */\n      dup4\n        /* \"#utility.yul\":3923:3962   */\n      tag_51\n      jump\t// in\n    tag_102:\n        /* \"#utility.yul\":3911:3962   */\n      swap6\n      pop\n        /* \"#utility.yul\":3995:3999   */\n      dup1\n        /* \"#utility.yul\":3991:4000   */\n      not\n        /* \"#utility.yul\":3984:3989   */\n      dup5\n        /* \"#utility.yul\":3980:4001   */\n      and\n        /* \"#utility.yul\":3971:4001   */\n      swap4\n      pop\n        /* \"#utility.yul\":4044:4048   */\n      dup1\n        /* \"#utility.yul\":4034:4042   */\n      dup7\n        /* \"#utility.yul\":4030:4049   */\n      and\n        /* \"#utility.yul\":4023:4028   */\n      dup5\n        /* \"#utility.yul\":4020:4050   */\n      or\n        /* \"#utility.yul\":4010:4050   */\n      swap3\n      pop\n        /* \"#utility.yul\":3739:4056   */\n      pop\n      pop\n        /* \"#utility.yul\":3663:4056   */\n      swap4\n      swap3\n      pop\n      pop\n      pop\n      jump\t// out\n        /* \"#utility.yul\":4062:4122   */\n    tag_53:\n        /* \"#utility.yul\":4090:4093   */\n      0x00\n        /* \"#utility.yul\":4111:4116   */\n      dup2\n        /* \"#utility.yul\":4104:4116   */\n      swap1\n      pop\n        /* \"#utility.yul\":4062:4122   */\n      swap2\n      swap1\n      pop\n      jump\t// out\n        /* \"#utility.yul\":4128:4270   */\n    tag_54:\n        /* \"#utility.yul\":4178:4187   */\n      0x00\n        /* \"#utility.yul\":4211:4264   */\n      tag_105\n        /* \"#utility.yul\":4229:4263   */\n      tag_106\n        /* \"#utility.yul\":4238:4262   */\n      tag_107\n        /* \"#utility.yul\":4256:4261   */\n      dup5\n        /* \"#utility.yul\":4238:4262   */\n      tag_45\n      jump\t// in\n    tag_107:\n        /* \"#utility.yul\":4229:4263   */\n      tag_53\n      jump\t// in\n    tag_106:\n        /* \"#utility.yul\":4211:4264   */\n      tag_45\n      jump\t// in\n    tag_105:\n        /* \"#utility.yul\":4198:4264   */\n      swap1\n      pop\n        /* \"#utility.yul\":4128:4270   */\n      swap2\n      swap1\n      pop\n      jump\t// out\n        /* \"#utility.yul\":4276:4351   */\n    tag_55:\n        /* \"#utility.yul\":4319:4322   */\n      0x00\n        /* \"#utility.yul\":4340:4345   */\n      dup2\n        /* \"#utility.yul\":4333:4345   */\n      swap1\n      pop\n        /* \"#utility.yul\":4276:4351   */\n      swap2\n      swap1\n      pop\n      jump\t// out\n        /* \"#utility.yul\":4357:4626   */\n    tag_56:\n        /* \"#utility.yul\":4467:4506   */\n      tag_110\n        /* \"#utility.yul\":4498:4505   */\n      dup4\n        /* \"#utility.yul\":4467:4506   */\n      tag_54\n      jump\t// in\n    tag_110:\n        /* \"#utility.yul\":4528:4619   */\n      tag_111\n        /* \"#utility.yul\":4577:4618   */\n      tag_112\n        /* \"#utility.yul\":4601:4617   */\n      dup3\n        /* \"#utility.yul\":4577:4618   */\n      tag_55\n      jump\t// in\n    tag_112:\n        /* \"#utility.yul\":4569:4575   */\n      dup5\n        /* \"#utility.yul\":4562:4566   */\n      dup5\n        /* \"#utility.yul\":4556:4567   */\n      sload\n        /* \"#utility.yul\":4528:4619   */\n      tag_52\n      jump\t// in\n    tag_111:\n        /* \"#utility.yul\":4522:4526   */\n      dup3\n        /* \"#utility.yul\":4515:4620   */\n      sstore\n        /* \"#utility.yul\":4433:4626   */\n      pop\n        /* \"#utility.yul\":4357:4626   */\n      pop\n      pop\n      pop\n      jump\t// out\n        /* \"#utility.yul\":4632:4705   */\n    tag_57:\n        /* \"#utility.yul\":4677:4680   */\n      0x00\n        /* \"#utility.yul\":4632:4705   */\n      swap1\n      jump\t// out\n        /* \"#utility.yul\":4711:4900   */\n    tag_58:\n        /* \"#utility.yul\":4788:4820   */\n      tag_115\n      tag_57\n      jump\t// in\n    tag_115:\n        /* \"#utility.yul\":4829:4894   */\n      tag_116\n        /* \"#utility.yul\":4887:4893   */\n      dup2\n        /* \"#utility.yul\":4879:4885   */\n      dup5\n        /* \"#utility.yul\":4873:4877   */\n      dup5\n        /* \"#utility.yul\":4829:4894   */\n      tag_56\n      jump\t// in\n    tag_116:\n        /* \"#utility.yul\":4764:4900   */\n      pop\n        /* \"#utility.yul\":4711:4900   */\n      pop\n      pop\n      jump\t// out\n        /* \"#utility.yul\":4906:5092   */\n    tag_59:\n        /* \"#utility.yul\":4966:5086   */\n    tag_118:\n        /* \"#utility.yul\":4983:4986   */\n      dup2\n        /* \"#utility.yul\":4976:4981   */\n      dup2\n        /* \"#utility.yul\":4973:4987   */\n      lt\n        /* \"#utility.yul\":4966:5086   */\n      iszero\n      tag_120\n      jumpi\n        /* \"#utility.yul\":5037:5076   */\n      tag_121\n        /* \"#utility.yul\":5074:5075   */\n      0x00\n        /* \"#utility.yul\":5067:5072   */\n      dup3\n        /* \"#utility.yul\":5037:5076   */\n      tag_58\n      jump\t// in\n    tag_121:\n        /* \"#utility.yul\":5010:5011   */\n      0x01\n        /* \"#utility.yul\":5003:5008   */\n      dup2\n        /* \"#utility.yul\":4999:5012   */\n      add\n        /* \"#utility.yul\":4990:5012   */\n      swap1\n      pop\n        /* \"#utility.yul\":4966:5086   */\n      jump(tag_118)\n    tag_120:\n        /* \"#utility.yul\":4906:5092   */\n      pop\n      pop\n      jump\t// out\n        /* \"#utility.yul\":5098:5641   */\n    tag_60:\n        /* \"#utility.yul\":5199:5201   */\n      0x1f\n        /* \"#utility.yul\":5194:5197   */\n      dup3\n        /* \"#utility.yul\":5191:5202   */\n      gt\n        /* \"#utility.yul\":5188:5634   */\n      iszero\n      tag_123\n      jumpi\n        /* \"#utility.yul\":5233:5271   */\n      tag_124\n        /* \"#utility.yul\":5265:5270   */\n      dup2\n        /* \"#utility.yul\":5233:5271   */\n      tag_49\n      jump\t// in\n    tag_124:\n        /* \"#utility.yul\":5317:5346   */\n      tag_125\n        /* \"#utility.yul\":5335:5345   */\n      dup5\n        /* \"#utility.yul\":5317:5346   */\n      tag_50\n      jump\t// in\n    tag_125:\n        /* \"#utility.yul\":5307:5315   */\n      dup2\n        /* \"#utility.yul\":5303:5347   */\n      add\n        /* \"#utility.yul\":5500:5502   */\n      0x20\n        /* \"#utility.yul\":5488:5498   */\n      dup6\n        /* \"#utility.yul\":5485:5503   */\n      lt\n        /* \"#utility.yul\":5482:5531   */\n      iszero\n      tag_126\n      jumpi\n        /* \"#utility.yul\":5521:5529   */\n      dup2\n        /* \"#utility.yul\":5506:5529   */\n      swap1\n      pop\n        /* \"#utility.yul\":5482:5531   */\n    tag_126:\n        /* \"#utility.yul\":5544:5624   */\n      tag_127\n        /* \"#utility.yul\":5600:5622   */\n      tag_128\n        /* \"#utility.yul\":5618:5621   */\n      dup6\n        /* \"#utility.yul\":5600:5622   */\n      tag_50\n      jump\t// in\n    tag_128:\n        /* \"#utility.yul\":5590:5598   */\n      dup4\n        /* \"#utility.yul\":5586:5623   */\n      add\n        /* \"#utility.yul\":5573:5584   */\n      dup3\n        /* \"#utility.yul\":5544:5624   */\n      tag_59\n      jump\t// in\n    tag_127:\n        /* \"#utility.yul\":5203:5634   */\n      pop\n      pop\n        /* \"#utility.yul\":5188:5634   */\n    tag_123:\n        /* \"#utility.yul\":5098:5641   */\n      pop\n      pop\n      pop\n      jump\t// out\n        /* \"#utility.yul\":5647:5764   */\n    tag_61:\n        /* \"#utility.yul\":5701:5709   */\n      0x00\n        /* \"#utility.yul\":5751:5756   */\n      dup3\n        /* \"#utility.yul\":5745:5749   */\n      dup3\n        /* \"#utility.yul\":5741:5757   */\n      shr\n        /* \"#utility.yul\":5720:5757   */\n      swap1\n      pop\n        /* \"#utility.yul\":5647:5764   */\n      swap3\n      swap2\n      pop\n      pop\n      jump\t// out\n        /* \"#utility.yul\":5770:5939   */\n    tag_62:\n        /* \"#utility.yul\":5814:5820   */\n      0x00\n        /* \"#utility.yul\":5847:5898   */\n      tag_131\n        /* \"#utility.yul\":5895:5896   */\n      0x00\n        /* \"#utility.yul\":5891:5897   */\n      not\n        /* \"#utility.yul\":5883:5888   */\n      dup5\n        /* \"#utility.yul\":5880:5881   */\n      0x08\n        /* \"#utility.yul\":5876:5889   */\n      mul\n        /* \"#utility.yul\":5847:5898   */\n      tag_61\n      jump\t// in\n    tag_131:\n        /* \"#utility.yul\":5843:5899   */\n      not\n        /* \"#utility.yul\":5928:5932   */\n      dup1\n        /* \"#utility.yul\":5922:5926   */\n      dup4\n        /* \"#utility.yul\":5918:5933   */\n      and\n        /* \"#utility.yul\":5908:5933   */\n      swap2\n      pop\n        /* \"#utility.yul\":5821:5939   */\n      pop\n        /* \"#utility.yul\":5770:5939   */\n      swap3\n      swap2\n      pop\n      pop\n      jump\t// out\n        /* \"#utility.yul\":5944:6239   */\n    tag_63:\n        /* \"#utility.yul\":6020:6024   */\n      0x00\n        /* \"#utility.yul\":6166:6195   */\n      tag_133\n        /* \"#utility.yul\":6191:6194   */\n      dup4\n        /* \"#utility.yul\":6185:6189   */\n      dup4\n        /* \"#utility.yul\":6166:6195   */\n      tag_62\n      jump\t// in\n    tag_133:\n        /* \"#utility.yul\":6158:6195   */\n      swap2\n      pop\n        /* \"#utility.yul\":6228:6231   */\n      dup3\n        /* \"#utility.yul\":6225:6226   */\n      0x02\n        /* \"#utility.yul\":6221:6232   */\n      mul\n        /* \"#utility.yul\":6215:6219   */\n      dup3\n        /* \"#utility.yul\":6212:6233   */\n      or\n        /* \"#utility.yul\":6204:6233   */\n      swap1\n      pop\n        /* \"#utility.yul\":5944:6239   */\n      swap3\n      swap2\n      pop\n      pop\n      jump\t// out\n        /* \"#utility.yul\":6244:7639   */\n    tag_36:\n        /* \"#utility.yul\":6361:6398   */\n      tag_135\n        /* \"#utility.yul\":6394:6397   */\n      dup3\n        /* \"#utility.yul\":6361:6398   */\n      tag_38\n      jump\t// in\n    tag_135:\n        /* \"#utility.yul\":6463:6481   */\n      0xffffffffffffffff\n        /* \"#utility.yul\":6455:6461   */\n      dup2\n        /* \"#utility.yul\":6452:6482   */\n      gt\n        /* \"#utility.yul\":6449:6505   */\n      iszero\n      tag_136\n      jumpi\n        /* \"#utility.yul\":6485:6503   */\n      tag_137\n      tag_48\n      jump\t// in\n    tag_137:\n        /* \"#utility.yul\":6449:6505   */\n    tag_136:\n        /* \"#utility.yul\":6529:6567   */\n      tag_138\n        /* \"#utility.yul\":6561:6565   */\n      dup3\n        /* \"#utility.yul\":6555:6566   */\n      sload\n        /* \"#utility.yul\":6529:6567   */\n      tag_18\n      jump\t// in\n    tag_138:\n        /* \"#utility.yul\":6614:6681   */\n      tag_139\n        /* \"#utility.yul\":6674:6680   */\n      dup3\n        /* \"#utility.yul\":6666:6672   */\n      dup3\n        /* \"#utility.yul\":6660:6664   */\n      dup6\n        /* \"#utility.yul\":6614:6681   */\n      tag_60\n      jump\t// in\n    tag_139:\n        /* \"#utility.yul\":6708:6709   */\n      0x00\n        /* \"#utility.yul\":6732:6736   */\n      0x20\n        /* \"#utility.yul\":6719:6736   */\n      swap1\n      pop\n        /* \"#utility.yul\":6764:6766   */\n      0x1f\n        /* \"#utility.yul\":6756:6762   */\n      dup4\n        /* \"#utility.yul\":6753:6767   */\n      gt\n        /* \"#utility.yul\":6781:6782   */\n      0x01\n        /* \"#utility.yul\":6776:7394   */\n      dup2\n      eq\n      tag_141\n      jumpi\n        /* \"#utility.yul\":7438:7439   */\n      0x00\n        /* \"#utility.yul\":7455:7461   */\n      dup5\n        /* \"#utility.yul\":7452:7529   */\n      iszero\n      tag_142\n      jumpi\n        /* \"#utility.yul\":7504:7513   */\n      dup3\n        /* \"#utility.yul\":7499:7502   */\n      dup8\n        /* \"#utility.yul\":7495:7514   */\n      add\n        /* \"#utility.yul\":7489:7515   */\n      mload\n        /* \"#utility.yul\":7480:7515   */\n      swap1\n      pop\n        /* \"#utility.yul\":7452:7529   */\n    tag_142:\n        /* \"#utility.yul\":7555:7622   */\n      tag_143\n        /* \"#utility.yul\":7615:7621   */\n      dup6\n        /* \"#utility.yul\":7608:7613   */\n      dup3\n        /* \"#utility.yul\":7555:7622   */\n      tag_63\n      jump\t// in\n    tag_143:\n        /* \"#utility.yul\":7549:7553   */\n      dup7\n        /* \"#utility.yul\":7542:7623   */\n      sstore\n        /* \"#utility.yul\":7411:7633   */\n      pop\n        /* \"#utility.yul\":6746:7633   */\n      jump(tag_140)\n        /* \"#utility.yul\":6776:7394   */\n    tag_141:\n        /* \"#utility.yul\":6828:6832   */\n      0x1f\n        /* \"#utility.yul\":6824:6833   */\n      not\n        /* \"#utility.yul\":6816:6822   */\n      dup5\n        /* \"#utility.yul\":6812:6834   */\n      and\n        /* \"#utility.yul\":6862:6899   */\n      tag_144\n        /* \"#utility.yul\":6894:6898   */\n      dup7\n        /* \"#utility.yul\":6862:6899   */\n      tag_49\n      jump\t// in\n    tag_144:\n        /* \"#utility.yul\":6921:6922   */\n      0x00\n        /* \"#utility.yul\":6935:7143   */\n    tag_145:\n        /* \"#utility.yul\":6949:6956   */\n      dup3\n        /* \"#utility.yul\":6946:6947   */\n      dup2\n        /* \"#utility.yul\":6943:6957   */\n      lt\n        /* \"#utility.yul\":6935:7143   */\n      iszero\n      tag_147\n      jumpi\n        /* \"#utility.yul\":7028:7037   */\n      dup5\n        /* \"#utility.yul\":7023:7026   */\n      dup10\n        /* \"#utility.yul\":7019:7038   */\n      add\n        /* \"#utility.yul\":7013:7039   */\n      mload\n        /* \"#utility.yul\":7005:7011   */\n      dup3\n        /* \"#utility.yul\":6998:7040   */\n      sstore\n        /* \"#utility.yul\":7079:7080   */\n      0x01\n        /* \"#utility.yul\":7071:7077   */\n      dup3\n        /* \"#utility.yul\":7067:7081   */\n      add\n        /* \"#utility.yul\":7057:7081   */\n      swap2\n      pop\n        /* \"#utility.yul\":7126:7128   */\n      0x20\n        /* \"#utility.yul\":7115:7124   */\n      dup6\n        /* \"#utility.yul\":7111:7129   */\n      add\n        /* \"#utility.yul\":7098:7129   */\n      swap5\n      pop\n        /* \"#utility.yul\":6972:6976   */\n      0x20\n        /* \"#utility.yul\":6969:6970   */\n      dup2\n        /* \"#utility.yul\":6965:6977   */\n      add\n        /* \"#utility.yul\":6960:6977   */\n      swap1\n      pop\n        /* \"#utility.yul\":6935:7143   */\n      jump(tag_145)\n    tag_147:\n        /* \"#utility.yul\":7171:7177   */\n      dup7\n        /* \"#utility.yul\":7162:7169   */\n      dup4\n        /* \"#utility.yul\":7159:7178   */\n      lt\n        /* \"#utility.yul\":7156:7335   */\n      iszero\n      tag_148\n      jumpi\n        /* \"#utility.yul\":7229:7238   */\n      dup5\n        /* \"#utility.yul\":7224:7227   */\n      dup10\n        /* \"#utility.yul\":7220:7239   */\n      add\n        /* \"#utility.yul\":7214:7240   */\n      mload\n        /* \"#utility.yul\":7272:7320   */\n      tag_149\n        /* \"#utility.yul\":7314:7318   */\n      0x1f\n        /* \"#utility.yul\":7306:7312   */\n      dup10\n        /* \"#utility.yul\":7302:7319   */\n      and\n        /* \"#utility.yul\":7291:7300   */\n      dup3\n        /* \"#utility.yul\":7272:7320   */\n      tag_62\n      jump\t// in\n    tag_149:\n        /* \"#utility.yul\":7264:7270   */\n      dup4\n        /* \"#utility.yul\":7257:7321   */\n      sstore\n        /* \"#utility.yul\":7179:7335   */\n      pop\n        /* \"#utility.yul\":7156:7335   */\n    tag_148:\n        /* \"#utility.yul\":7381:7382   */\n      0x01\n        /* \"#utility.yul\":7377:7378   */\n      0x02\n        /* \"#utility.yul\":7369:7375   */\n      dup9\n        /* \"#utility.yul\":7365:7379   */\n      mul\n        /* \"#utility.yul\":7361:7383   */\n      add\n        /* \"#utility.yul\":7355:7359   */\n      dup9\n        /* \"#utility.yul\":7348:7384   */\n      sstore\n        /* \"#utility.yul\":6783:7394   */\n      pop\n      pop\n      pop\n        /* \"#utility.yul\":6746:7633   */\n    tag_140:\n      pop\n        /* \"#utility.yul\":6336:7639   */\n      pop\n      pop\n      pop\n        /* \"#utility.yul\":6244:7639   */\n      pop\n      pop\n      jump\t// out\n\n    auxdata: 0xa2646970667358221220129ce1271a5be2887c8478f499128426f30949afcc1fb4e4a9437b4269b185e964736f6c63430008160033\n}\n",
				"bytecode": {
					"linkReferences": {},
					"object": "608060405260405180608001604052806040518060400160405280601281526020017f646920686f632076612064692063686f6920000000000000000000000000000081525081526020016040518060400160405280600981526020017f746865207468616f2000000000000000000000000000000000000000000000008152508152602001600281526020015f151581525060045f820151815f019081620000a9919062000364565b506020820151816001019081620000c1919062000364565b50604082015181600201556060820151816003015f6101000a81548160ff0219169083151502179055505050348015620000f9575f80fd5b5062000448565b5f81519050919050565b7f4e487b71000000000000000000000000000000000000000000000000000000005f52604160045260245ffd5b7f4e487b71000000000000000000000000000000000000000000000000000000005f52602260045260245ffd5b5f60028204905060018216806200017c57607f821691505b60208210810362000192576200019162000137565b5b50919050565b5f819050815f5260205f209050919050565b5f6020601f8301049050919050565b5f82821b905092915050565b5f60088302620001f67fffffffffffffffffffffffffffffffffffffffffffffffffffffffffffffffff82620001b9565b620002028683620001b9565b95508019841693508086168417925050509392505050565b5f819050919050565b5f819050919050565b5f6200024c6200024662000240846200021a565b62000223565b6200021a565b9050919050565b5f819050919050565b62000267836200022c565b6200027f620002768262000253565b848454620001c5565b825550505050565b5f90565b6200029562000287565b620002a28184846200025c565b505050565b5b81811015620002c957620002bd5f826200028b565b600181019050620002a8565b5050565b601f8211156200031857620002e28162000198565b620002ed84620001aa565b81016020851015620002fd578190505b620003156200030c85620001aa565b830182620002a7565b50505b505050565b5f82821c905092915050565b5f6200033a5f19846008026200031d565b1980831691505092915050565b5f62000354838362000329565b9150826002028217905092915050565b6200036f8262000100565b67ffffffffffffffff8111156200038b576200038a6200010a565b5b62000397825462000164565b620003a4828285620002cd565b5f60209050601f831160018114620003da575f8415620003c5578287015190505b620003d1858262000347565b86555062000440565b601f198416620003ea8662000198565b5f5b828110156200041357848901518255600182019150602085019450602081019050620003ec565b868310156200043357848901516200042f601f89168262000329565b8355505b6001600288020188555050505b505050505050565b6107c180620004565f395ff3fe608060405234801561000f575f80fd5b506004361061003f575f3560e01c80631c977b4114610043578063b87f86b714610064578063f3ebb82d14610083575b5f80fd5b61004b61008d565b60405161005b9493929190610416565b60405180910390f35b61006c6101d5565b60405161007a929190610467565b60405180910390f35b61008b610272565b005b6060805f8060045f01600460010160046003015f9054906101000a900460ff166004600201548380546100bf906104c2565b80601f01602080910402602001604051908101604052809291908181526020018280546100eb906104c2565b80156101365780601f1061010d57610100808354040283529160200191610136565b820191905f5260205f20905b81548152906001019060200180831161011957829003601f168201915b50505050509350828054610149906104c2565b80601f0160208091040260200160405190810160405280929190818152602001828054610175906104c2565b80156101c05780601f10610197576101008083540402835291602001916101c0565b820191905f5260205f20905b8154815290600101906020018083116101a357829003601f168201915b50505050509250935093509350935090919293565b60605f805f015f600201548180546101ec906104c2565b80601f0160208091040260200160405190810160405280929190818152602001828054610218906104c2565b80156102635780601f1061023a57610100808354040283529160200191610263565b820191905f5260205f20905b81548152906001019060200180831161024657829003601f168201915b50505050509150915091509091565b60405180608001604052806040518060400160405280601081526020017f616e20756f6e67206e6775206e6768690000000000000000000000000000000081525081526020016040518060400160405280600a81526020017f63686179206e6861792000000000000000000000000000000000000000000000815250815260200160018152602001600115158152505f80820151815f01908161031591906106bc565b50602082015181600101908161032b91906106bc565b50604082015181600201556060820151816003015f6101000a81548160ff021916908315150217905550905050565b5f81519050919050565b5f82825260208201905092915050565b5f5b83811015610391578082015181840152602081019050610376565b5f8484015250505050565b5f601f19601f8301169050919050565b5f6103b68261035a565b6103c08185610364565b93506103d0818560208601610374565b6103d98161039c565b840191505092915050565b5f8115159050919050565b6103f8816103e4565b82525050565b5f819050919050565b610410816103fe565b82525050565b5f6080820190508181035f83015261042e81876103ac565b9050818103602083015261044281866103ac565b905061045160408301856103ef565b61045e6060830184610407565b95945050505050565b5f6040820190508181035f83015261047f81856103ac565b905061048e6020830184610407565b9392505050565b7f4e487b71000000000000000000000000000000000000000000000000000000005f52602260045260245ffd5b5f60028204905060018216806104d957607f821691505b6020821081036104ec576104eb610495565b5b50919050565b7f4e487b71000000000000000000000000000000000000000000000000000000005f52604160045260245ffd5b5f819050815f5260205f209050919050565b5f6020601f8301049050919050565b5f82821b905092915050565b5f6008830261057b7fffffffffffffffffffffffffffffffffffffffffffffffffffffffffffffffff82610540565b6105858683610540565b95508019841693508086168417925050509392505050565b5f819050919050565b5f6105c06105bb6105b6846103fe565b61059d565b6103fe565b9050919050565b5f819050919050565b6105d9836105a6565b6105ed6105e5826105c7565b84845461054c565b825550505050565b5f90565b6106016105f5565b61060c8184846105d0565b505050565b5b8181101561062f576106245f826105f9565b600181019050610612565b5050565b601f821115610674576106458161051f565b61064e84610531565b8101602085101561065d578190505b61067161066985610531565b830182610611565b50505b505050565b5f82821c905092915050565b5f6106945f1984600802610679565b1980831691505092915050565b5f6106ac8383610685565b9150826002028217905092915050565b6106c58261035a565b67ffffffffffffffff8111156106de576106dd6104f2565b5b6106e882546104c2565b6106f3828285610633565b5f60209050601f831160018114610724575f8415610712578287015190505b61071c85826106a1565b865550610783565b601f1984166107328661051f565b5f5b8281101561075957848901518255600182019150602085019450602081019050610734565b868310156107765784890151610772601f891682610685565b8355505b6001600288020188555050505b50505050505056fea2646970667358221220129ce1271a5be2887c8478f499128426f30949afcc1fb4e4a9437b4269b185e964736f6c63430008160033",
					"opcodes": "PUSH1 0x80 PUSH1 0x40 MSTORE PUSH1 0x40 MLOAD DUP1 PUSH1 0x80 ADD PUSH1 0x40 MSTORE DUP1 PUSH1 0x40 MLOAD DUP1 PUSH1 0x40 ADD PUSH1 0x40 MSTORE DUP1 PUSH1 0x12 DUP2 MSTORE PUSH1 0x20 ADD PUSH32 0x646920686F632076612064692063686F69200000000000000000000000000000 DUP2 MSTORE POP DUP2 MSTORE PUSH1 0x20 ADD PUSH1 0x40 MLOAD DUP1 PUSH1 0x40 ADD PUSH1 0x40 MSTORE DUP1 PUSH1 0x9 DUP2 MSTORE PUSH1 0x20 ADD PUSH32 0x746865207468616F200000000000000000000000000000000000000000000000 DUP2 MSTORE POP DUP2 MSTORE PUSH1 0x20 ADD PUSH1 0x2 DUP2 MSTORE PUSH1 0x20 ADD PUSH0 ISZERO ISZERO DUP2 MSTORE POP PUSH1 0x4 PUSH0 DUP3 ADD MLOAD DUP2 PUSH0 ADD SWAP1 DUP2 PUSH3 0xA9 SWAP2 SWAP1 PUSH3 0x364 JUMP JUMPDEST POP PUSH1 0x20 DUP3 ADD MLOAD DUP2 PUSH1 0x1 ADD SWAP1 DUP2 PUSH3 0xC1 SWAP2 SWAP1 PUSH3 0x364 JUMP JUMPDEST POP PUSH1 0x40 DUP3 ADD MLOAD DUP2 PUSH1 0x2 ADD SSTORE PUSH1 0x60 DUP3 ADD MLOAD DUP2 PUSH1 0x3 ADD PUSH0 PUSH2 0x100 EXP DUP2 SLOAD DUP2 PUSH1 0xFF MUL NOT AND SWAP1 DUP4 ISZERO ISZERO MUL OR SWAP1 SSTORE POP POP POP CALLVALUE DUP1 ISZERO PUSH3 0xF9 JUMPI PUSH0 DUP1 REVERT JUMPDEST POP PUSH3 0x448 JUMP JUMPDEST PUSH0 DUP2 MLOAD SWAP1 POP SWAP2 SWAP1 POP JUMP JUMPDEST PUSH32 0x4E487B7100000000000000000000000000000000000000000000000000000000 PUSH0 MSTORE PUSH1 0x41 PUSH1 0x4 MSTORE PUSH1 0x24 PUSH0 REVERT JUMPDEST PUSH32 0x4E487B7100000000000000000000000000000000000000000000000000000000 PUSH0 MSTORE PUSH1 0x22 PUSH1 0x4 MSTORE PUSH1 0x24 PUSH0 REVERT JUMPDEST PUSH0 PUSH1 0x2 DUP3 DIV SWAP1 POP PUSH1 0x1 DUP3 AND DUP1 PUSH3 0x17C JUMPI PUSH1 0x7F DUP3 AND SWAP2 POP JUMPDEST PUSH1 0x20 DUP3 LT DUP2 SUB PUSH3 0x192 JUMPI PUSH3 0x191 PUSH3 0x137 JUMP JUMPDEST JUMPDEST POP SWAP2 SWAP1 POP JUMP JUMPDEST PUSH0 DUP2 SWAP1 POP DUP2 PUSH0 MSTORE PUSH1 0x20 PUSH0 KECCAK256 SWAP1 POP SWAP2 SWAP1 POP JUMP JUMPDEST PUSH0 PUSH1 0x20 PUSH1 0x1F DUP4 ADD DIV SWAP1 POP SWAP2 SWAP1 POP JUMP JUMPDEST PUSH0 DUP3 DUP3 SHL SWAP1 POP SWAP3 SWAP2 POP POP JUMP JUMPDEST PUSH0 PUSH1 0x8 DUP4 MUL PUSH3 0x1F6 PUSH32 0xFFFFFFFFFFFFFFFFFFFFFFFFFFFFFFFFFFFFFFFFFFFFFFFFFFFFFFFFFFFFFFFF DUP3 PUSH3 0x1B9 JUMP JUMPDEST PUSH3 0x202 DUP7 DUP4 PUSH3 0x1B9 JUMP JUMPDEST SWAP6 POP DUP1 NOT DUP5 AND SWAP4 POP DUP1 DUP7 AND DUP5 OR SWAP3 POP POP POP SWAP4 SWAP3 POP POP POP JUMP JUMPDEST PUSH0 DUP2 SWAP1 POP SWAP2 SWAP1 POP JUMP JUMPDEST PUSH0 DUP2 SWAP1 POP SWAP2 SWAP1 POP JUMP JUMPDEST PUSH0 PUSH3 0x24C PUSH3 0x246 PUSH3 0x240 DUP5 PUSH3 0x21A JUMP JUMPDEST PUSH3 0x223 JUMP JUMPDEST PUSH3 0x21A JUMP JUMPDEST SWAP1 POP SWAP2 SWAP1 POP JUMP JUMPDEST PUSH0 DUP2 SWAP1 POP SWAP2 SWAP1 POP JUMP JUMPDEST PUSH3 0x267 DUP4 PUSH3 0x22C JUMP JUMPDEST PUSH3 0x27F PUSH3 0x276 DUP3 PUSH3 0x253 JUMP JUMPDEST DUP5 DUP5 SLOAD PUSH3 0x1C5 JUMP JUMPDEST DUP3 SSTORE POP POP POP POP JUMP JUMPDEST PUSH0 SWAP1 JUMP JUMPDEST PUSH3 0x295 PUSH3 0x287 JUMP JUMPDEST PUSH3 0x2A2 DUP2 DUP5 DUP5 PUSH3 0x25C JUMP JUMPDEST POP POP POP JUMP JUMPDEST JUMPDEST DUP2 DUP2 LT ISZERO PUSH3 0x2C9 JUMPI PUSH3 0x2BD PUSH0 DUP3 PUSH3 0x28B JUMP JUMPDEST PUSH1 0x1 DUP2 ADD SWAP1 POP PUSH3 0x2A8 JUMP JUMPDEST POP POP JUMP JUMPDEST PUSH1 0x1F DUP3 GT ISZERO PUSH3 0x318 JUMPI PUSH3 0x2E2 DUP2 PUSH3 0x198 JUMP JUMPDEST PUSH3 0x2ED DUP5 PUSH3 0x1AA JUMP JUMPDEST DUP2 ADD PUSH1 0x20 DUP6 LT ISZERO PUSH3 0x2FD JUMPI DUP2 SWAP1 POP JUMPDEST PUSH3 0x315 PUSH3 0x30C DUP6 PUSH3 0x1AA JUMP JUMPDEST DUP4 ADD DUP3 PUSH3 0x2A7 JUMP JUMPDEST POP POP JUMPDEST POP POP POP JUMP JUMPDEST PUSH0 DUP3 DUP3 SHR SWAP1 POP SWAP3 SWAP2 POP POP JUMP JUMPDEST PUSH0 PUSH3 0x33A PUSH0 NOT DUP5 PUSH1 0x8 MUL PUSH3 0x31D JUMP JUMPDEST NOT DUP1 DUP4 AND SWAP2 POP POP SWAP3 SWAP2 POP POP JUMP JUMPDEST PUSH0 PUSH3 0x354 DUP4 DUP4 PUSH3 0x329 JUMP JUMPDEST SWAP2 POP DUP3 PUSH1 0x2 MUL DUP3 OR SWAP1 POP SWAP3 SWAP2 POP POP JUMP JUMPDEST PUSH3 0x36F DUP3 PUSH3 0x100 JUMP JUMPDEST PUSH8 0xFFFFFFFFFFFFFFFF DUP2 GT ISZERO PUSH3 0x38B JUMPI PUSH3 0x38A PUSH3 0x10A JUMP JUMPDEST JUMPDEST PUSH3 0x397 DUP3 SLOAD PUSH3 0x164 JUMP JUMPDEST PUSH3 0x3A4 DUP3 DUP3 DUP6 PUSH3 0x2CD JUMP JUMPDEST PUSH0 PUSH1 0x20 SWAP1 POP PUSH1 0x1F DUP4 GT PUSH1 0x1 DUP2 EQ PUSH3 0x3DA JUMPI PUSH0 DUP5 ISZERO PUSH3 0x3C5 JUMPI DUP3 DUP8 ADD MLOAD SWAP1 POP JUMPDEST PUSH3 0x3D1 DUP6 DUP3 PUSH3 0x347 JUMP JUMPDEST DUP7 SSTORE POP PUSH3 0x440 JUMP JUMPDEST PUSH1 0x1F NOT DUP5 AND PUSH3 0x3EA DUP7 PUSH3 0x198 JUMP JUMPDEST PUSH0 JUMPDEST DUP3 DUP2 LT ISZERO PUSH3 0x413 JUMPI DUP5 DUP10 ADD MLOAD DUP3 SSTORE PUSH1 0x1 DUP3 ADD SWAP2 POP PUSH1 0x20 DUP6 ADD SWAP5 POP PUSH1 0x20 DUP2 ADD SWAP1 POP PUSH3 0x3EC JUMP JUMPDEST DUP7 DUP4 LT ISZERO PUSH3 0x433 JUMPI DUP5 DUP10 ADD MLOAD PUSH3 0x42F PUSH1 0x1F DUP10 AND DUP3 PUSH3 0x329 JUMP JUMPDEST DUP4 SSTORE POP JUMPDEST PUSH1 0x1 PUSH1 0x2 DUP9 MUL ADD DUP9 SSTORE POP POP POP JUMPDEST POP POP POP POP POP POP JUMP JUMPDEST PUSH2 0x7C1 DUP1 PUSH3 0x456 PUSH0 CODECOPY PUSH0 RETURN INVALID PUSH1 0x80 PUSH1 0x40 MSTORE CALLVALUE DUP1 ISZERO PUSH2 0xF JUMPI PUSH0 DUP1 REVERT JUMPDEST POP PUSH1 0x4 CALLDATASIZE LT PUSH2 0x3F JUMPI PUSH0 CALLDATALOAD PUSH1 0xE0 SHR DUP1 PUSH4 0x1C977B41 EQ PUSH2 0x43 JUMPI DUP1 PUSH4 0xB87F86B7 EQ PUSH2 0x64 JUMPI DUP1 PUSH4 0xF3EBB82D EQ PUSH2 0x83 JUMPI JUMPDEST PUSH0 DUP1 REVERT JUMPDEST PUSH2 0x4B PUSH2 0x8D JUMP JUMPDEST PUSH1 0x40 MLOAD PUSH2 0x5B SWAP5 SWAP4 SWAP3 SWAP2 SWAP1 PUSH2 0x416 JUMP JUMPDEST PUSH1 0x40 MLOAD DUP1 SWAP2 SUB SWAP1 RETURN JUMPDEST PUSH2 0x6C PUSH2 0x1D5 JUMP JUMPDEST PUSH1 0x40 MLOAD PUSH2 0x7A SWAP3 SWAP2 SWAP1 PUSH2 0x467 JUMP JUMPDEST PUSH1 0x40 MLOAD DUP1 SWAP2 SUB SWAP1 RETURN JUMPDEST PUSH2 0x8B PUSH2 0x272 JUMP JUMPDEST STOP JUMPDEST PUSH1 0x60 DUP1 PUSH0 DUP1 PUSH1 0x4 PUSH0 ADD PUSH1 0x4 PUSH1 0x1 ADD PUSH1 0x4 PUSH1 0x3 ADD PUSH0 SWAP1 SLOAD SWAP1 PUSH2 0x100 EXP SWAP1 DIV PUSH1 0xFF AND PUSH1 0x4 PUSH1 0x2 ADD SLOAD DUP4 DUP1 SLOAD PUSH2 0xBF SWAP1 PUSH2 0x4C2 JUMP JUMPDEST DUP1 PUSH1 0x1F ADD PUSH1 0x20 DUP1 SWAP2 DIV MUL PUSH1 0x20 ADD PUSH1 0x40 MLOAD SWAP1 DUP2 ADD PUSH1 0x40 MSTORE DUP1 SWAP3 SWAP2 SWAP1 DUP2 DUP2 MSTORE PUSH1 0x20 ADD DUP3 DUP1 SLOAD PUSH2 0xEB SWAP1 PUSH2 0x4C2 JUMP JUMPDEST DUP1 ISZERO PUSH2 0x136 JUMPI DUP1 PUSH1 0x1F LT PUSH2 0x10D JUMPI PUSH2 0x100 DUP1 DUP4 SLOAD DIV MUL DUP4 MSTORE SWAP2 PUSH1 0x20 ADD SWAP2 PUSH2 0x136 JUMP JUMPDEST DUP3 ADD SWAP2 SWAP1 PUSH0 MSTORE PUSH1 0x20 PUSH0 KECCAK256 SWAP1 JUMPDEST DUP2 SLOAD DUP2 MSTORE SWAP1 PUSH1 0x1 ADD SWAP1 PUSH1 0x20 ADD DUP1 DUP4 GT PUSH2 0x119 JUMPI DUP3 SWAP1 SUB PUSH1 0x1F AND DUP3 ADD SWAP2 JUMPDEST POP POP POP POP POP SWAP4 POP DUP3 DUP1 SLOAD PUSH2 0x149 SWAP1 PUSH2 0x4C2 JUMP JUMPDEST DUP1 PUSH1 0x1F ADD PUSH1 0x20 DUP1 SWAP2 DIV MUL PUSH1 0x20 ADD PUSH1 0x40 MLOAD SWAP1 DUP2 ADD PUSH1 0x40 MSTORE DUP1 SWAP3 SWAP2 SWAP1 DUP2 DUP2 MSTORE PUSH1 0x20 ADD DUP3 DUP1 SLOAD PUSH2 0x175 SWAP1 PUSH2 0x4C2 JUMP JUMPDEST DUP1 ISZERO PUSH2 0x1C0 JUMPI DUP1 PUSH1 0x1F LT PUSH2 0x197 JUMPI PUSH2 0x100 DUP1 DUP4 SLOAD DIV MUL DUP4 MSTORE SWAP2 PUSH1 0x20 ADD SWAP2 PUSH2 0x1C0 JUMP JUMPDEST DUP3 ADD SWAP2 SWAP1 PUSH0 MSTORE PUSH1 0x20 PUSH0 KECCAK256 SWAP1 JUMPDEST DUP2 SLOAD DUP2 MSTORE SWAP1 PUSH1 0x1 ADD SWAP1 PUSH1 0x20 ADD DUP1 DUP4 GT PUSH2 0x1A3 JUMPI DUP3 SWAP1 SUB PUSH1 0x1F AND DUP3 ADD SWAP2 JUMPDEST POP POP POP POP POP SWAP3 POP SWAP4 POP SWAP4 POP SWAP4 POP SWAP4 POP SWAP1 SWAP2 SWAP3 SWAP4 JUMP JUMPDEST PUSH1 0x60 PUSH0 DUP1 PUSH0 ADD PUSH0 PUSH1 0x2 ADD SLOAD DUP2 DUP1 SLOAD PUSH2 0x1EC SWAP1 PUSH2 0x4C2 JUMP JUMPDEST DUP1 PUSH1 0x1F ADD PUSH1 0x20 DUP1 SWAP2 DIV MUL PUSH1 0x20 ADD PUSH1 0x40 MLOAD SWAP1 DUP2 ADD PUSH1 0x40 MSTORE DUP1 SWAP3 SWAP2 SWAP1 DUP2 DUP2 MSTORE PUSH1 0x20 ADD DUP3 DUP1 SLOAD PUSH2 0x218 SWAP1 PUSH2 0x4C2 JUMP JUMPDEST DUP1 ISZERO PUSH2 0x263 JUMPI DUP1 PUSH1 0x1F LT PUSH2 0x23A JUMPI PUSH2 0x100 DUP1 DUP4 SLOAD DIV MUL DUP4 MSTORE SWAP2 PUSH1 0x20 ADD SWAP2 PUSH2 0x263 JUMP JUMPDEST DUP3 ADD SWAP2 SWAP1 PUSH0 MSTORE PUSH1 0x20 PUSH0 KECCAK256 SWAP1 JUMPDEST DUP2 SLOAD DUP2 MSTORE SWAP1 PUSH1 0x1 ADD SWAP1 PUSH1 0x20 ADD DUP1 DUP4 GT PUSH2 0x246 JUMPI DUP3 SWAP1 SUB PUSH1 0x1F AND DUP3 ADD SWAP2 JUMPDEST POP POP POP POP POP SWAP2 POP SWAP2 POP SWAP2 POP SWAP1 SWAP2 JUMP JUMPDEST PUSH1 0x40 MLOAD DUP1 PUSH1 0x80 ADD PUSH1 0x40 MSTORE DUP1 PUSH1 0x40 MLOAD DUP1 PUSH1 0x40 ADD PUSH1 0x40 MSTORE DUP1 PUSH1 0x10 DUP2 MSTORE PUSH1 0x20 ADD PUSH32 0x616E20756F6E67206E6775206E67686900000000000000000000000000000000 DUP2 MSTORE POP DUP2 MSTORE PUSH1 0x20 ADD PUSH1 0x40 MLOAD DUP1 PUSH1 0x40 ADD PUSH1 0x40 MSTORE DUP1 PUSH1 0xA DUP2 MSTORE PUSH1 0x20 ADD PUSH32 0x63686179206E6861792000000000000000000000000000000000000000000000 DUP2 MSTORE POP DUP2 MSTORE PUSH1 0x20 ADD PUSH1 0x1 DUP2 MSTORE PUSH1 0x20 ADD PUSH1 0x1 ISZERO ISZERO DUP2 MSTORE POP PUSH0 DUP1 DUP3 ADD MLOAD DUP2 PUSH0 ADD SWAP1 DUP2 PUSH2 0x315 SWAP2 SWAP1 PUSH2 0x6BC JUMP JUMPDEST POP PUSH1 0x20 DUP3 ADD MLOAD DUP2 PUSH1 0x1 ADD SWAP1 DUP2 PUSH2 0x32B SWAP2 SWAP1 PUSH2 0x6BC JUMP JUMPDEST POP PUSH1 0x40 DUP3 ADD MLOAD DUP2 PUSH1 0x2 ADD SSTORE PUSH1 0x60 DUP3 ADD MLOAD DUP2 PUSH1 0x3 ADD PUSH0 PUSH2 0x100 EXP DUP2 SLOAD DUP2 PUSH1 0xFF MUL NOT AND SWAP1 DUP4 ISZERO ISZERO MUL OR SWAP1 SSTORE POP SWAP1 POP POP JUMP JUMPDEST PUSH0 DUP2 MLOAD SWAP1 POP SWAP2 SWAP1 POP JUMP JUMPDEST PUSH0 DUP3 DUP3 MSTORE PUSH1 0x20 DUP3 ADD SWAP1 POP SWAP3 SWAP2 POP POP JUMP JUMPDEST PUSH0 JUMPDEST DUP4 DUP2 LT ISZERO PUSH2 0x391 JUMPI DUP1 DUP3 ADD MLOAD DUP2 DUP5 ADD MSTORE PUSH1 0x20 DUP2 ADD SWAP1 POP PUSH2 0x376 JUMP JUMPDEST PUSH0 DUP5 DUP5 ADD MSTORE POP POP POP POP JUMP JUMPDEST PUSH0 PUSH1 0x1F NOT PUSH1 0x1F DUP4 ADD AND SWAP1 POP SWAP2 SWAP1 POP JUMP JUMPDEST PUSH0 PUSH2 0x3B6 DUP3 PUSH2 0x35A JUMP JUMPDEST PUSH2 0x3C0 DUP2 DUP6 PUSH2 0x364 JUMP JUMPDEST SWAP4 POP PUSH2 0x3D0 DUP2 DUP6 PUSH1 0x20 DUP7 ADD PUSH2 0x374 JUMP JUMPDEST PUSH2 0x3D9 DUP2 PUSH2 0x39C JUMP JUMPDEST DUP5 ADD SWAP2 POP POP SWAP3 SWAP2 POP POP JUMP JUMPDEST PUSH0 DUP2 ISZERO ISZERO SWAP1 POP SWAP2 SWAP1 POP JUMP JUMPDEST PUSH2 0x3F8 DUP2 PUSH2 0x3E4 JUMP JUMPDEST DUP3 MSTORE POP POP JUMP JUMPDEST PUSH0 DUP2 SWAP1 POP SWAP2 SWAP1 POP JUMP JUMPDEST PUSH2 0x410 DUP2 PUSH2 0x3FE JUMP JUMPDEST DUP3 MSTORE POP POP JUMP JUMPDEST PUSH0 PUSH1 0x80 DUP3 ADD SWAP1 POP DUP2 DUP2 SUB PUSH0 DUP4 ADD MSTORE PUSH2 0x42E DUP2 DUP8 PUSH2 0x3AC JUMP JUMPDEST SWAP1 POP DUP2 DUP2 SUB PUSH1 0x20 DUP4 ADD MSTORE PUSH2 0x442 DUP2 DUP7 PUSH2 0x3AC JUMP JUMPDEST SWAP1 POP PUSH2 0x451 PUSH1 0x40 DUP4 ADD DUP6 PUSH2 0x3EF JUMP JUMPDEST PUSH2 0x45E PUSH1 0x60 DUP4 ADD DUP5 PUSH2 0x407 JUMP JUMPDEST SWAP6 SWAP5 POP POP POP POP POP JUMP JUMPDEST PUSH0 PUSH1 0x40 DUP3 ADD SWAP1 POP DUP2 DUP2 SUB PUSH0 DUP4 ADD MSTORE PUSH2 0x47F DUP2 DUP6 PUSH2 0x3AC JUMP JUMPDEST SWAP1 POP PUSH2 0x48E PUSH1 0x20 DUP4 ADD DUP5 PUSH2 0x407 JUMP JUMPDEST SWAP4 SWAP3 POP POP POP JUMP JUMPDEST PUSH32 0x4E487B7100000000000000000000000000000000000000000000000000000000 PUSH0 MSTORE PUSH1 0x22 PUSH1 0x4 MSTORE PUSH1 0x24 PUSH0 REVERT JUMPDEST PUSH0 PUSH1 0x2 DUP3 DIV SWAP1 POP PUSH1 0x1 DUP3 AND DUP1 PUSH2 0x4D9 JUMPI PUSH1 0x7F DUP3 AND SWAP2 POP JUMPDEST PUSH1 0x20 DUP3 LT DUP2 SUB PUSH2 0x4EC JUMPI PUSH2 0x4EB PUSH2 0x495 JUMP JUMPDEST JUMPDEST POP SWAP2 SWAP1 POP JUMP JUMPDEST PUSH32 0x4E487B7100000000000000000000000000000000000000000000000000000000 PUSH0 MSTORE PUSH1 0x41 PUSH1 0x4 MSTORE PUSH1 0x24 PUSH0 REVERT JUMPDEST PUSH0 DUP2 SWAP1 POP DUP2 PUSH0 MSTORE PUSH1 0x20 PUSH0 KECCAK256 SWAP1 POP SWAP2 SWAP1 POP JUMP JUMPDEST PUSH0 PUSH1 0x20 PUSH1 0x1F DUP4 ADD DIV SWAP1 POP SWAP2 SWAP1 POP JUMP JUMPDEST PUSH0 DUP3 DUP3 SHL SWAP1 POP SWAP3 SWAP2 POP POP JUMP JUMPDEST PUSH0 PUSH1 0x8 DUP4 MUL PUSH2 0x57B PUSH32 0xFFFFFFFFFFFFFFFFFFFFFFFFFFFFFFFFFFFFFFFFFFFFFFFFFFFFFFFFFFFFFFFF DUP3 PUSH2 0x540 JUMP JUMPDEST PUSH2 0x585 DUP7 DUP4 PUSH2 0x540 JUMP JUMPDEST SWAP6 POP DUP1 NOT DUP5 AND SWAP4 POP DUP1 DUP7 AND DUP5 OR SWAP3 POP POP POP SWAP4 SWAP3 POP POP POP JUMP JUMPDEST PUSH0 DUP2 SWAP1 POP SWAP2 SWAP1 POP JUMP JUMPDEST PUSH0 PUSH2 0x5C0 PUSH2 0x5BB PUSH2 0x5B6 DUP5 PUSH2 0x3FE JUMP JUMPDEST PUSH2 0x59D JUMP JUMPDEST PUSH2 0x3FE JUMP JUMPDEST SWAP1 POP SWAP2 SWAP1 POP JUMP JUMPDEST PUSH0 DUP2 SWAP1 POP SWAP2 SWAP1 POP JUMP JUMPDEST PUSH2 0x5D9 DUP4 PUSH2 0x5A6 JUMP JUMPDEST PUSH2 0x5ED PUSH2 0x5E5 DUP3 PUSH2 0x5C7 JUMP JUMPDEST DUP5 DUP5 SLOAD PUSH2 0x54C JUMP JUMPDEST DUP3 SSTORE POP POP POP POP JUMP JUMPDEST PUSH0 SWAP1 JUMP JUMPDEST PUSH2 0x601 PUSH2 0x5F5 JUMP JUMPDEST PUSH2 0x60C DUP2 DUP5 DUP5 PUSH2 0x5D0 JUMP JUMPDEST POP POP POP JUMP JUMPDEST JUMPDEST DUP2 DUP2 LT ISZERO PUSH2 0x62F JUMPI PUSH2 0x624 PUSH0 DUP3 PUSH2 0x5F9 JUMP JUMPDEST PUSH1 0x1 DUP2 ADD SWAP1 POP PUSH2 0x612 JUMP JUMPDEST POP POP JUMP JUMPDEST PUSH1 0x1F DUP3 GT ISZERO PUSH2 0x674 JUMPI PUSH2 0x645 DUP2 PUSH2 0x51F JUMP JUMPDEST PUSH2 0x64E DUP5 PUSH2 0x531 JUMP JUMPDEST DUP2 ADD PUSH1 0x20 DUP6 LT ISZERO PUSH2 0x65D JUMPI DUP2 SWAP1 POP JUMPDEST PUSH2 0x671 PUSH2 0x669 DUP6 PUSH2 0x531 JUMP JUMPDEST DUP4 ADD DUP3 PUSH2 0x611 JUMP JUMPDEST POP POP JUMPDEST POP POP POP JUMP JUMPDEST PUSH0 DUP3 DUP3 SHR SWAP1 POP SWAP3 SWAP2 POP POP JUMP JUMPDEST PUSH0 PUSH2 0x694 PUSH0 NOT DUP5 PUSH1 0x8 MUL PUSH2 0x679 JUMP JUMPDEST NOT DUP1 DUP4 AND SWAP2 POP POP SWAP3 SWAP2 POP POP JUMP JUMPDEST PUSH0 PUSH2 0x6AC DUP4 DUP4 PUSH2 0x685 JUMP JUMPDEST SWAP2 POP DUP3 PUSH1 0x2 MUL DUP3 OR SWAP1 POP SWAP3 SWAP2 POP POP JUMP JUMPDEST PUSH2 0x6C5 DUP3 PUSH2 0x35A JUMP JUMPDEST PUSH8 0xFFFFFFFFFFFFFFFF DUP2 GT ISZERO PUSH2 0x6DE JUMPI PUSH2 0x6DD PUSH2 0x4F2 JUMP JUMPDEST JUMPDEST PUSH2 0x6E8 DUP3 SLOAD PUSH2 0x4C2 JUMP JUMPDEST PUSH2 0x6F3 DUP3 DUP3 DUP6 PUSH2 0x633 JUMP JUMPDEST PUSH0 PUSH1 0x20 SWAP1 POP PUSH1 0x1F DUP4 GT PUSH1 0x1 DUP2 EQ PUSH2 0x724 JUMPI PUSH0 DUP5 ISZERO PUSH2 0x712 JUMPI DUP3 DUP8 ADD MLOAD SWAP1 POP JUMPDEST PUSH2 0x71C DUP6 DUP3 PUSH2 0x6A1 JUMP JUMPDEST DUP7 SSTORE POP PUSH2 0x783 JUMP JUMPDEST PUSH1 0x1F NOT DUP5 AND PUSH2 0x732 DUP7 PUSH2 0x51F JUMP JUMPDEST PUSH0 JUMPDEST DUP3 DUP2 LT ISZERO PUSH2 0x759 JUMPI DUP5 DUP10 ADD MLOAD DUP3 SSTORE PUSH1 0x1 DUP3 ADD SWAP2 POP PUSH1 0x20 DUP6 ADD SWAP5 POP PUSH1 0x20 DUP2 ADD SWAP1 POP PUSH2 0x734 JUMP JUMPDEST DUP7 DUP4 LT ISZERO PUSH2 0x776 JUMPI DUP5 DUP10 ADD MLOAD PUSH2 0x772 PUSH1 0x1F DUP10 AND DUP3 PUSH2 0x685 JUMP JUMPDEST DUP4 SSTORE POP JUMPDEST PUSH1 0x1 PUSH1 0x2 DUP9 MUL ADD DUP9 SSTORE POP POP POP JUMPDEST POP POP POP POP POP POP JUMP INVALID LOG2 PUSH5 0x6970667358 0x22 SLT KECCAK256 SLT SWAP13 0xE1 0x27 BYTE JUMPDEST 0xE2 DUP9 PUSH29 0x8478F499128426F30949AFCC1FB4E4A9437B4269B185E964736F6C6343 STOP ADDMOD AND STOP CALLER "
				},
				"gasEstimates": {
					"creation": {
						"codeDepositCost": "397000",
						"executionCost": "infinite",
						"totalCost": "infinite"
					},
					"external": {
						"animal_new()": "infinite",
						"get_details()": "infinite",
						"set_animal_demo()": "infinite"
					}
				},
				"methodIdentifiers": {
					"animal_new()": "1c977b41",
					"get_details()": "b87f86b7",
					"set_animal_demo()": "f3ebb82d"
				}
			},
			"storageLayout": {
				"storage": [
					{
						"astId": 13,
						"contract": "Buổi 18/Struct/Demo.sol:Struct",
						"label": "animal1",
						"offset": 0,
						"slot": "0",
						"type": "t_struct(Animal)10_storage"
					},
					{
						"astId": 22,
						"contract": "Buổi 18/Struct/Demo.sol:Struct",
						"label": "animal2",
						"offset": 0,
						"slot": "4",
						"type": "t_struct(Animal)10_storage"
					}
				],
				"types": {
					"t_bool": {
						"encoding": "inplace",
						"label": "bool",
						"numberOfBytes": "1"
					},
					"t_string_storage": {
						"encoding": "bytes",
						"label": "string",
						"numberOfBytes": "32"
					},
					"t_struct(Animal)10_storage": {
						"encoding": "inplace",
						"label": "struct Struct.Animal",
						"members": [
							{
								"astId": 3,
								"contract": "Buổi 18/Struct/Demo.sol:Struct",
								"label": "name",
								"offset": 0,
								"slot": "0",
								"type": "t_string_storage"
							},
							{
								"astId": 5,
								"contract": "Buổi 18/Struct/Demo.sol:Struct",
								"label": "year",
								"offset": 0,
								"slot": "1",
								"type": "t_string_storage"
							},
							{
								"astId": 7,
								"contract": "Buổi 18/Struct/Demo.sol:Struct",
								"label": "run",
								"offset": 0,
								"slot": "2",
								"type": "t_uint256"
							},
							{
								"astId": 9,
								"contract": "Buổi 18/Struct/Demo.sol:Struct",
								"label": "eat",
								"offset": 0,
								"slot": "3",
								"type": "t_bool"
							}
						],
						"numberOfBytes": "128"
					},
					"t_uint256": {
						"encoding": "inplace",
						"label": "uint256",
						"numberOfBytes": "32"
					}
				}
			},
			"userdoc": {
				"kind": "user",
				"methods": {},
				"version": 1
			}
		}
	}
}